{
	"data": {
		"bytecode": {
			"linkReferences": {},
			"object": "608060405234801561001057600080fd5b506113ee806100206000396000f3fe608060405234801561001057600080fd5b50600436106100ea5760003560e01c80639054bdec1161008c578063a6f0e57711610066578063a6f0e577146102cf578063b1999937146102ff578063b238ad0e1461032f578063fa93f8831461035f576100ea565b80639054bdec1461023f57806392d663131461026f578063a324ad241461029f576100ea565b806365c72840116100c857806365c728401461017f5780637f791833146101af5780638aa001fc146101df5780638c8d98a01461020f576100ea565b80633e239e1a146100ef5780634ac1ad781461011f57806362ba96871461014f575b600080fd5b61010960048036038101906101049190610f67565b61038f565b6040516101169190611061565b60405180910390f35b61013960048036038101906101349190610f67565b6103bc565b6040516101469190611061565b60405180910390f35b61016960048036038101906101649190610e5f565b6103ec565b6040516101769190611046565b60405180910390f35b61019960048036038101906101949190610f67565b610408565b6040516101a69190611061565b60405180910390f35b6101c960048036038101906101c49190610df8565b61041e565b6040516101d69190611046565b60405180910390f35b6101f960048036038101906101f49190610f67565b610439565b6040516102069190611061565b60405180910390f35b61022960048036038101906102249190610da5565b61044f565b6040516102369190611046565b60405180910390f35b61025960048036038101906102549190610eda565b61046a565b6040516102669190611046565b60405180910390f35b61028960048036038101906102849190610f67565b6107d5565b604051610296919061102b565b60405180910390f35b6102b960048036038101906102b49190610f67565b6108ec565b6040516102c69190611061565b60405180910390f35b6102e960048036038101906102e49190610d78565b610902565b6040516102f69190611010565b60405180910390f35b61031960048036038101906103149190610f67565b610971565b6040516103269190611046565b60405180910390f35b61034960048036038101906103449190610f94565b6109c5565b6040516103569190611061565b60405180910390f35b61037960048036038101906103749190610f67565b610a91565b6040516103869190611061565b60405180910390f35b60006018603c80846103a191906110d2565b6103ab91906110d2565b6103b591906112b0565b9050919050565b60006007600462015180846103d191906110d2565b6103db919061107c565b6103e591906112b0565b9050919050565b60006103fd8686868686600061046a565b905095945050505050565b600061041382610ab2565b604001519050919050565b600061042f8585858560008061046a565b9050949350505050565b6000603c8261044891906112b0565b9050919050565b6000610461848484600080600061046a565b90509392505050565b6000806107b290505b8761ffff168161ffff1610156104ce5761048c81610902565b156104a8576301e28500826104a1919061107c565b91506104bb565b6301e13380826104b8919061107c565b91505b80806104c69061122a565b915050610473565b6104d6610cc3565b601f816000600c81106104ec576104eb61133f565b5b602002019060ff16908160ff168152505061050689610902565b1561053757601d816001600c81106105215761052061133f565b5b602002019060ff16908160ff168152505061055f565b601c816001600c811061054d5761054c61133f565b5b602002019060ff16908160ff16815250505b601f816002600c81106105755761057461133f565b5b602002019060ff16908160ff1681525050601e816003600c811061059c5761059b61133f565b5b602002019060ff16908160ff1681525050601f816004600c81106105c3576105c261133f565b5b602002019060ff16908160ff1681525050601e816005600c81106105ea576105e961133f565b5b602002019060ff16908160ff1681525050601f816006600c81106106115761061061133f565b5b602002019060ff16908160ff1681525050601f816007600c81106106385761063761133f565b5b602002019060ff16908160ff1681525050601e816008600c811061065f5761065e61133f565b5b602002019060ff16908160ff1681525050601f816009600c81106106865761068561133f565b5b602002019060ff16908160ff1681525050601e81600a600c81106106ad576106ac61133f565b5b602002019060ff16908160ff1681525050601f81600b600c81106106d4576106d361133f565b5b602002019060ff16908160ff1681525050600191505b8760ff168261ffff1610156107525780600183610707919061115d565b61ffff16600c811061071c5761071b61133f565b5b602002015160ff16620151806107329190611103565b8361073d919061107c565b9250818061074a9061122a565b9250506106ea565b60018761075f91906111c5565b60ff16620151806107709190611103565b8361077b919061107c565b92508560ff16610e1061078e9190611103565b83610799919061107c565b92508460ff16603c6107ab9190611103565b836107b6919061107c565b92508360ff16836107c7919061107c565b925050509695505050505050565b600080600090506000806301e13380856107ef91906110d2565b6107b261ffff16610800919061107c565b91506108116107b261ffff16610971565b61081e8361ffff16610971565b6108289190611191565b9050806301e2850061083a9190611103565b83610845919061107c565b9250806107b283610856919061115d565b61ffff166108649190611191565b6301e133806108739190611103565b8361087e919061107c565b92505b848311156108e15761089e600183610899919061115d565b610902565b156108ba576301e28500836108b39190611191565b92506108cd565b6301e13380836108ca9190611191565b92505b6001826108da919061115d565b9150610881565b819350505050919050565b60006108f782610ab2565b602001519050919050565b600080600483610912919061127f565b61ffff1614610924576000905061096c565b6000606483610933919061127f565b61ffff1614610945576001905061096c565b600061019083610955919061127f565b61ffff1614610967576000905061096c565b600190505b919050565b60006001826109809190611191565b91506101908261099091906110d2565b60648361099d91906110d2565b6004846109aa91906110d2565b6109b49190611191565b6109be919061107c565b9050919050565b600060018360ff1614806109dc575060038360ff16145b806109ea575060058360ff16145b806109f8575060078360ff16145b80610a06575060088360ff16145b80610a145750600a8360ff16145b80610a225750600c8360ff16145b15610a3057601f9050610a8b565b60048360ff161480610a45575060068360ff16145b80610a53575060098360ff16145b80610a615750600b8360ff16145b15610a6f57601e9050610a8b565b610a7882610902565b15610a8657601d9050610a8b565b601c90505b92915050565b6000603c8083610aa191906110d2565b610aab91906112b0565b9050919050565b610aba610ce6565b60008080610ac7856107d5565b846000019061ffff16908161ffff1681525050610ae96107b261ffff16610971565b610afa856000015161ffff16610971565b610b049190611191565b9150816301e28500610b169190611103565b83610b21919061107c565b9250816107b28560000151610b36919061115d565b61ffff16610b449190611191565b6301e13380610b539190611103565b83610b5e919061107c565b92506000600191505b600c8260ff1611610bde57610b808286600001516109c5565b60ff1662015180610b919190611103565b9050858482610ba0919061107c565b1115610bbd5781856020019060ff16908160ff1681525050610bde565b8084610bc9919061107c565b93508180610bd690611255565b925050610b67565b600191505b610bf5856020015186600001516109c5565b60ff168260ff1611610c5257858462015180610c11919061107c565b1115610c2e5781856040019060ff16908160ff1681525050610c52565b6201518084610c3d919061107c565b93508180610c4a90611255565b925050610be3565b610c5b8661038f565b856060019060ff16908160ff1681525050610c7586610a91565b856080019060ff16908160ff1681525050610c8f86610439565b8560a0019060ff16908160ff1681525050610ca9866103bc565b8560c0019060ff16908160ff168152505050505050919050565b604051806101800160405280600c90602082028036833780820191505090505090565b6040518060e00160405280600061ffff168152602001600060ff168152602001600060ff168152602001600060ff168152602001600060ff168152602001600060ff168152602001600060ff1681525090565b600081359050610d4881611373565b92915050565b600081359050610d5d8161138a565b92915050565b600081359050610d72816113a1565b92915050565b600060208284031215610d8e57610d8d61136e565b5b6000610d9c84828501610d39565b91505092915050565b600080600060608486031215610dbe57610dbd61136e565b5b6000610dcc86828701610d39565b9350506020610ddd86828701610d63565b9250506040610dee86828701610d63565b9150509250925092565b60008060008060808587031215610e1257610e1161136e565b5b6000610e2087828801610d39565b9450506020610e3187828801610d63565b9350506040610e4287828801610d63565b9250506060610e5387828801610d63565b91505092959194509250565b600080600080600060a08688031215610e7b57610e7a61136e565b5b6000610e8988828901610d39565b9550506020610e9a88828901610d63565b9450506040610eab88828901610d63565b9350506060610ebc88828901610d63565b9250506080610ecd88828901610d63565b9150509295509295909350565b60008060008060008060c08789031215610ef757610ef661136e565b5b6000610f0589828a01610d39565b9650506020610f1689828a01610d63565b9550506040610f2789828a01610d63565b9450506060610f3889828a01610d63565b9350506080610f4989828a01610d63565b92505060a0610f5a89828a01610d63565b9150509295509295509295565b600060208284031215610f7d57610f7c61136e565b5b6000610f8b84828501610d4e565b91505092915050565b60008060408385031215610fab57610faa61136e565b5b6000610fb985828601610d63565b9250506020610fca85828601610d39565b9150509250929050565b610fdd816111f9565b82525050565b610fec81611205565b82525050565b610ffb81611213565b82525050565b61100a8161121d565b82525050565b60006020820190506110256000830184610fd4565b92915050565b60006020820190506110406000830184610fe3565b92915050565b600060208201905061105b6000830184610ff2565b92915050565b60006020820190506110766000830184611001565b92915050565b600061108782611213565b915061109283611213565b9250827fffffffffffffffffffffffffffffffffffffffffffffffffffffffffffffffff038211156110c7576110c66112e1565b5b828201905092915050565b60006110dd82611213565b91506110e883611213565b9250826110f8576110f7611310565b5b828204905092915050565b600061110e82611213565b915061111983611213565b9250817fffffffffffffffffffffffffffffffffffffffffffffffffffffffffffffffff0483118215151615611152576111516112e1565b5b828202905092915050565b600061116882611205565b915061117383611205565b925082821015611186576111856112e1565b5b828203905092915050565b600061119c82611213565b91506111a783611213565b9250828210156111ba576111b96112e1565b5b828203905092915050565b60006111d08261121d565b91506111db8361121d565b9250828210156111ee576111ed6112e1565b5b828203905092915050565b60008115159050919050565b600061ffff82169050919050565b6000819050919050565b600060ff82169050919050565b600061123582611205565b915061ffff82141561124a576112496112e1565b5b600182019050919050565b60006112608261121d565b915060ff821415611274576112736112e1565b5b600182019050919050565b600061128a82611205565b915061129583611205565b9250826112a5576112a4611310565b5b828206905092915050565b60006112bb82611213565b91506112c683611213565b9250826112d6576112d5611310565b5b828206905092915050565b7f4e487b7100000000000000000000000000000000000000000000000000000000600052601160045260246000fd5b7f4e487b7100000000000000000000000000000000000000000000000000000000600052601260045260246000fd5b7f4e487b7100000000000000000000000000000000000000000000000000000000600052603260045260246000fd5b600080fd5b61137c81611205565b811461138757600080fd5b50565b61139381611213565b811461139e57600080fd5b50565b6113aa8161121d565b81146113b557600080fd5b5056fea2646970667358221220a8d846daf4610f4b9795c711a99dd04b337a3dd72212be071cb68e5270ecec2464736f6c63430008070033",
			"opcodes": "PUSH1 0x80 PUSH1 0x40 MSTORE CALLVALUE DUP1 ISZERO PUSH2 0x10 JUMPI PUSH1 0x0 DUP1 REVERT JUMPDEST POP PUSH2 0x13EE DUP1 PUSH2 0x20 PUSH1 0x0 CODECOPY PUSH1 0x0 RETURN INVALID PUSH1 0x80 PUSH1 0x40 MSTORE CALLVALUE DUP1 ISZERO PUSH2 0x10 JUMPI PUSH1 0x0 DUP1 REVERT JUMPDEST POP PUSH1 0x4 CALLDATASIZE LT PUSH2 0xEA JUMPI PUSH1 0x0 CALLDATALOAD PUSH1 0xE0 SHR DUP1 PUSH4 0x9054BDEC GT PUSH2 0x8C JUMPI DUP1 PUSH4 0xA6F0E577 GT PUSH2 0x66 JUMPI DUP1 PUSH4 0xA6F0E577 EQ PUSH2 0x2CF JUMPI DUP1 PUSH4 0xB1999937 EQ PUSH2 0x2FF JUMPI DUP1 PUSH4 0xB238AD0E EQ PUSH2 0x32F JUMPI DUP1 PUSH4 0xFA93F883 EQ PUSH2 0x35F JUMPI PUSH2 0xEA JUMP JUMPDEST DUP1 PUSH4 0x9054BDEC EQ PUSH2 0x23F JUMPI DUP1 PUSH4 0x92D66313 EQ PUSH2 0x26F JUMPI DUP1 PUSH4 0xA324AD24 EQ PUSH2 0x29F JUMPI PUSH2 0xEA JUMP JUMPDEST DUP1 PUSH4 0x65C72840 GT PUSH2 0xC8 JUMPI DUP1 PUSH4 0x65C72840 EQ PUSH2 0x17F JUMPI DUP1 PUSH4 0x7F791833 EQ PUSH2 0x1AF JUMPI DUP1 PUSH4 0x8AA001FC EQ PUSH2 0x1DF JUMPI DUP1 PUSH4 0x8C8D98A0 EQ PUSH2 0x20F JUMPI PUSH2 0xEA JUMP JUMPDEST DUP1 PUSH4 0x3E239E1A EQ PUSH2 0xEF JUMPI DUP1 PUSH4 0x4AC1AD78 EQ PUSH2 0x11F JUMPI DUP1 PUSH4 0x62BA9687 EQ PUSH2 0x14F JUMPI JUMPDEST PUSH1 0x0 DUP1 REVERT JUMPDEST PUSH2 0x109 PUSH1 0x4 DUP1 CALLDATASIZE SUB DUP2 ADD SWAP1 PUSH2 0x104 SWAP2 SWAP1 PUSH2 0xF67 JUMP JUMPDEST PUSH2 0x38F JUMP JUMPDEST PUSH1 0x40 MLOAD PUSH2 0x116 SWAP2 SWAP1 PUSH2 0x1061 JUMP JUMPDEST PUSH1 0x40 MLOAD DUP1 SWAP2 SUB SWAP1 RETURN JUMPDEST PUSH2 0x139 PUSH1 0x4 DUP1 CALLDATASIZE SUB DUP2 ADD SWAP1 PUSH2 0x134 SWAP2 SWAP1 PUSH2 0xF67 JUMP JUMPDEST PUSH2 0x3BC JUMP JUMPDEST PUSH1 0x40 MLOAD PUSH2 0x146 SWAP2 SWAP1 PUSH2 0x1061 JUMP JUMPDEST PUSH1 0x40 MLOAD DUP1 SWAP2 SUB SWAP1 RETURN JUMPDEST PUSH2 0x169 PUSH1 0x4 DUP1 CALLDATASIZE SUB DUP2 ADD SWAP1 PUSH2 0x164 SWAP2 SWAP1 PUSH2 0xE5F JUMP JUMPDEST PUSH2 0x3EC JUMP JUMPDEST PUSH1 0x40 MLOAD PUSH2 0x176 SWAP2 SWAP1 PUSH2 0x1046 JUMP JUMPDEST PUSH1 0x40 MLOAD DUP1 SWAP2 SUB SWAP1 RETURN JUMPDEST PUSH2 0x199 PUSH1 0x4 DUP1 CALLDATASIZE SUB DUP2 ADD SWAP1 PUSH2 0x194 SWAP2 SWAP1 PUSH2 0xF67 JUMP JUMPDEST PUSH2 0x408 JUMP JUMPDEST PUSH1 0x40 MLOAD PUSH2 0x1A6 SWAP2 SWAP1 PUSH2 0x1061 JUMP JUMPDEST PUSH1 0x40 MLOAD DUP1 SWAP2 SUB SWAP1 RETURN JUMPDEST PUSH2 0x1C9 PUSH1 0x4 DUP1 CALLDATASIZE SUB DUP2 ADD SWAP1 PUSH2 0x1C4 SWAP2 SWAP1 PUSH2 0xDF8 JUMP JUMPDEST PUSH2 0x41E JUMP JUMPDEST PUSH1 0x40 MLOAD PUSH2 0x1D6 SWAP2 SWAP1 PUSH2 0x1046 JUMP JUMPDEST PUSH1 0x40 MLOAD DUP1 SWAP2 SUB SWAP1 RETURN JUMPDEST PUSH2 0x1F9 PUSH1 0x4 DUP1 CALLDATASIZE SUB DUP2 ADD SWAP1 PUSH2 0x1F4 SWAP2 SWAP1 PUSH2 0xF67 JUMP JUMPDEST PUSH2 0x439 JUMP JUMPDEST PUSH1 0x40 MLOAD PUSH2 0x206 SWAP2 SWAP1 PUSH2 0x1061 JUMP JUMPDEST PUSH1 0x40 MLOAD DUP1 SWAP2 SUB SWAP1 RETURN JUMPDEST PUSH2 0x229 PUSH1 0x4 DUP1 CALLDATASIZE SUB DUP2 ADD SWAP1 PUSH2 0x224 SWAP2 SWAP1 PUSH2 0xDA5 JUMP JUMPDEST PUSH2 0x44F JUMP JUMPDEST PUSH1 0x40 MLOAD PUSH2 0x236 SWAP2 SWAP1 PUSH2 0x1046 JUMP JUMPDEST PUSH1 0x40 MLOAD DUP1 SWAP2 SUB SWAP1 RETURN JUMPDEST PUSH2 0x259 PUSH1 0x4 DUP1 CALLDATASIZE SUB DUP2 ADD SWAP1 PUSH2 0x254 SWAP2 SWAP1 PUSH2 0xEDA JUMP JUMPDEST PUSH2 0x46A JUMP JUMPDEST PUSH1 0x40 MLOAD PUSH2 0x266 SWAP2 SWAP1 PUSH2 0x1046 JUMP JUMPDEST PUSH1 0x40 MLOAD DUP1 SWAP2 SUB SWAP1 RETURN JUMPDEST PUSH2 0x289 PUSH1 0x4 DUP1 CALLDATASIZE SUB DUP2 ADD SWAP1 PUSH2 0x284 SWAP2 SWAP1 PUSH2 0xF67 JUMP JUMPDEST PUSH2 0x7D5 JUMP JUMPDEST PUSH1 0x40 MLOAD PUSH2 0x296 SWAP2 SWAP1 PUSH2 0x102B JUMP JUMPDEST PUSH1 0x40 MLOAD DUP1 SWAP2 SUB SWAP1 RETURN JUMPDEST PUSH2 0x2B9 PUSH1 0x4 DUP1 CALLDATASIZE SUB DUP2 ADD SWAP1 PUSH2 0x2B4 SWAP2 SWAP1 PUSH2 0xF67 JUMP JUMPDEST PUSH2 0x8EC JUMP JUMPDEST PUSH1 0x40 MLOAD PUSH2 0x2C6 SWAP2 SWAP1 PUSH2 0x1061 JUMP JUMPDEST PUSH1 0x40 MLOAD DUP1 SWAP2 SUB SWAP1 RETURN JUMPDEST PUSH2 0x2E9 PUSH1 0x4 DUP1 CALLDATASIZE SUB DUP2 ADD SWAP1 PUSH2 0x2E4 SWAP2 SWAP1 PUSH2 0xD78 JUMP JUMPDEST PUSH2 0x902 JUMP JUMPDEST PUSH1 0x40 MLOAD PUSH2 0x2F6 SWAP2 SWAP1 PUSH2 0x1010 JUMP JUMPDEST PUSH1 0x40 MLOAD DUP1 SWAP2 SUB SWAP1 RETURN JUMPDEST PUSH2 0x319 PUSH1 0x4 DUP1 CALLDATASIZE SUB DUP2 ADD SWAP1 PUSH2 0x314 SWAP2 SWAP1 PUSH2 0xF67 JUMP JUMPDEST PUSH2 0x971 JUMP JUMPDEST PUSH1 0x40 MLOAD PUSH2 0x326 SWAP2 SWAP1 PUSH2 0x1046 JUMP JUMPDEST PUSH1 0x40 MLOAD DUP1 SWAP2 SUB SWAP1 RETURN JUMPDEST PUSH2 0x349 PUSH1 0x4 DUP1 CALLDATASIZE SUB DUP2 ADD SWAP1 PUSH2 0x344 SWAP2 SWAP1 PUSH2 0xF94 JUMP JUMPDEST PUSH2 0x9C5 JUMP JUMPDEST PUSH1 0x40 MLOAD PUSH2 0x356 SWAP2 SWAP1 PUSH2 0x1061 JUMP JUMPDEST PUSH1 0x40 MLOAD DUP1 SWAP2 SUB SWAP1 RETURN JUMPDEST PUSH2 0x379 PUSH1 0x4 DUP1 CALLDATASIZE SUB DUP2 ADD SWAP1 PUSH2 0x374 SWAP2 SWAP1 PUSH2 0xF67 JUMP JUMPDEST PUSH2 0xA91 JUMP JUMPDEST PUSH1 0x40 MLOAD PUSH2 0x386 SWAP2 SWAP1 PUSH2 0x1061 JUMP JUMPDEST PUSH1 0x40 MLOAD DUP1 SWAP2 SUB SWAP1 RETURN JUMPDEST PUSH1 0x0 PUSH1 0x18 PUSH1 0x3C DUP1 DUP5 PUSH2 0x3A1 SWAP2 SWAP1 PUSH2 0x10D2 JUMP JUMPDEST PUSH2 0x3AB SWAP2 SWAP1 PUSH2 0x10D2 JUMP JUMPDEST PUSH2 0x3B5 SWAP2 SWAP1 PUSH2 0x12B0 JUMP JUMPDEST SWAP1 POP SWAP2 SWAP1 POP JUMP JUMPDEST PUSH1 0x0 PUSH1 0x7 PUSH1 0x4 PUSH3 0x15180 DUP5 PUSH2 0x3D1 SWAP2 SWAP1 PUSH2 0x10D2 JUMP JUMPDEST PUSH2 0x3DB SWAP2 SWAP1 PUSH2 0x107C JUMP JUMPDEST PUSH2 0x3E5 SWAP2 SWAP1 PUSH2 0x12B0 JUMP JUMPDEST SWAP1 POP SWAP2 SWAP1 POP JUMP JUMPDEST PUSH1 0x0 PUSH2 0x3FD DUP7 DUP7 DUP7 DUP7 DUP7 PUSH1 0x0 PUSH2 0x46A JUMP JUMPDEST SWAP1 POP SWAP6 SWAP5 POP POP POP POP POP JUMP JUMPDEST PUSH1 0x0 PUSH2 0x413 DUP3 PUSH2 0xAB2 JUMP JUMPDEST PUSH1 0x40 ADD MLOAD SWAP1 POP SWAP2 SWAP1 POP JUMP JUMPDEST PUSH1 0x0 PUSH2 0x42F DUP6 DUP6 DUP6 DUP6 PUSH1 0x0 DUP1 PUSH2 0x46A JUMP JUMPDEST SWAP1 POP SWAP5 SWAP4 POP POP POP POP JUMP JUMPDEST PUSH1 0x0 PUSH1 0x3C DUP3 PUSH2 0x448 SWAP2 SWAP1 PUSH2 0x12B0 JUMP JUMPDEST SWAP1 POP SWAP2 SWAP1 POP JUMP JUMPDEST PUSH1 0x0 PUSH2 0x461 DUP5 DUP5 DUP5 PUSH1 0x0 DUP1 PUSH1 0x0 PUSH2 0x46A JUMP JUMPDEST SWAP1 POP SWAP4 SWAP3 POP POP POP JUMP JUMPDEST PUSH1 0x0 DUP1 PUSH2 0x7B2 SWAP1 POP JUMPDEST DUP8 PUSH2 0xFFFF AND DUP2 PUSH2 0xFFFF AND LT ISZERO PUSH2 0x4CE JUMPI PUSH2 0x48C DUP2 PUSH2 0x902 JUMP JUMPDEST ISZERO PUSH2 0x4A8 JUMPI PUSH4 0x1E28500 DUP3 PUSH2 0x4A1 SWAP2 SWAP1 PUSH2 0x107C JUMP JUMPDEST SWAP2 POP PUSH2 0x4BB JUMP JUMPDEST PUSH4 0x1E13380 DUP3 PUSH2 0x4B8 SWAP2 SWAP1 PUSH2 0x107C JUMP JUMPDEST SWAP2 POP JUMPDEST DUP1 DUP1 PUSH2 0x4C6 SWAP1 PUSH2 0x122A JUMP JUMPDEST SWAP2 POP POP PUSH2 0x473 JUMP JUMPDEST PUSH2 0x4D6 PUSH2 0xCC3 JUMP JUMPDEST PUSH1 0x1F DUP2 PUSH1 0x0 PUSH1 0xC DUP2 LT PUSH2 0x4EC JUMPI PUSH2 0x4EB PUSH2 0x133F JUMP JUMPDEST JUMPDEST PUSH1 0x20 MUL ADD SWAP1 PUSH1 0xFF AND SWAP1 DUP2 PUSH1 0xFF AND DUP2 MSTORE POP POP PUSH2 0x506 DUP10 PUSH2 0x902 JUMP JUMPDEST ISZERO PUSH2 0x537 JUMPI PUSH1 0x1D DUP2 PUSH1 0x1 PUSH1 0xC DUP2 LT PUSH2 0x521 JUMPI PUSH2 0x520 PUSH2 0x133F JUMP JUMPDEST JUMPDEST PUSH1 0x20 MUL ADD SWAP1 PUSH1 0xFF AND SWAP1 DUP2 PUSH1 0xFF AND DUP2 MSTORE POP POP PUSH2 0x55F JUMP JUMPDEST PUSH1 0x1C DUP2 PUSH1 0x1 PUSH1 0xC DUP2 LT PUSH2 0x54D JUMPI PUSH2 0x54C PUSH2 0x133F JUMP JUMPDEST JUMPDEST PUSH1 0x20 MUL ADD SWAP1 PUSH1 0xFF AND SWAP1 DUP2 PUSH1 0xFF AND DUP2 MSTORE POP POP JUMPDEST PUSH1 0x1F DUP2 PUSH1 0x2 PUSH1 0xC DUP2 LT PUSH2 0x575 JUMPI PUSH2 0x574 PUSH2 0x133F JUMP JUMPDEST JUMPDEST PUSH1 0x20 MUL ADD SWAP1 PUSH1 0xFF AND SWAP1 DUP2 PUSH1 0xFF AND DUP2 MSTORE POP POP PUSH1 0x1E DUP2 PUSH1 0x3 PUSH1 0xC DUP2 LT PUSH2 0x59C JUMPI PUSH2 0x59B PUSH2 0x133F JUMP JUMPDEST JUMPDEST PUSH1 0x20 MUL ADD SWAP1 PUSH1 0xFF AND SWAP1 DUP2 PUSH1 0xFF AND DUP2 MSTORE POP POP PUSH1 0x1F DUP2 PUSH1 0x4 PUSH1 0xC DUP2 LT PUSH2 0x5C3 JUMPI PUSH2 0x5C2 PUSH2 0x133F JUMP JUMPDEST JUMPDEST PUSH1 0x20 MUL ADD SWAP1 PUSH1 0xFF AND SWAP1 DUP2 PUSH1 0xFF AND DUP2 MSTORE POP POP PUSH1 0x1E DUP2 PUSH1 0x5 PUSH1 0xC DUP2 LT PUSH2 0x5EA JUMPI PUSH2 0x5E9 PUSH2 0x133F JUMP JUMPDEST JUMPDEST PUSH1 0x20 MUL ADD SWAP1 PUSH1 0xFF AND SWAP1 DUP2 PUSH1 0xFF AND DUP2 MSTORE POP POP PUSH1 0x1F DUP2 PUSH1 0x6 PUSH1 0xC DUP2 LT PUSH2 0x611 JUMPI PUSH2 0x610 PUSH2 0x133F JUMP JUMPDEST JUMPDEST PUSH1 0x20 MUL ADD SWAP1 PUSH1 0xFF AND SWAP1 DUP2 PUSH1 0xFF AND DUP2 MSTORE POP POP PUSH1 0x1F DUP2 PUSH1 0x7 PUSH1 0xC DUP2 LT PUSH2 0x638 JUMPI PUSH2 0x637 PUSH2 0x133F JUMP JUMPDEST JUMPDEST PUSH1 0x20 MUL ADD SWAP1 PUSH1 0xFF AND SWAP1 DUP2 PUSH1 0xFF AND DUP2 MSTORE POP POP PUSH1 0x1E DUP2 PUSH1 0x8 PUSH1 0xC DUP2 LT PUSH2 0x65F JUMPI PUSH2 0x65E PUSH2 0x133F JUMP JUMPDEST JUMPDEST PUSH1 0x20 MUL ADD SWAP1 PUSH1 0xFF AND SWAP1 DUP2 PUSH1 0xFF AND DUP2 MSTORE POP POP PUSH1 0x1F DUP2 PUSH1 0x9 PUSH1 0xC DUP2 LT PUSH2 0x686 JUMPI PUSH2 0x685 PUSH2 0x133F JUMP JUMPDEST JUMPDEST PUSH1 0x20 MUL ADD SWAP1 PUSH1 0xFF AND SWAP1 DUP2 PUSH1 0xFF AND DUP2 MSTORE POP POP PUSH1 0x1E DUP2 PUSH1 0xA PUSH1 0xC DUP2 LT PUSH2 0x6AD JUMPI PUSH2 0x6AC PUSH2 0x133F JUMP JUMPDEST JUMPDEST PUSH1 0x20 MUL ADD SWAP1 PUSH1 0xFF AND SWAP1 DUP2 PUSH1 0xFF AND DUP2 MSTORE POP POP PUSH1 0x1F DUP2 PUSH1 0xB PUSH1 0xC DUP2 LT PUSH2 0x6D4 JUMPI PUSH2 0x6D3 PUSH2 0x133F JUMP JUMPDEST JUMPDEST PUSH1 0x20 MUL ADD SWAP1 PUSH1 0xFF AND SWAP1 DUP2 PUSH1 0xFF AND DUP2 MSTORE POP POP PUSH1 0x1 SWAP2 POP JUMPDEST DUP8 PUSH1 0xFF AND DUP3 PUSH2 0xFFFF AND LT ISZERO PUSH2 0x752 JUMPI DUP1 PUSH1 0x1 DUP4 PUSH2 0x707 SWAP2 SWAP1 PUSH2 0x115D JUMP JUMPDEST PUSH2 0xFFFF AND PUSH1 0xC DUP2 LT PUSH2 0x71C JUMPI PUSH2 0x71B PUSH2 0x133F JUMP JUMPDEST JUMPDEST PUSH1 0x20 MUL ADD MLOAD PUSH1 0xFF AND PUSH3 0x15180 PUSH2 0x732 SWAP2 SWAP1 PUSH2 0x1103 JUMP JUMPDEST DUP4 PUSH2 0x73D SWAP2 SWAP1 PUSH2 0x107C JUMP JUMPDEST SWAP3 POP DUP2 DUP1 PUSH2 0x74A SWAP1 PUSH2 0x122A JUMP JUMPDEST SWAP3 POP POP PUSH2 0x6EA JUMP JUMPDEST PUSH1 0x1 DUP8 PUSH2 0x75F SWAP2 SWAP1 PUSH2 0x11C5 JUMP JUMPDEST PUSH1 0xFF AND PUSH3 0x15180 PUSH2 0x770 SWAP2 SWAP1 PUSH2 0x1103 JUMP JUMPDEST DUP4 PUSH2 0x77B SWAP2 SWAP1 PUSH2 0x107C JUMP JUMPDEST SWAP3 POP DUP6 PUSH1 0xFF AND PUSH2 0xE10 PUSH2 0x78E SWAP2 SWAP1 PUSH2 0x1103 JUMP JUMPDEST DUP4 PUSH2 0x799 SWAP2 SWAP1 PUSH2 0x107C JUMP JUMPDEST SWAP3 POP DUP5 PUSH1 0xFF AND PUSH1 0x3C PUSH2 0x7AB SWAP2 SWAP1 PUSH2 0x1103 JUMP JUMPDEST DUP4 PUSH2 0x7B6 SWAP2 SWAP1 PUSH2 0x107C JUMP JUMPDEST SWAP3 POP DUP4 PUSH1 0xFF AND DUP4 PUSH2 0x7C7 SWAP2 SWAP1 PUSH2 0x107C JUMP JUMPDEST SWAP3 POP POP POP SWAP7 SWAP6 POP POP POP POP POP POP JUMP JUMPDEST PUSH1 0x0 DUP1 PUSH1 0x0 SWAP1 POP PUSH1 0x0 DUP1 PUSH4 0x1E13380 DUP6 PUSH2 0x7EF SWAP2 SWAP1 PUSH2 0x10D2 JUMP JUMPDEST PUSH2 0x7B2 PUSH2 0xFFFF AND PUSH2 0x800 SWAP2 SWAP1 PUSH2 0x107C JUMP JUMPDEST SWAP2 POP PUSH2 0x811 PUSH2 0x7B2 PUSH2 0xFFFF AND PUSH2 0x971 JUMP JUMPDEST PUSH2 0x81E DUP4 PUSH2 0xFFFF AND PUSH2 0x971 JUMP JUMPDEST PUSH2 0x828 SWAP2 SWAP1 PUSH2 0x1191 JUMP JUMPDEST SWAP1 POP DUP1 PUSH4 0x1E28500 PUSH2 0x83A SWAP2 SWAP1 PUSH2 0x1103 JUMP JUMPDEST DUP4 PUSH2 0x845 SWAP2 SWAP1 PUSH2 0x107C JUMP JUMPDEST SWAP3 POP DUP1 PUSH2 0x7B2 DUP4 PUSH2 0x856 SWAP2 SWAP1 PUSH2 0x115D JUMP JUMPDEST PUSH2 0xFFFF AND PUSH2 0x864 SWAP2 SWAP1 PUSH2 0x1191 JUMP JUMPDEST PUSH4 0x1E13380 PUSH2 0x873 SWAP2 SWAP1 PUSH2 0x1103 JUMP JUMPDEST DUP4 PUSH2 0x87E SWAP2 SWAP1 PUSH2 0x107C JUMP JUMPDEST SWAP3 POP JUMPDEST DUP5 DUP4 GT ISZERO PUSH2 0x8E1 JUMPI PUSH2 0x89E PUSH1 0x1 DUP4 PUSH2 0x899 SWAP2 SWAP1 PUSH2 0x115D JUMP JUMPDEST PUSH2 0x902 JUMP JUMPDEST ISZERO PUSH2 0x8BA JUMPI PUSH4 0x1E28500 DUP4 PUSH2 0x8B3 SWAP2 SWAP1 PUSH2 0x1191 JUMP JUMPDEST SWAP3 POP PUSH2 0x8CD JUMP JUMPDEST PUSH4 0x1E13380 DUP4 PUSH2 0x8CA SWAP2 SWAP1 PUSH2 0x1191 JUMP JUMPDEST SWAP3 POP JUMPDEST PUSH1 0x1 DUP3 PUSH2 0x8DA SWAP2 SWAP1 PUSH2 0x115D JUMP JUMPDEST SWAP2 POP PUSH2 0x881 JUMP JUMPDEST DUP2 SWAP4 POP POP POP POP SWAP2 SWAP1 POP JUMP JUMPDEST PUSH1 0x0 PUSH2 0x8F7 DUP3 PUSH2 0xAB2 JUMP JUMPDEST PUSH1 0x20 ADD MLOAD SWAP1 POP SWAP2 SWAP1 POP JUMP JUMPDEST PUSH1 0x0 DUP1 PUSH1 0x4 DUP4 PUSH2 0x912 SWAP2 SWAP1 PUSH2 0x127F JUMP JUMPDEST PUSH2 0xFFFF AND EQ PUSH2 0x924 JUMPI PUSH1 0x0 SWAP1 POP PUSH2 0x96C JUMP JUMPDEST PUSH1 0x0 PUSH1 0x64 DUP4 PUSH2 0x933 SWAP2 SWAP1 PUSH2 0x127F JUMP JUMPDEST PUSH2 0xFFFF AND EQ PUSH2 0x945 JUMPI PUSH1 0x1 SWAP1 POP PUSH2 0x96C JUMP JUMPDEST PUSH1 0x0 PUSH2 0x190 DUP4 PUSH2 0x955 SWAP2 SWAP1 PUSH2 0x127F JUMP JUMPDEST PUSH2 0xFFFF AND EQ PUSH2 0x967 JUMPI PUSH1 0x0 SWAP1 POP PUSH2 0x96C JUMP JUMPDEST PUSH1 0x1 SWAP1 POP JUMPDEST SWAP2 SWAP1 POP JUMP JUMPDEST PUSH1 0x0 PUSH1 0x1 DUP3 PUSH2 0x980 SWAP2 SWAP1 PUSH2 0x1191 JUMP JUMPDEST SWAP2 POP PUSH2 0x190 DUP3 PUSH2 0x990 SWAP2 SWAP1 PUSH2 0x10D2 JUMP JUMPDEST PUSH1 0x64 DUP4 PUSH2 0x99D SWAP2 SWAP1 PUSH2 0x10D2 JUMP JUMPDEST PUSH1 0x4 DUP5 PUSH2 0x9AA SWAP2 SWAP1 PUSH2 0x10D2 JUMP JUMPDEST PUSH2 0x9B4 SWAP2 SWAP1 PUSH2 0x1191 JUMP JUMPDEST PUSH2 0x9BE SWAP2 SWAP1 PUSH2 0x107C JUMP JUMPDEST SWAP1 POP SWAP2 SWAP1 POP JUMP JUMPDEST PUSH1 0x0 PUSH1 0x1 DUP4 PUSH1 0xFF AND EQ DUP1 PUSH2 0x9DC JUMPI POP PUSH1 0x3 DUP4 PUSH1 0xFF AND EQ JUMPDEST DUP1 PUSH2 0x9EA JUMPI POP PUSH1 0x5 DUP4 PUSH1 0xFF AND EQ JUMPDEST DUP1 PUSH2 0x9F8 JUMPI POP PUSH1 0x7 DUP4 PUSH1 0xFF AND EQ JUMPDEST DUP1 PUSH2 0xA06 JUMPI POP PUSH1 0x8 DUP4 PUSH1 0xFF AND EQ JUMPDEST DUP1 PUSH2 0xA14 JUMPI POP PUSH1 0xA DUP4 PUSH1 0xFF AND EQ JUMPDEST DUP1 PUSH2 0xA22 JUMPI POP PUSH1 0xC DUP4 PUSH1 0xFF AND EQ JUMPDEST ISZERO PUSH2 0xA30 JUMPI PUSH1 0x1F SWAP1 POP PUSH2 0xA8B JUMP JUMPDEST PUSH1 0x4 DUP4 PUSH1 0xFF AND EQ DUP1 PUSH2 0xA45 JUMPI POP PUSH1 0x6 DUP4 PUSH1 0xFF AND EQ JUMPDEST DUP1 PUSH2 0xA53 JUMPI POP PUSH1 0x9 DUP4 PUSH1 0xFF AND EQ JUMPDEST DUP1 PUSH2 0xA61 JUMPI POP PUSH1 0xB DUP4 PUSH1 0xFF AND EQ JUMPDEST ISZERO PUSH2 0xA6F JUMPI PUSH1 0x1E SWAP1 POP PUSH2 0xA8B JUMP JUMPDEST PUSH2 0xA78 DUP3 PUSH2 0x902 JUMP JUMPDEST ISZERO PUSH2 0xA86 JUMPI PUSH1 0x1D SWAP1 POP PUSH2 0xA8B JUMP JUMPDEST PUSH1 0x1C SWAP1 POP JUMPDEST SWAP3 SWAP2 POP POP JUMP JUMPDEST PUSH1 0x0 PUSH1 0x3C DUP1 DUP4 PUSH2 0xAA1 SWAP2 SWAP1 PUSH2 0x10D2 JUMP JUMPDEST PUSH2 0xAAB SWAP2 SWAP1 PUSH2 0x12B0 JUMP JUMPDEST SWAP1 POP SWAP2 SWAP1 POP JUMP JUMPDEST PUSH2 0xABA PUSH2 0xCE6 JUMP JUMPDEST PUSH1 0x0 DUP1 DUP1 PUSH2 0xAC7 DUP6 PUSH2 0x7D5 JUMP JUMPDEST DUP5 PUSH1 0x0 ADD SWAP1 PUSH2 0xFFFF AND SWAP1 DUP2 PUSH2 0xFFFF AND DUP2 MSTORE POP POP PUSH2 0xAE9 PUSH2 0x7B2 PUSH2 0xFFFF AND PUSH2 0x971 JUMP JUMPDEST PUSH2 0xAFA DUP6 PUSH1 0x0 ADD MLOAD PUSH2 0xFFFF AND PUSH2 0x971 JUMP JUMPDEST PUSH2 0xB04 SWAP2 SWAP1 PUSH2 0x1191 JUMP JUMPDEST SWAP2 POP DUP2 PUSH4 0x1E28500 PUSH2 0xB16 SWAP2 SWAP1 PUSH2 0x1103 JUMP JUMPDEST DUP4 PUSH2 0xB21 SWAP2 SWAP1 PUSH2 0x107C JUMP JUMPDEST SWAP3 POP DUP2 PUSH2 0x7B2 DUP6 PUSH1 0x0 ADD MLOAD PUSH2 0xB36 SWAP2 SWAP1 PUSH2 0x115D JUMP JUMPDEST PUSH2 0xFFFF AND PUSH2 0xB44 SWAP2 SWAP1 PUSH2 0x1191 JUMP JUMPDEST PUSH4 0x1E13380 PUSH2 0xB53 SWAP2 SWAP1 PUSH2 0x1103 JUMP JUMPDEST DUP4 PUSH2 0xB5E SWAP2 SWAP1 PUSH2 0x107C JUMP JUMPDEST SWAP3 POP PUSH1 0x0 PUSH1 0x1 SWAP2 POP JUMPDEST PUSH1 0xC DUP3 PUSH1 0xFF AND GT PUSH2 0xBDE JUMPI PUSH2 0xB80 DUP3 DUP7 PUSH1 0x0 ADD MLOAD PUSH2 0x9C5 JUMP JUMPDEST PUSH1 0xFF AND PUSH3 0x15180 PUSH2 0xB91 SWAP2 SWAP1 PUSH2 0x1103 JUMP JUMPDEST SWAP1 POP DUP6 DUP5 DUP3 PUSH2 0xBA0 SWAP2 SWAP1 PUSH2 0x107C JUMP JUMPDEST GT ISZERO PUSH2 0xBBD JUMPI DUP2 DUP6 PUSH1 0x20 ADD SWAP1 PUSH1 0xFF AND SWAP1 DUP2 PUSH1 0xFF AND DUP2 MSTORE POP POP PUSH2 0xBDE JUMP JUMPDEST DUP1 DUP5 PUSH2 0xBC9 SWAP2 SWAP1 PUSH2 0x107C JUMP JUMPDEST SWAP4 POP DUP2 DUP1 PUSH2 0xBD6 SWAP1 PUSH2 0x1255 JUMP JUMPDEST SWAP3 POP POP PUSH2 0xB67 JUMP JUMPDEST PUSH1 0x1 SWAP2 POP JUMPDEST PUSH2 0xBF5 DUP6 PUSH1 0x20 ADD MLOAD DUP7 PUSH1 0x0 ADD MLOAD PUSH2 0x9C5 JUMP JUMPDEST PUSH1 0xFF AND DUP3 PUSH1 0xFF AND GT PUSH2 0xC52 JUMPI DUP6 DUP5 PUSH3 0x15180 PUSH2 0xC11 SWAP2 SWAP1 PUSH2 0x107C JUMP JUMPDEST GT ISZERO PUSH2 0xC2E JUMPI DUP2 DUP6 PUSH1 0x40 ADD SWAP1 PUSH1 0xFF AND SWAP1 DUP2 PUSH1 0xFF AND DUP2 MSTORE POP POP PUSH2 0xC52 JUMP JUMPDEST PUSH3 0x15180 DUP5 PUSH2 0xC3D SWAP2 SWAP1 PUSH2 0x107C JUMP JUMPDEST SWAP4 POP DUP2 DUP1 PUSH2 0xC4A SWAP1 PUSH2 0x1255 JUMP JUMPDEST SWAP3 POP POP PUSH2 0xBE3 JUMP JUMPDEST PUSH2 0xC5B DUP7 PUSH2 0x38F JUMP JUMPDEST DUP6 PUSH1 0x60 ADD SWAP1 PUSH1 0xFF AND SWAP1 DUP2 PUSH1 0xFF AND DUP2 MSTORE POP POP PUSH2 0xC75 DUP7 PUSH2 0xA91 JUMP JUMPDEST DUP6 PUSH1 0x80 ADD SWAP1 PUSH1 0xFF AND SWAP1 DUP2 PUSH1 0xFF AND DUP2 MSTORE POP POP PUSH2 0xC8F DUP7 PUSH2 0x439 JUMP JUMPDEST DUP6 PUSH1 0xA0 ADD SWAP1 PUSH1 0xFF AND SWAP1 DUP2 PUSH1 0xFF AND DUP2 MSTORE POP POP PUSH2 0xCA9 DUP7 PUSH2 0x3BC JUMP JUMPDEST DUP6 PUSH1 0xC0 ADD SWAP1 PUSH1 0xFF AND SWAP1 DUP2 PUSH1 0xFF AND DUP2 MSTORE POP POP POP POP POP POP SWAP2 SWAP1 POP JUMP JUMPDEST PUSH1 0x40 MLOAD DUP1 PUSH2 0x180 ADD PUSH1 0x40 MSTORE DUP1 PUSH1 0xC SWAP1 PUSH1 0x20 DUP3 MUL DUP1 CALLDATASIZE DUP4 CALLDATACOPY DUP1 DUP3 ADD SWAP2 POP POP SWAP1 POP POP SWAP1 JUMP JUMPDEST PUSH1 0x40 MLOAD DUP1 PUSH1 0xE0 ADD PUSH1 0x40 MSTORE DUP1 PUSH1 0x0 PUSH2 0xFFFF AND DUP2 MSTORE PUSH1 0x20 ADD PUSH1 0x0 PUSH1 0xFF AND DUP2 MSTORE PUSH1 0x20 ADD PUSH1 0x0 PUSH1 0xFF AND DUP2 MSTORE PUSH1 0x20 ADD PUSH1 0x0 PUSH1 0xFF AND DUP2 MSTORE PUSH1 0x20 ADD PUSH1 0x0 PUSH1 0xFF AND DUP2 MSTORE PUSH1 0x20 ADD PUSH1 0x0 PUSH1 0xFF AND DUP2 MSTORE PUSH1 0x20 ADD PUSH1 0x0 PUSH1 0xFF AND DUP2 MSTORE POP SWAP1 JUMP JUMPDEST PUSH1 0x0 DUP2 CALLDATALOAD SWAP1 POP PUSH2 0xD48 DUP2 PUSH2 0x1373 JUMP JUMPDEST SWAP3 SWAP2 POP POP JUMP JUMPDEST PUSH1 0x0 DUP2 CALLDATALOAD SWAP1 POP PUSH2 0xD5D DUP2 PUSH2 0x138A JUMP JUMPDEST SWAP3 SWAP2 POP POP JUMP JUMPDEST PUSH1 0x0 DUP2 CALLDATALOAD SWAP1 POP PUSH2 0xD72 DUP2 PUSH2 0x13A1 JUMP JUMPDEST SWAP3 SWAP2 POP POP JUMP JUMPDEST PUSH1 0x0 PUSH1 0x20 DUP3 DUP5 SUB SLT ISZERO PUSH2 0xD8E JUMPI PUSH2 0xD8D PUSH2 0x136E JUMP JUMPDEST JUMPDEST PUSH1 0x0 PUSH2 0xD9C DUP5 DUP3 DUP6 ADD PUSH2 0xD39 JUMP JUMPDEST SWAP2 POP POP SWAP3 SWAP2 POP POP JUMP JUMPDEST PUSH1 0x0 DUP1 PUSH1 0x0 PUSH1 0x60 DUP5 DUP7 SUB SLT ISZERO PUSH2 0xDBE JUMPI PUSH2 0xDBD PUSH2 0x136E JUMP JUMPDEST JUMPDEST PUSH1 0x0 PUSH2 0xDCC DUP7 DUP3 DUP8 ADD PUSH2 0xD39 JUMP JUMPDEST SWAP4 POP POP PUSH1 0x20 PUSH2 0xDDD DUP7 DUP3 DUP8 ADD PUSH2 0xD63 JUMP JUMPDEST SWAP3 POP POP PUSH1 0x40 PUSH2 0xDEE DUP7 DUP3 DUP8 ADD PUSH2 0xD63 JUMP JUMPDEST SWAP2 POP POP SWAP3 POP SWAP3 POP SWAP3 JUMP JUMPDEST PUSH1 0x0 DUP1 PUSH1 0x0 DUP1 PUSH1 0x80 DUP6 DUP8 SUB SLT ISZERO PUSH2 0xE12 JUMPI PUSH2 0xE11 PUSH2 0x136E JUMP JUMPDEST JUMPDEST PUSH1 0x0 PUSH2 0xE20 DUP8 DUP3 DUP9 ADD PUSH2 0xD39 JUMP JUMPDEST SWAP5 POP POP PUSH1 0x20 PUSH2 0xE31 DUP8 DUP3 DUP9 ADD PUSH2 0xD63 JUMP JUMPDEST SWAP4 POP POP PUSH1 0x40 PUSH2 0xE42 DUP8 DUP3 DUP9 ADD PUSH2 0xD63 JUMP JUMPDEST SWAP3 POP POP PUSH1 0x60 PUSH2 0xE53 DUP8 DUP3 DUP9 ADD PUSH2 0xD63 JUMP JUMPDEST SWAP2 POP POP SWAP3 SWAP6 SWAP2 SWAP5 POP SWAP3 POP JUMP JUMPDEST PUSH1 0x0 DUP1 PUSH1 0x0 DUP1 PUSH1 0x0 PUSH1 0xA0 DUP7 DUP9 SUB SLT ISZERO PUSH2 0xE7B JUMPI PUSH2 0xE7A PUSH2 0x136E JUMP JUMPDEST JUMPDEST PUSH1 0x0 PUSH2 0xE89 DUP9 DUP3 DUP10 ADD PUSH2 0xD39 JUMP JUMPDEST SWAP6 POP POP PUSH1 0x20 PUSH2 0xE9A DUP9 DUP3 DUP10 ADD PUSH2 0xD63 JUMP JUMPDEST SWAP5 POP POP PUSH1 0x40 PUSH2 0xEAB DUP9 DUP3 DUP10 ADD PUSH2 0xD63 JUMP JUMPDEST SWAP4 POP POP PUSH1 0x60 PUSH2 0xEBC DUP9 DUP3 DUP10 ADD PUSH2 0xD63 JUMP JUMPDEST SWAP3 POP POP PUSH1 0x80 PUSH2 0xECD DUP9 DUP3 DUP10 ADD PUSH2 0xD63 JUMP JUMPDEST SWAP2 POP POP SWAP3 SWAP6 POP SWAP3 SWAP6 SWAP1 SWAP4 POP JUMP JUMPDEST PUSH1 0x0 DUP1 PUSH1 0x0 DUP1 PUSH1 0x0 DUP1 PUSH1 0xC0 DUP8 DUP10 SUB SLT ISZERO PUSH2 0xEF7 JUMPI PUSH2 0xEF6 PUSH2 0x136E JUMP JUMPDEST JUMPDEST PUSH1 0x0 PUSH2 0xF05 DUP10 DUP3 DUP11 ADD PUSH2 0xD39 JUMP JUMPDEST SWAP7 POP POP PUSH1 0x20 PUSH2 0xF16 DUP10 DUP3 DUP11 ADD PUSH2 0xD63 JUMP JUMPDEST SWAP6 POP POP PUSH1 0x40 PUSH2 0xF27 DUP10 DUP3 DUP11 ADD PUSH2 0xD63 JUMP JUMPDEST SWAP5 POP POP PUSH1 0x60 PUSH2 0xF38 DUP10 DUP3 DUP11 ADD PUSH2 0xD63 JUMP JUMPDEST SWAP4 POP POP PUSH1 0x80 PUSH2 0xF49 DUP10 DUP3 DUP11 ADD PUSH2 0xD63 JUMP JUMPDEST SWAP3 POP POP PUSH1 0xA0 PUSH2 0xF5A DUP10 DUP3 DUP11 ADD PUSH2 0xD63 JUMP JUMPDEST SWAP2 POP POP SWAP3 SWAP6 POP SWAP3 SWAP6 POP SWAP3 SWAP6 JUMP JUMPDEST PUSH1 0x0 PUSH1 0x20 DUP3 DUP5 SUB SLT ISZERO PUSH2 0xF7D JUMPI PUSH2 0xF7C PUSH2 0x136E JUMP JUMPDEST JUMPDEST PUSH1 0x0 PUSH2 0xF8B DUP5 DUP3 DUP6 ADD PUSH2 0xD4E JUMP JUMPDEST SWAP2 POP POP SWAP3 SWAP2 POP POP JUMP JUMPDEST PUSH1 0x0 DUP1 PUSH1 0x40 DUP4 DUP6 SUB SLT ISZERO PUSH2 0xFAB JUMPI PUSH2 0xFAA PUSH2 0x136E JUMP JUMPDEST JUMPDEST PUSH1 0x0 PUSH2 0xFB9 DUP6 DUP3 DUP7 ADD PUSH2 0xD63 JUMP JUMPDEST SWAP3 POP POP PUSH1 0x20 PUSH2 0xFCA DUP6 DUP3 DUP7 ADD PUSH2 0xD39 JUMP JUMPDEST SWAP2 POP POP SWAP3 POP SWAP3 SWAP1 POP JUMP JUMPDEST PUSH2 0xFDD DUP2 PUSH2 0x11F9 JUMP JUMPDEST DUP3 MSTORE POP POP JUMP JUMPDEST PUSH2 0xFEC DUP2 PUSH2 0x1205 JUMP JUMPDEST DUP3 MSTORE POP POP JUMP JUMPDEST PUSH2 0xFFB DUP2 PUSH2 0x1213 JUMP JUMPDEST DUP3 MSTORE POP POP JUMP JUMPDEST PUSH2 0x100A DUP2 PUSH2 0x121D JUMP JUMPDEST DUP3 MSTORE POP POP JUMP JUMPDEST PUSH1 0x0 PUSH1 0x20 DUP3 ADD SWAP1 POP PUSH2 0x1025 PUSH1 0x0 DUP4 ADD DUP5 PUSH2 0xFD4 JUMP JUMPDEST SWAP3 SWAP2 POP POP JUMP JUMPDEST PUSH1 0x0 PUSH1 0x20 DUP3 ADD SWAP1 POP PUSH2 0x1040 PUSH1 0x0 DUP4 ADD DUP5 PUSH2 0xFE3 JUMP JUMPDEST SWAP3 SWAP2 POP POP JUMP JUMPDEST PUSH1 0x0 PUSH1 0x20 DUP3 ADD SWAP1 POP PUSH2 0x105B PUSH1 0x0 DUP4 ADD DUP5 PUSH2 0xFF2 JUMP JUMPDEST SWAP3 SWAP2 POP POP JUMP JUMPDEST PUSH1 0x0 PUSH1 0x20 DUP3 ADD SWAP1 POP PUSH2 0x1076 PUSH1 0x0 DUP4 ADD DUP5 PUSH2 0x1001 JUMP JUMPDEST SWAP3 SWAP2 POP POP JUMP JUMPDEST PUSH1 0x0 PUSH2 0x1087 DUP3 PUSH2 0x1213 JUMP JUMPDEST SWAP2 POP PUSH2 0x1092 DUP4 PUSH2 0x1213 JUMP JUMPDEST SWAP3 POP DUP3 PUSH32 0xFFFFFFFFFFFFFFFFFFFFFFFFFFFFFFFFFFFFFFFFFFFFFFFFFFFFFFFFFFFFFFFF SUB DUP3 GT ISZERO PUSH2 0x10C7 JUMPI PUSH2 0x10C6 PUSH2 0x12E1 JUMP JUMPDEST JUMPDEST DUP3 DUP3 ADD SWAP1 POP SWAP3 SWAP2 POP POP JUMP JUMPDEST PUSH1 0x0 PUSH2 0x10DD DUP3 PUSH2 0x1213 JUMP JUMPDEST SWAP2 POP PUSH2 0x10E8 DUP4 PUSH2 0x1213 JUMP JUMPDEST SWAP3 POP DUP3 PUSH2 0x10F8 JUMPI PUSH2 0x10F7 PUSH2 0x1310 JUMP JUMPDEST JUMPDEST DUP3 DUP3 DIV SWAP1 POP SWAP3 SWAP2 POP POP JUMP JUMPDEST PUSH1 0x0 PUSH2 0x110E DUP3 PUSH2 0x1213 JUMP JUMPDEST SWAP2 POP PUSH2 0x1119 DUP4 PUSH2 0x1213 JUMP JUMPDEST SWAP3 POP DUP2 PUSH32 0xFFFFFFFFFFFFFFFFFFFFFFFFFFFFFFFFFFFFFFFFFFFFFFFFFFFFFFFFFFFFFFFF DIV DUP4 GT DUP3 ISZERO ISZERO AND ISZERO PUSH2 0x1152 JUMPI PUSH2 0x1151 PUSH2 0x12E1 JUMP JUMPDEST JUMPDEST DUP3 DUP3 MUL SWAP1 POP SWAP3 SWAP2 POP POP JUMP JUMPDEST PUSH1 0x0 PUSH2 0x1168 DUP3 PUSH2 0x1205 JUMP JUMPDEST SWAP2 POP PUSH2 0x1173 DUP4 PUSH2 0x1205 JUMP JUMPDEST SWAP3 POP DUP3 DUP3 LT ISZERO PUSH2 0x1186 JUMPI PUSH2 0x1185 PUSH2 0x12E1 JUMP JUMPDEST JUMPDEST DUP3 DUP3 SUB SWAP1 POP SWAP3 SWAP2 POP POP JUMP JUMPDEST PUSH1 0x0 PUSH2 0x119C DUP3 PUSH2 0x1213 JUMP JUMPDEST SWAP2 POP PUSH2 0x11A7 DUP4 PUSH2 0x1213 JUMP JUMPDEST SWAP3 POP DUP3 DUP3 LT ISZERO PUSH2 0x11BA JUMPI PUSH2 0x11B9 PUSH2 0x12E1 JUMP JUMPDEST JUMPDEST DUP3 DUP3 SUB SWAP1 POP SWAP3 SWAP2 POP POP JUMP JUMPDEST PUSH1 0x0 PUSH2 0x11D0 DUP3 PUSH2 0x121D JUMP JUMPDEST SWAP2 POP PUSH2 0x11DB DUP4 PUSH2 0x121D JUMP JUMPDEST SWAP3 POP DUP3 DUP3 LT ISZERO PUSH2 0x11EE JUMPI PUSH2 0x11ED PUSH2 0x12E1 JUMP JUMPDEST JUMPDEST DUP3 DUP3 SUB SWAP1 POP SWAP3 SWAP2 POP POP JUMP JUMPDEST PUSH1 0x0 DUP2 ISZERO ISZERO SWAP1 POP SWAP2 SWAP1 POP JUMP JUMPDEST PUSH1 0x0 PUSH2 0xFFFF DUP3 AND SWAP1 POP SWAP2 SWAP1 POP JUMP JUMPDEST PUSH1 0x0 DUP2 SWAP1 POP SWAP2 SWAP1 POP JUMP JUMPDEST PUSH1 0x0 PUSH1 0xFF DUP3 AND SWAP1 POP SWAP2 SWAP1 POP JUMP JUMPDEST PUSH1 0x0 PUSH2 0x1235 DUP3 PUSH2 0x1205 JUMP JUMPDEST SWAP2 POP PUSH2 0xFFFF DUP3 EQ ISZERO PUSH2 0x124A JUMPI PUSH2 0x1249 PUSH2 0x12E1 JUMP JUMPDEST JUMPDEST PUSH1 0x1 DUP3 ADD SWAP1 POP SWAP2 SWAP1 POP JUMP JUMPDEST PUSH1 0x0 PUSH2 0x1260 DUP3 PUSH2 0x121D JUMP JUMPDEST SWAP2 POP PUSH1 0xFF DUP3 EQ ISZERO PUSH2 0x1274 JUMPI PUSH2 0x1273 PUSH2 0x12E1 JUMP JUMPDEST JUMPDEST PUSH1 0x1 DUP3 ADD SWAP1 POP SWAP2 SWAP1 POP JUMP JUMPDEST PUSH1 0x0 PUSH2 0x128A DUP3 PUSH2 0x1205 JUMP JUMPDEST SWAP2 POP PUSH2 0x1295 DUP4 PUSH2 0x1205 JUMP JUMPDEST SWAP3 POP DUP3 PUSH2 0x12A5 JUMPI PUSH2 0x12A4 PUSH2 0x1310 JUMP JUMPDEST JUMPDEST DUP3 DUP3 MOD SWAP1 POP SWAP3 SWAP2 POP POP JUMP JUMPDEST PUSH1 0x0 PUSH2 0x12BB DUP3 PUSH2 0x1213 JUMP JUMPDEST SWAP2 POP PUSH2 0x12C6 DUP4 PUSH2 0x1213 JUMP JUMPDEST SWAP3 POP DUP3 PUSH2 0x12D6 JUMPI PUSH2 0x12D5 PUSH2 0x1310 JUMP JUMPDEST JUMPDEST DUP3 DUP3 MOD SWAP1 POP SWAP3 SWAP2 POP POP JUMP JUMPDEST PUSH32 0x4E487B7100000000000000000000000000000000000000000000000000000000 PUSH1 0x0 MSTORE PUSH1 0x11 PUSH1 0x4 MSTORE PUSH1 0x24 PUSH1 0x0 REVERT JUMPDEST PUSH32 0x4E487B7100000000000000000000000000000000000000000000000000000000 PUSH1 0x0 MSTORE PUSH1 0x12 PUSH1 0x4 MSTORE PUSH1 0x24 PUSH1 0x0 REVERT JUMPDEST PUSH32 0x4E487B7100000000000000000000000000000000000000000000000000000000 PUSH1 0x0 MSTORE PUSH1 0x32 PUSH1 0x4 MSTORE PUSH1 0x24 PUSH1 0x0 REVERT JUMPDEST PUSH1 0x0 DUP1 REVERT JUMPDEST PUSH2 0x137C DUP2 PUSH2 0x1205 JUMP JUMPDEST DUP2 EQ PUSH2 0x1387 JUMPI PUSH1 0x0 DUP1 REVERT JUMPDEST POP JUMP JUMPDEST PUSH2 0x1393 DUP2 PUSH2 0x1213 JUMP JUMPDEST DUP2 EQ PUSH2 0x139E JUMPI PUSH1 0x0 DUP1 REVERT JUMPDEST POP JUMP JUMPDEST PUSH2 0x13AA DUP2 PUSH2 0x121D JUMP JUMPDEST DUP2 EQ PUSH2 0x13B5 JUMPI PUSH1 0x0 DUP1 REVERT JUMPDEST POP JUMP INVALID LOG2 PUSH5 0x6970667358 0x22 SLT KECCAK256 0xA8 0xD8 CHAINID 0xDA DELEGATECALL PUSH2 0xF4B SWAP8 SWAP6 0xC7 GT 0xA9 SWAP14 0xD0 0x4B CALLER PUSH27 0x3DD72212BE071CB68E5270ECEC2464736F6C634300080700330000 "
		},
		"gasEstimates": {
			"creation": {
				"codeDepositCost": "1020400",
				"executionCost": "1061",
				"totalCost": "1021461"
			},
			"external": {
				"getDay(uint256)": "infinite",
				"getDaysInMonth(uint8,uint16)": "infinite",
				"getHour(uint256)": "infinite",
				"getMinute(uint256)": "infinite",
				"getMonth(uint256)": "infinite",
				"getSecond(uint256)": "infinite",
				"getWeekday(uint256)": "infinite",
				"getYear(uint256)": "infinite",
				"isLeapYear(uint16)": "infinite",
				"leapYearsBefore(uint256)": "infinite",
				"toTimestamp(uint16,uint8,uint8)": "infinite",
				"toTimestamp(uint16,uint8,uint8,uint8)": "infinite",
				"toTimestamp(uint16,uint8,uint8,uint8,uint8)": "infinite",
				"toTimestamp(uint16,uint8,uint8,uint8,uint8,uint8)": "infinite"
			},
			"internal": {
				"parseTimestamp(uint256)": "infinite"
			}
		},
		"methodIdentifiers": {
			"getDay(uint256)": "65c72840",
			"getDaysInMonth(uint8,uint16)": "b238ad0e",
			"getHour(uint256)": "3e239e1a",
			"getMinute(uint256)": "fa93f883",
			"getMonth(uint256)": "a324ad24",
			"getSecond(uint256)": "8aa001fc",
			"getWeekday(uint256)": "4ac1ad78",
			"getYear(uint256)": "92d66313",
			"isLeapYear(uint16)": "a6f0e577",
			"leapYearsBefore(uint256)": "b1999937",
			"toTimestamp(uint16,uint8,uint8)": "8c8d98a0",
			"toTimestamp(uint16,uint8,uint8,uint8)": "7f791833",
			"toTimestamp(uint16,uint8,uint8,uint8,uint8)": "62ba9687",
			"toTimestamp(uint16,uint8,uint8,uint8,uint8,uint8)": "9054bdec"
		}
	},
	"abi": [
		{
			"inputs": [
				{
					"internalType": "uint256",
					"name": "timestamp",
					"type": "uint256"
				}
			],
			"name": "getDay",
			"outputs": [
				{
					"internalType": "uint8",
					"name": "",
					"type": "uint8"
				}
			],
			"stateMutability": "pure",
			"type": "function"
		},
		{
			"inputs": [
				{
					"internalType": "uint8",
					"name": "month",
					"type": "uint8"
				},
				{
					"internalType": "uint16",
					"name": "year",
					"type": "uint16"
				}
			],
			"name": "getDaysInMonth",
			"outputs": [
				{
					"internalType": "uint8",
					"name": "",
					"type": "uint8"
				}
			],
			"stateMutability": "pure",
			"type": "function"
		},
		{
			"inputs": [
				{
					"internalType": "uint256",
					"name": "timestamp",
					"type": "uint256"
				}
			],
			"name": "getHour",
			"outputs": [
				{
					"internalType": "uint8",
					"name": "",
					"type": "uint8"
				}
			],
			"stateMutability": "pure",
			"type": "function"
		},
		{
			"inputs": [
				{
					"internalType": "uint256",
					"name": "timestamp",
					"type": "uint256"
				}
			],
			"name": "getMinute",
			"outputs": [
				{
					"internalType": "uint8",
					"name": "",
					"type": "uint8"
				}
			],
			"stateMutability": "pure",
			"type": "function"
		},
		{
			"inputs": [
				{
					"internalType": "uint256",
					"name": "timestamp",
					"type": "uint256"
				}
			],
			"name": "getMonth",
			"outputs": [
				{
					"internalType": "uint8",
					"name": "",
					"type": "uint8"
				}
			],
			"stateMutability": "pure",
			"type": "function"
		},
		{
			"inputs": [
				{
					"internalType": "uint256",
					"name": "timestamp",
					"type": "uint256"
				}
			],
			"name": "getSecond",
			"outputs": [
				{
					"internalType": "uint8",
					"name": "",
					"type": "uint8"
				}
			],
			"stateMutability": "pure",
			"type": "function"
		},
		{
			"inputs": [
				{
					"internalType": "uint256",
					"name": "timestamp",
					"type": "uint256"
				}
			],
			"name": "getWeekday",
			"outputs": [
				{
					"internalType": "uint8",
					"name": "",
					"type": "uint8"
				}
			],
			"stateMutability": "pure",
			"type": "function"
		},
		{
			"inputs": [
				{
					"internalType": "uint256",
					"name": "timestamp",
					"type": "uint256"
				}
			],
			"name": "getYear",
			"outputs": [
				{
					"internalType": "uint16",
					"name": "",
					"type": "uint16"
				}
			],
			"stateMutability": "pure",
			"type": "function"
		},
		{
			"inputs": [
				{
					"internalType": "uint16",
					"name": "year",
					"type": "uint16"
				}
			],
			"name": "isLeapYear",
			"outputs": [
				{
					"internalType": "bool",
					"name": "",
					"type": "bool"
				}
			],
			"stateMutability": "pure",
			"type": "function"
		},
		{
			"inputs": [
				{
					"internalType": "uint256",
					"name": "year",
					"type": "uint256"
				}
			],
			"name": "leapYearsBefore",
			"outputs": [
				{
					"internalType": "uint256",
					"name": "",
					"type": "uint256"
				}
			],
			"stateMutability": "pure",
			"type": "function"
		},
		{
			"inputs": [
				{
					"internalType": "uint16",
					"name": "year",
					"type": "uint16"
				},
				{
					"internalType": "uint8",
					"name": "month",
					"type": "uint8"
				},
				{
					"internalType": "uint8",
					"name": "day",
					"type": "uint8"
				},
				{
					"internalType": "uint8",
					"name": "hour",
					"type": "uint8"
				},
				{
					"internalType": "uint8",
					"name": "minute",
					"type": "uint8"
				}
			],
			"name": "toTimestamp",
			"outputs": [
				{
					"internalType": "uint256",
					"name": "timestamp",
					"type": "uint256"
				}
			],
			"stateMutability": "pure",
			"type": "function"
		},
		{
			"inputs": [
				{
					"internalType": "uint16",
					"name": "year",
					"type": "uint16"
				},
				{
					"internalType": "uint8",
					"name": "month",
					"type": "uint8"
				},
				{
					"internalType": "uint8",
					"name": "day",
					"type": "uint8"
				},
				{
					"internalType": "uint8",
					"name": "hour",
					"type": "uint8"
				}
			],
			"name": "toTimestamp",
			"outputs": [
				{
					"internalType": "uint256",
					"name": "timestamp",
					"type": "uint256"
				}
			],
			"stateMutability": "pure",
			"type": "function"
		},
		{
			"inputs": [
				{
					"internalType": "uint16",
					"name": "year",
					"type": "uint16"
				},
				{
					"internalType": "uint8",
					"name": "month",
					"type": "uint8"
				},
				{
					"internalType": "uint8",
					"name": "day",
					"type": "uint8"
				}
			],
			"name": "toTimestamp",
			"outputs": [
				{
					"internalType": "uint256",
					"name": "timestamp",
					"type": "uint256"
				}
			],
			"stateMutability": "pure",
			"type": "function"
		},
		{
			"inputs": [
				{
					"internalType": "uint16",
					"name": "year",
					"type": "uint16"
				},
				{
					"internalType": "uint8",
					"name": "month",
					"type": "uint8"
				},
				{
					"internalType": "uint8",
					"name": "day",
					"type": "uint8"
				},
				{
					"internalType": "uint8",
					"name": "hour",
					"type": "uint8"
				},
				{
					"internalType": "uint8",
					"name": "minute",
					"type": "uint8"
				},
				{
					"internalType": "uint8",
					"name": "second",
					"type": "uint8"
				}
			],
			"name": "toTimestamp",
			"outputs": [
				{
					"internalType": "uint256",
					"name": "timestamp",
					"type": "uint256"
				}
			],
			"stateMutability": "pure",
			"type": "function"
		}
	]
}