{
	"data": {
		"bytecode": {
			"linkReferences": {},
			"object": "6080604052670de0b6b3a7640000600955600a80556014601560006101000a81548160ff021916908360ff1602179055506000602a60006101000a81548160ff021916908360ff1602179055506000602a60016101000a81548160ff021916908360ff1602179055503480156200007557600080fd5b506040518060400160405280601181526020017f54686520436c75622056495020436172640000000000000000000000000000008152506040518060400160405280600481526020017f54435643000000000000000000000000000000000000000000000000000000008152508160009080519060200190620000fa9291906200020a565b508060019080519060200190620001139291906200020a565b505050620001366200012a6200013c60201b60201c565b6200014460201b60201c565b6200031f565b600033905090565b6000600660009054906101000a900473ffffffffffffffffffffffffffffffffffffffff16905081600660006101000a81548173ffffffffffffffffffffffffffffffffffffffff021916908373ffffffffffffffffffffffffffffffffffffffff1602179055508173ffffffffffffffffffffffffffffffffffffffff168173ffffffffffffffffffffffffffffffffffffffff167f8be0079c531659141344cd1fd0a4f28419497f9722a3daafe3b4186f6b6457e060405160405180910390a35050565b8280546200021890620002ba565b90600052602060002090601f0160209004810192826200023c576000855562000288565b82601f106200025757805160ff191683800117855562000288565b8280016001018555821562000288579182015b82811115620002875782518255916020019190600101906200026a565b5b5090506200029791906200029b565b5090565b5b80821115620002b65760008160009055506001016200029c565b5090565b60006002820490506001821680620002d357607f821691505b60208210811415620002ea57620002e9620002f0565b5b50919050565b7f4e487b7100000000000000000000000000000000000000000000000000000000600052602260045260246000fd5b615da9806200032f6000396000f3fe6080604052600436106102ad5760003560e01c806370a0823111610175578063a22cb465116100dc578063bb8f332011610095578063d57bde791161006f578063d57bde7914610b31578063e985e9c514610b5c578063f2fde38b14610b99578063fa93f88314610bc2576102ad565b8063bb8f332014610a8c578063c87b56dd14610ab7578063c9dd1f3c14610af4576102ad565b8063a22cb46514610946578063a324ad241461096f578063a6f0e577146109ac578063b1999937146109e9578063b238ad0e14610a26578063b88d4fde14610a63576102ad565b80638da5cb5b1161012e5780638da5cb5b146108205780639054bdec1461084b57806391f901571461088857806392d66313146108b357806395d89b41146108f0578063991352d01461091b576102ad565b806370a08231146106d8578063715018a6146107155780637f7918331461072c5780638aa001fc146107695780638bcb2b82146107a65780638c8d98a0146107e3576102ad565b80633ccfd60b116102195780634f245ef7116101d25780634f245ef7146105d457806362ba9687146105eb5780636352211e1461062857806365c72840146106655780636871ee40146106a25780636c49c70a146106ac576102ad565b80633ccfd60b146104b45780633e239e1a146104df57806342842e0e1461051c57806342966c681461054557806344ee63891461056e5780634ac1ad7814610597576102ad565b80630fb93d341161026b5780630fb93d34146103e657806315140e431461041157806316fc32971461044e5780631998aeef1461046a57806323b872dd146104745780632a24f46c1461049d576102ad565b8062f38adb146102b257806301ffc9a7146102db57806306fdde0314610318578063081812fc1461034357806308ac7ad614610380578063095ea7b3146103bd575b600080fd5b3480156102be57600080fd5b506102d960048036038101906102d491906140d3565b610bff565b005b3480156102e757600080fd5b5061030260048036038101906102fd9190614079565b610dd7565b60405161030f9190614947565b60405180910390f35b34801561032457600080fd5b5061032d610eb9565b60405161033a919061497d565b60405180910390f35b34801561034f57600080fd5b5061036a6004803603810190610365919061434b565b610f4b565b60405161037791906148b7565b60405180910390f35b34801561038c57600080fd5b506103a760048036038101906103a29190614378565b610fd0565b6040516103b4919061497d565b60405180910390f35b3480156103c957600080fd5b506103e460048036038101906103df9190614039565b611094565b005b3480156103f257600080fd5b506103fb6111ac565b604051610408919061497d565b60405180910390f35b34801561041d57600080fd5b506104386004803603810190610433919061434b565b611335565b6040516104459190614962565b60405180910390f35b6104686004803603810190610463919061434b565b611350565b005b610472611476565b005b34801561048057600080fd5b5061049b60048036038101906104969190613f23565b6116a3565b005b3480156104a957600080fd5b506104b2611703565b005b3480156104c057600080fd5b506104c961183f565b6040516104d69190614947565b60405180910390f35b3480156104eb57600080fd5b506105066004803603810190610501919061434b565b611963565b6040516105139190614d35565b60405180910390f35b34801561052857600080fd5b50610543600480360381019061053e9190613f23565b611990565b005b34801561055157600080fd5b5061056c6004803603810190610567919061434b565b6119b0565b005b34801561057a57600080fd5b5061059560048036038101906105909190614113565b611a0c565b005b3480156105a357600080fd5b506105be60048036038101906105b9919061434b565b611b73565b6040516105cb9190614d35565b60405180910390f35b3480156105e057600080fd5b506105e9611ba3565b005b3480156105f757600080fd5b50610612600480360381019061060d9190614243565b611d56565b60405161061f9190614d1a565b60405180910390f35b34801561063457600080fd5b5061064f600480360381019061064a919061434b565b611d72565b60405161065c91906148b7565b60405180910390f35b34801561067157600080fd5b5061068c6004803603810190610687919061434b565b611e24565b6040516106999190614d35565b60405180910390f35b6106aa611e3a565b005b3480156106b857600080fd5b506106c1611f35565b6040516106cf929190614d50565b60405180910390f35b3480156106e457600080fd5b506106ff60048036038101906106fa9190613eb6565b611f60565b60405161070c9190614d1a565b60405180910390f35b34801561072157600080fd5b5061072a612018565b005b34801561073857600080fd5b50610753600480360381019061074e91906141dc565b6120a0565b6040516107609190614d1a565b60405180910390f35b34801561077557600080fd5b50610790600480360381019061078b919061434b565b6120bb565b60405161079d9190614d35565b60405180910390f35b3480156107b257600080fd5b506107cd60048036038101906107c8919061434b565b6120d1565b6040516107da919061497d565b60405180910390f35b3480156107ef57600080fd5b5061080a60048036038101906108059190614189565b612174565b6040516108179190614d1a565b60405180910390f35b34801561082c57600080fd5b5061083561218f565b60405161084291906148b7565b60405180910390f35b34801561085757600080fd5b50610872600480360381019061086d91906142be565b6121b9565b60405161087f9190614d1a565b60405180910390f35b34801561089457600080fd5b5061089d612524565b6040516108aa91906148b7565b60405180910390f35b3480156108bf57600080fd5b506108da60048036038101906108d5919061434b565b61254a565b6040516108e79190614cff565b60405180910390f35b3480156108fc57600080fd5b50610905612661565b604051610912919061497d565b60405180910390f35b34801561092757600080fd5b506109306126f3565b60405161093d9190614962565b60405180910390f35b34801561095257600080fd5b5061096d60048036038101906109689190613ff9565b612720565b005b34801561097b57600080fd5b506109966004803603810190610991919061434b565b6128a1565b6040516109a39190614d35565b60405180910390f35b3480156109b857600080fd5b506109d360048036038101906109ce919061415c565b6128b7565b6040516109e09190614947565b60405180910390f35b3480156109f557600080fd5b50610a106004803603810190610a0b919061434b565b612926565b604051610a1d9190614d1a565b60405180910390f35b348015610a3257600080fd5b50610a4d6004803603810190610a4891906143a5565b61297a565b604051610a5a9190614d35565b60405180910390f35b348015610a6f57600080fd5b50610a8a6004803603810190610a859190613f76565b612a46565b005b348015610a9857600080fd5b50610aa1612aa8565b604051610aae9190614d35565b60405180910390f35b348015610ac357600080fd5b50610ade6004803603810190610ad9919061434b565b612abf565b604051610aeb919061497d565b60405180910390f35b348015610b0057600080fd5b50610b1b6004803603810190610b16919061434b565b612b66565b604051610b289190614962565b60405180910390f35b348015610b3d57600080fd5b50610b46612b85565b604051610b539190614d1a565b60405180910390f35b348015610b6857600080fd5b50610b836004803603810190610b7e9190613ee3565b612b8b565b604051610b909190614947565b60405180910390f35b348015610ba557600080fd5b50610bc06004803603810190610bbb9190613eb6565b612c1f565b005b348015610bce57600080fd5b50610be96004803603810190610be4919061434b565b612d17565b604051610bf69190614d35565b60405180910390f35b610c07612d38565b73ffffffffffffffffffffffffffffffffffffffff16610c2561218f565b73ffffffffffffffffffffffffffffffffffffffff1614610c7b576040517f08c379a0000000000000000000000000000000000000000000000000000000008152600401610c7290614bdf565b60405180910390fd5b60008213610cbe576040517f08c379a0000000000000000000000000000000000000000000000000000000008152600401610cb590614abf565b60405180910390fd5b610cc86007612d40565b8110610d09576040517f08c379a0000000000000000000000000000000000000000000000000000000008152600401610d0090614b7f565b60405180910390fd5b6000600b82600a8110610d1f57610d1e61559c565b5b01549050600083610d2e6126f3565b610d389190614fff565b90506000600a54606483610d4c9190614f64565b610d569190614fff565b82610d619190615170565b905060008184610d719190615170565b9050838112610db5576040517f08c379a0000000000000000000000000000000000000000000000000000000008152600401610dac9061499f565b60405180910390fd5b80600b86600a8110610dca57610dc961559c565b5b0181905550505050505050565b60007f80ac58cd000000000000000000000000000000000000000000000000000000007bffffffffffffffffffffffffffffffffffffffffffffffffffffffff1916827bffffffffffffffffffffffffffffffffffffffffffffffffffffffff19161480610ea257507f5b5e139f000000000000000000000000000000000000000000000000000000007bffffffffffffffffffffffffffffffffffffffffffffffffffffffff1916827bffffffffffffffffffffffffffffffffffffffffffffffffffffffff1916145b80610eb25750610eb182612d4e565b5b9050919050565b606060008054610ec89061537b565b80601f0160208091040260200160405190810160405280929190818152602001828054610ef49061537b565b8015610f415780601f10610f1657610100808354040283529160200191610f41565b820191906000526020600020905b815481529060010190602001808311610f2457829003601f168201915b5050505050905090565b6000610f5682612db8565b610f95576040517f08c379a0000000000000000000000000000000000000000000000000000000008152600401610f8c90614bbf565b60405180910390fd5b6004600083815260200190815260200160002060009054906101000a900473ffffffffffffffffffffffffffffffffffffffff169050919050565b60606016601560009054906101000a900460ff1683610fef91906154de565b60ff16601481106110035761100261559c565b5b01805461100f9061537b565b80601f016020809104026020016040519081016040528092919081815260200182805461103b9061537b565b80156110885780601f1061105d57610100808354040283529160200191611088565b820191906000526020600020905b81548152906001019060200180831161106b57829003601f168201915b50505050509050919050565b600061109f82611d72565b90508073ffffffffffffffffffffffffffffffffffffffff168373ffffffffffffffffffffffffffffffffffffffff161415611110576040517f08c379a000000000000000000000000000000000000000000000000000000000815260040161110790614c3f565b60405180910390fd5b8073ffffffffffffffffffffffffffffffffffffffff1661112f612d38565b73ffffffffffffffffffffffffffffffffffffffff16148061115e575061115d81611158612d38565b612b8b565b5b61119d576040517f08c379a000000000000000000000000000000000000000000000000000000000815260040161119490614aff565b60405180910390fd5b6111a78383612e24565b505050565b60606111b6612d38565b73ffffffffffffffffffffffffffffffffffffffff166111d461218f565b73ffffffffffffffffffffffffffffffffffffffff161461122a576040517f08c379a000000000000000000000000000000000000000000000000000000000815260040161122190614bdf565b60405180910390fd5b60006016602a60019054906101000a900460ff1660ff16601481106112525761125161559c565b5b01805461125e9061537b565b80601f016020809104026020016040519081016040528092919081815260200182805461128a9061537b565b80156112d75780601f106112ac576101008083540402835291602001916112d7565b820191906000526020600020905b8154815290600101906020018083116112ba57829003601f168201915b50505050509050601560009054906101000a900460ff166001602a60019054906101000a900460ff1661130a9190614f2d565b61131491906154de565b602a60016101000a81548160ff021916908360ff1602179055508091505090565b600b81600a811061134557600080fd5b016000915090505481565b60003411611393576040517f08c379a000000000000000000000000000000000000000000000000000000000815260040161138a90614a9f565b60405180910390fd5b6000600b82600a81106113a9576113a861559c565b5b0154126113eb576040517f08c379a00000000000000000000000000000000000000000000000000000000081526004016113e290614b9f565b60405180910390fd5b6000600b82600a81106114015761140061559c565b5b01549050600034826114139190614e43565b9050818113611457576040517f08c379a000000000000000000000000000000000000000000000000000000000815260040161144e9061499f565b60405180910390fd5b80600b84600a811061146c5761146b61559c565b5b0181905550505050565b600061148133611f60565b116114c1576040517f08c379a00000000000000000000000000000000000000000000000000000000081526004016114b890614c7f565b60405180910390fd5b60006114cc42611b73565b905060048160ff161461150b576040517fd02e774d00000000000000000000000000000000000000000000000000000000815260040160405180910390fd5b602d60009054906101000a900460ff16611551576040517fd02e774d00000000000000000000000000000000000000000000000000000000815260040160405180910390fd5b602b5434101561159a57602b546040517f4e12c1bb0000000000000000000000000000000000000000000000000000000081526004016115919190614d1a565b60405180910390fd5b6000602b541461161f57602b54602c6000602a60029054906101000a900473ffffffffffffffffffffffffffffffffffffffff1673ffffffffffffffffffffffffffffffffffffffff1673ffffffffffffffffffffffffffffffffffffffff16815260200190815260200160002060008282546116179190614ed7565b925050819055505b33602a60026101000a81548173ffffffffffffffffffffffffffffffffffffffff021916908373ffffffffffffffffffffffffffffffffffffffff16021790555034602b819055507ff4757a49b326036464bec6fe419a4ae38c8a02ce3e68bf0809674f6aab8ad300333460405161169892919061491e565b60405180910390a150565b6116b46116ae612d38565b82612edd565b6116f3576040517f08c379a00000000000000000000000000000000000000000000000000000000081526004016116ea90614c9f565b60405180910390fd5b6116fe838383612fbb565b505050565b61170b612d38565b73ffffffffffffffffffffffffffffffffffffffff1661172961218f565b73ffffffffffffffffffffffffffffffffffffffff161461177f576040517f08c379a000000000000000000000000000000000000000000000000000000000815260040161177690614bdf565b60405180910390fd5b602d60009054906101000a900460ff166117c5576040517fd02e774d00000000000000000000000000000000000000000000000000000000815260040160405180910390fd5b6000602d60006101000a81548160ff0219169083151502179055507fdaec4582d5d9595688c8c98545fdd1c696d41c6aeaeb636737e84ed2f5c00eda602a60029054906101000a900473ffffffffffffffffffffffffffffffffffffffff16602b5460405161183592919061491e565b60405180910390a1565b600080602c60003373ffffffffffffffffffffffffffffffffffffffff1673ffffffffffffffffffffffffffffffffffffffff168152602001908152602001600020549050600081111561195a576000602c60003373ffffffffffffffffffffffffffffffffffffffff1673ffffffffffffffffffffffffffffffffffffffff168152602001908152602001600020819055503373ffffffffffffffffffffffffffffffffffffffff166108fc829081150290604051600060405180830381858888f193505050506119595780602c60003373ffffffffffffffffffffffffffffffffffffffff1673ffffffffffffffffffffffffffffffffffffffff168152602001908152602001600020819055506000915050611960565b5b60019150505b90565b60006018603c80846119759190614fce565b61197f9190614fce565b61198991906154ad565b9050919050565b6119ab83838360405180602001604052806000815250612a46565b505050565b6119c16119bb612d38565b82612edd565b611a00576040517f08c379a00000000000000000000000000000000000000000000000000000000081526004016119f790614cbf565b60405180910390fd5b611a0981613217565b50565b6000611a1733611f60565b11611a57576040517f08c379a0000000000000000000000000000000000000000000000000000000008152600401611a4e90614c7f565b60405180910390fd5b602a60019054906101000a900460ff1660ff16601560009054906101000a900460ff166001602a60009054906101000a900460ff16611a969190614f2d565b611aa091906154de565b60ff161415611ae4576040517f08c379a0000000000000000000000000000000000000000000000000000000008152600401611adb90614a5f565b60405180910390fd5b806016602a60009054906101000a900460ff1660ff1660148110611b0b57611b0a61559c565b5b019080519060200190611b1f929190613c15565b50601560009054906101000a900460ff166001602a60009054906101000a900460ff16611b4c9190614f2d565b611b5691906154de565b602a60006101000a81548160ff021916908360ff16021790555050565b6000600760046201518084611b889190614fce565b611b929190614ed7565b611b9c91906154ad565b9050919050565b611bab612d38565b73ffffffffffffffffffffffffffffffffffffffff16611bc961218f565b73ffffffffffffffffffffffffffffffffffffffff1614611c1f576040517f08c379a0000000000000000000000000000000000000000000000000000000008152600401611c1690614bdf565b60405180910390fd5b602d60009054906101000a900460ff1615611c66576040517f628e388300000000000000000000000000000000000000000000000000000000815260040160405180910390fd5b6001602d60006101000a81548160ff0219169083151502179055506000602b819055506000602a60026101000a81548173ffffffffffffffffffffffffffffffffffffffff021916908373ffffffffffffffffffffffffffffffffffffffff1602179055507ff4757a49b326036464bec6fe419a4ae38c8a02ce3e68bf0809674f6aab8ad300602a60029054906101000a900473ffffffffffffffffffffffffffffffffffffffff16602b54604051611d2092919061491e565b60405180910390a17fc8f99b9ac2a284b93c3652b9f064a6706724088cdafa9e0a8437c026191b2f0360405160405180910390a1565b6000611d67868686868660006121b9565b905095945050505050565b6000806002600084815260200190815260200160002060009054906101000a900473ffffffffffffffffffffffffffffffffffffffff169050600073ffffffffffffffffffffffffffffffffffffffff168173ffffffffffffffffffffffffffffffffffffffff161415611e1b576040517f08c379a0000000000000000000000000000000000000000000000000000000008152600401611e1290614b3f565b60405180910390fd5b80915050919050565b6000611e2f82613328565b604001519050919050565b600a611e466007612d40565b10611e86576040517f08c379a0000000000000000000000000000000000000000000000000000000008152600401611e7d90614c5f565b60405180910390fd5b600954341015611ecb576040517f08c379a0000000000000000000000000000000000000000000000000000000008152600401611ec290614cdf565b60405180910390fd5b6000611ed633611f60565b14611f16576040517f08c379a0000000000000000000000000000000000000000000000000000000008152600401611f0d90614a7f565b60405180910390fd5b611f2933611f246007612d40565b613539565b611f336007613557565b565b600080602a60019054906101000a900460ff16602a60009054906101000a900460ff16915091509091565b60008073ffffffffffffffffffffffffffffffffffffffff168273ffffffffffffffffffffffffffffffffffffffff161415611fd1576040517f08c379a0000000000000000000000000000000000000000000000000000000008152600401611fc890614b1f565b60405180910390fd5b600360008373ffffffffffffffffffffffffffffffffffffffff1673ffffffffffffffffffffffffffffffffffffffff168152602001908152602001600020549050919050565b612020612d38565b73ffffffffffffffffffffffffffffffffffffffff1661203e61218f565b73ffffffffffffffffffffffffffffffffffffffff1614612094576040517f08c379a000000000000000000000000000000000000000000000000000000000815260040161208b90614bdf565b60405180910390fd5b61209e600061356d565b565b60006120b1858585856000806121b9565b9050949350505050565b6000603c826120ca91906154ad565b9050919050565b601681601481106120e157600080fd5b0160009150905080546120f39061537b565b80601f016020809104026020016040519081016040528092919081815260200182805461211f9061537b565b801561216c5780601f106121415761010080835404028352916020019161216c565b820191906000526020600020905b81548152906001019060200180831161214f57829003601f168201915b505050505081565b600061218684848460008060006121b9565b90509392505050565b6000600660009054906101000a900473ffffffffffffffffffffffffffffffffffffffff16905090565b6000806107b290505b8761ffff168161ffff16101561221d576121db816128b7565b156121f7576301e28500826121f09190614ed7565b915061220a565b6301e13380826122079190614ed7565b91505b8080612215906153de565b9150506121c2565b612225613c9b565b601f816000600c811061223b5761223a61559c565b5b602002019060ff16908160ff1681525050612255896128b7565b1561228657601d816001600c81106122705761226f61559c565b5b602002019060ff16908160ff16815250506122ae565b601c816001600c811061229c5761229b61559c565b5b602002019060ff16908160ff16815250505b601f816002600c81106122c4576122c361559c565b5b602002019060ff16908160ff1681525050601e816003600c81106122eb576122ea61559c565b5b602002019060ff16908160ff1681525050601f816004600c81106123125761231161559c565b5b602002019060ff16908160ff1681525050601e816005600c81106123395761233861559c565b5b602002019060ff16908160ff1681525050601f816006600c81106123605761235f61559c565b5b602002019060ff16908160ff1681525050601f816007600c81106123875761238661559c565b5b602002019060ff16908160ff1681525050601e816008600c81106123ae576123ad61559c565b5b602002019060ff16908160ff1681525050601f816009600c81106123d5576123d461559c565b5b602002019060ff16908160ff1681525050601e81600a600c81106123fc576123fb61559c565b5b602002019060ff16908160ff1681525050601f81600b600c81106124235761242261559c565b5b602002019060ff16908160ff1681525050600191505b8760ff168261ffff1610156124a157806001836124569190615204565b61ffff16600c811061246b5761246a61559c565b5b602002015160ff16620151806124819190615116565b8361248c9190614ed7565b92508180612499906153de565b925050612439565b6001876124ae919061526c565b60ff16620151806124bf9190615116565b836124ca9190614ed7565b92508560ff16610e106124dd9190615116565b836124e89190614ed7565b92508460ff16603c6124fa9190615116565b836125059190614ed7565b92508360ff16836125169190614ed7565b925050509695505050505050565b602a60029054906101000a900473ffffffffffffffffffffffffffffffffffffffff1681565b600080600090506000806301e13380856125649190614fce565b6107b261ffff166125759190614ed7565b91506125866107b261ffff16612926565b6125938361ffff16612926565b61259d9190615238565b9050806301e285006125af9190615116565b836125ba9190614ed7565b9250806107b2836125cb9190615204565b61ffff166125d99190615238565b6301e133806125e89190615116565b836125f39190614ed7565b92505b848311156126565761261360018361260e9190615204565b6128b7565b1561262f576301e28500836126289190615238565b9250612642565b6301e133808361263f9190615238565b92505b60018261264f9190615204565b91506125f6565b819350505050919050565b6060600180546126709061537b565b80601f016020809104026020016040519081016040528092919081815260200182805461269c9061537b565b80156126e95780601f106126be576101008083540402835291602001916126e9565b820191906000526020600020905b8154815290600101906020018083116126cc57829003601f168201915b5050505050905090565b6000806126fe613633565b9050600081670de0b6b3a76400006127169190614f64565b9050809250505090565b612728612d38565b73ffffffffffffffffffffffffffffffffffffffff168273ffffffffffffffffffffffffffffffffffffffff161415612796576040517f08c379a000000000000000000000000000000000000000000000000000000000815260040161278d90614a3f565b60405180910390fd5b80600560006127a3612d38565b73ffffffffffffffffffffffffffffffffffffffff1673ffffffffffffffffffffffffffffffffffffffff16815260200190815260200160002060008473ffffffffffffffffffffffffffffffffffffffff1673ffffffffffffffffffffffffffffffffffffffff16815260200190815260200160002060006101000a81548160ff0219169083151502179055508173ffffffffffffffffffffffffffffffffffffffff16612850612d38565b73ffffffffffffffffffffffffffffffffffffffff167f17307eab39ab6107e8899845ad3d59bd9653f200f220920489ca2b5937696c31836040516128959190614947565b60405180910390a35050565b60006128ac82613328565b602001519050919050565b6000806004836128c7919061547c565b61ffff16146128d95760009050612921565b60006064836128e8919061547c565b61ffff16146128fa5760019050612921565b60006101908361290a919061547c565b61ffff161461291c5760009050612921565b600190505b919050565b60006001826129359190615238565b9150610190826129459190614fce565b6064836129529190614fce565b60048461295f9190614fce565b6129699190615238565b6129739190614ed7565b9050919050565b600060018360ff161480612991575060038360ff16145b8061299f575060058360ff16145b806129ad575060078360ff16145b806129bb575060088360ff16145b806129c95750600a8360ff16145b806129d75750600c8360ff16145b156129e557601f9050612a40565b60048360ff1614806129fa575060068360ff16145b80612a08575060098360ff16145b80612a165750600b8360ff16145b15612a2457601e9050612a40565b612a2d826128b7565b15612a3b57601d9050612a40565b601c90505b92915050565b612a57612a51612d38565b83612edd565b612a96576040517f08c379a0000000000000000000000000000000000000000000000000000000008152600401612a8d90614c9f565b60405180910390fd5b612aa284848484613643565b50505050565b6000602a60019054906101000a900460ff16905090565b6060612aca82612db8565b612b09576040517f08c379a0000000000000000000000000000000000000000000000000000000008152600401612b0090614c1f565b60405180910390fd5b6000612b1361369f565b90506000815111612b335760405180602001604052806000815250612b5e565b80612b3d846136dc565b604051602001612b4e929190614893565b6040516020818303038152906040525b915050919050565b6000600b82600a8110612b7c57612b7b61559c565b5b01549050919050565b602b5481565b6000600560008473ffffffffffffffffffffffffffffffffffffffff1673ffffffffffffffffffffffffffffffffffffffff16815260200190815260200160002060008373ffffffffffffffffffffffffffffffffffffffff1673ffffffffffffffffffffffffffffffffffffffff16815260200190815260200160002060009054906101000a900460ff16905092915050565b612c27612d38565b73ffffffffffffffffffffffffffffffffffffffff16612c4561218f565b73ffffffffffffffffffffffffffffffffffffffff1614612c9b576040517f08c379a0000000000000000000000000000000000000000000000000000000008152600401612c9290614bdf565b60405180910390fd5b600073ffffffffffffffffffffffffffffffffffffffff168173ffffffffffffffffffffffffffffffffffffffff161415612d0b576040517f08c379a0000000000000000000000000000000000000000000000000000000008152600401612d02906149df565b60405180910390fd5b612d148161356d565b50565b6000603c8083612d279190614fce565b612d3191906154ad565b9050919050565b600033905090565b600081600001549050919050565b60007f01ffc9a7000000000000000000000000000000000000000000000000000000007bffffffffffffffffffffffffffffffffffffffffffffffffffffffff1916827bffffffffffffffffffffffffffffffffffffffffffffffffffffffff1916149050919050565b60008073ffffffffffffffffffffffffffffffffffffffff166002600084815260200190815260200160002060009054906101000a900473ffffffffffffffffffffffffffffffffffffffff1673ffffffffffffffffffffffffffffffffffffffff1614159050919050565b816004600083815260200190815260200160002060006101000a81548173ffffffffffffffffffffffffffffffffffffffff021916908373ffffffffffffffffffffffffffffffffffffffff160217905550808273ffffffffffffffffffffffffffffffffffffffff16612e9783611d72565b73ffffffffffffffffffffffffffffffffffffffff167f8c5be1e5ebec7d5bd14f71427d1e84f3dd0314c0f7b2291e5b200ac8c7c3b92560405160405180910390a45050565b6000612ee882612db8565b612f27576040517f08c379a0000000000000000000000000000000000000000000000000000000008152600401612f1e90614adf565b60405180910390fd5b6000612f3283611d72565b90508073ffffffffffffffffffffffffffffffffffffffff168473ffffffffffffffffffffffffffffffffffffffff161480612fa157508373ffffffffffffffffffffffffffffffffffffffff16612f8984610f4b565b73ffffffffffffffffffffffffffffffffffffffff16145b80612fb25750612fb18185612b8b565b5b91505092915050565b8273ffffffffffffffffffffffffffffffffffffffff16612fdb82611d72565b73ffffffffffffffffffffffffffffffffffffffff1614613031576040517f08c379a000000000000000000000000000000000000000000000000000000000815260040161302890614bff565b60405180910390fd5b600073ffffffffffffffffffffffffffffffffffffffff168273ffffffffffffffffffffffffffffffffffffffff1614156130a1576040517f08c379a000000000000000000000000000000000000000000000000000000000815260040161309890614a1f565b60405180910390fd5b6130ac83838361383d565b6130b7600082612e24565b6001600360008573ffffffffffffffffffffffffffffffffffffffff1673ffffffffffffffffffffffffffffffffffffffff16815260200190815260200160002060008282546131079190615238565b925050819055506001600360008473ffffffffffffffffffffffffffffffffffffffff1673ffffffffffffffffffffffffffffffffffffffff168152602001908152602001600020600082825461315e9190614ed7565b92505081905550816002600083815260200190815260200160002060006101000a81548173ffffffffffffffffffffffffffffffffffffffff021916908373ffffffffffffffffffffffffffffffffffffffff160217905550808273ffffffffffffffffffffffffffffffffffffffff168473ffffffffffffffffffffffffffffffffffffffff167fddf252ad1be2c89b69c2b068fc378daa952ba7f163c4a11628f55a4df523b3ef60405160405180910390a4505050565b600061322282611d72565b90506132308160008461383d565b61323b600083612e24565b6001600360008373ffffffffffffffffffffffffffffffffffffffff1673ffffffffffffffffffffffffffffffffffffffff168152602001908152602001600020600082825461328b9190615238565b925050819055506002600083815260200190815260200160002060006101000a81549073ffffffffffffffffffffffffffffffffffffffff021916905581600073ffffffffffffffffffffffffffffffffffffffff168273ffffffffffffffffffffffffffffffffffffffff167fddf252ad1be2c89b69c2b068fc378daa952ba7f163c4a11628f55a4df523b3ef60405160405180910390a45050565b613330613cbe565b6000808061333d8561254a565b846000019061ffff16908161ffff168152505061335f6107b261ffff16612926565b613370856000015161ffff16612926565b61337a9190615238565b9150816301e2850061338c9190615116565b836133979190614ed7565b9250816107b285600001516133ac9190615204565b61ffff166133ba9190615238565b6301e133806133c99190615116565b836133d49190614ed7565b92506000600191505b600c8260ff1611613454576133f682866000015161297a565b60ff16620151806134079190615116565b90508584826134169190614ed7565b11156134335781856020019060ff16908160ff1681525050613454565b808461343f9190614ed7565b9350818061344c90615452565b9250506133dd565b600191505b61346b8560200151866000015161297a565b60ff168260ff16116134c8578584620151806134879190614ed7565b11156134a45781856040019060ff16908160ff16815250506134c8565b62015180846134b39190614ed7565b935081806134c090615452565b925050613459565b6134d186611963565b856060019060ff16908160ff16815250506134eb86612d17565b856080019060ff16908160ff1681525050613505866120bb565b8560a0019060ff16908160ff168152505061351f86611b73565b8560c0019060ff16908160ff168152505050505050919050565b613553828260405180602001604052806000815250613842565b5050565b6001816000016000828254019250508190555050565b6000600660009054906101000a900473ffffffffffffffffffffffffffffffffffffffff16905081600660006101000a81548173ffffffffffffffffffffffffffffffffffffffff021916908373ffffffffffffffffffffffffffffffffffffffff1602179055508173ffffffffffffffffffffffffffffffffffffffff168173ffffffffffffffffffffffffffffffffffffffff167f8be0079c531659141344cd1fd0a4f28419497f9722a3daafe3b4186f6b6457e060405160405180910390a35050565b6000806204c4d290508091505090565b61364e848484612fbb565b61365a8484848461389d565b613699576040517f08c379a0000000000000000000000000000000000000000000000000000000008152600401613690906149bf565b60405180910390fd5b50505050565b60606040518060400160405280601281526020017f68747470733a5c5c746865636c75622e72730000000000000000000000000000815250905090565b60606000821415613724576040518060400160405280600181526020017f30000000000000000000000000000000000000000000000000000000000000008152509050613838565b600082905060005b6000821461375657808061373f90615409565b915050600a8261374f9190614fce565b915061372c565b60008167ffffffffffffffff811115613772576137716155cb565b5b6040519080825280601f01601f1916602001820160405280156137a45781602001600182028036833780820191505090505b5090505b60008514613831576001826137bd9190615238565b9150600a856137cc91906154ad565b60306137d89190614ed7565b60f81b8183815181106137ee576137ed61559c565b5b60200101907effffffffffffffffffffffffffffffffffffffffffffffffffffffffffffff1916908160001a905350600a8561382a9190614fce565b94506137a8565b8093505050505b919050565b505050565b61384c8383613a34565b613859600084848461389d565b613898576040517f08c379a000000000000000000000000000000000000000000000000000000000815260040161388f906149bf565b60405180910390fd5b505050565b60006138be8473ffffffffffffffffffffffffffffffffffffffff16613c02565b15613a27578373ffffffffffffffffffffffffffffffffffffffff1663150b7a026138e7612d38565b8786866040518563ffffffff1660e01b815260040161390994939291906148d2565b602060405180830381600087803b15801561392357600080fd5b505af192505050801561395457506040513d601f19601f8201168201806040525081019061395191906140a6565b60015b6139d7573d8060008114613984576040519150601f19603f3d011682016040523d82523d6000602084013e613989565b606091505b506000815114156139cf576040517f08c379a00000000000000000000000000000000000000000000000000000000081526004016139c6906149bf565b60405180910390fd5b805181602001fd5b63150b7a0260e01b7bffffffffffffffffffffffffffffffffffffffffffffffffffffffff1916817bffffffffffffffffffffffffffffffffffffffffffffffffffffffff191614915050613a2c565b600190505b949350505050565b600073ffffffffffffffffffffffffffffffffffffffff168273ffffffffffffffffffffffffffffffffffffffff161415613aa4576040517f08c379a0000000000000000000000000000000000000000000000000000000008152600401613a9b90614b5f565b60405180910390fd5b613aad81612db8565b15613aed576040517f08c379a0000000000000000000000000000000000000000000000000000000008152600401613ae4906149ff565b60405180910390fd5b613af96000838361383d565b6001600360008473ffffffffffffffffffffffffffffffffffffffff1673ffffffffffffffffffffffffffffffffffffffff1681526020019081526020016000206000828254613b499190614ed7565b92505081905550816002600083815260200190815260200160002060006101000a81548173ffffffffffffffffffffffffffffffffffffffff021916908373ffffffffffffffffffffffffffffffffffffffff160217905550808273ffffffffffffffffffffffffffffffffffffffff16600073ffffffffffffffffffffffffffffffffffffffff167fddf252ad1be2c89b69c2b068fc378daa952ba7f163c4a11628f55a4df523b3ef60405160405180910390a45050565b600080823b905060008111915050919050565b828054613c219061537b565b90600052602060002090601f016020900481019282613c435760008555613c8a565b82601f10613c5c57805160ff1916838001178555613c8a565b82800160010185558215613c8a579182015b82811115613c89578251825591602001919060010190613c6e565b5b509050613c979190613d11565b5090565b604051806101800160405280600c90602082028036833780820191505090505090565b6040518060e00160405280600061ffff168152602001600060ff168152602001600060ff168152602001600060ff168152602001600060ff168152602001600060ff168152602001600060ff1681525090565b5b80821115613d2a576000816000905550600101613d12565b5090565b6000613d41613d3c84614d9e565b614d79565b905082815260208101848484011115613d5d57613d5c6155ff565b5b613d68848285615339565b509392505050565b6000613d83613d7e84614dcf565b614d79565b905082815260208101848484011115613d9f57613d9e6155ff565b5b613daa848285615339565b509392505050565b600081359050613dc181615cd2565b92915050565b600081359050613dd681615ce9565b92915050565b600081359050613deb81615d00565b92915050565b600081519050613e0081615d00565b92915050565b600082601f830112613e1b57613e1a6155fa565b5b8135613e2b848260208601613d2e565b91505092915050565b600081359050613e4381615d17565b92915050565b600082601f830112613e5e57613e5d6155fa565b5b8135613e6e848260208601613d70565b91505092915050565b600081359050613e8681615d2e565b92915050565b600081359050613e9b81615d45565b92915050565b600081359050613eb081615d5c565b92915050565b600060208284031215613ecc57613ecb615609565b5b6000613eda84828501613db2565b91505092915050565b60008060408385031215613efa57613ef9615609565b5b6000613f0885828601613db2565b9250506020613f1985828601613db2565b9150509250929050565b600080600060608486031215613f3c57613f3b615609565b5b6000613f4a86828701613db2565b9350506020613f5b86828701613db2565b9250506040613f6c86828701613e8c565b9150509250925092565b60008060008060808587031215613f9057613f8f615609565b5b6000613f9e87828801613db2565b9450506020613faf87828801613db2565b9350506040613fc087828801613e8c565b925050606085013567ffffffffffffffff811115613fe157613fe0615604565b5b613fed87828801613e06565b91505092959194509250565b600080604083850312156140105761400f615609565b5b600061401e85828601613db2565b925050602061402f85828601613dc7565b9150509250929050565b600080604083850312156140505761404f615609565b5b600061405e85828601613db2565b925050602061406f85828601613e8c565b9150509250929050565b60006020828403121561408f5761408e615609565b5b600061409d84828501613ddc565b91505092915050565b6000602082840312156140bc576140bb615609565b5b60006140ca84828501613df1565b91505092915050565b600080604083850312156140ea576140e9615609565b5b60006140f885828601613e34565b925050602061410985828601613e8c565b9150509250929050565b60006020828403121561412957614128615609565b5b600082013567ffffffffffffffff81111561414757614146615604565b5b61415384828501613e49565b91505092915050565b60006020828403121561417257614171615609565b5b600061418084828501613e77565b91505092915050565b6000806000606084860312156141a2576141a1615609565b5b60006141b086828701613e77565b93505060206141c186828701613ea1565b92505060406141d286828701613ea1565b9150509250925092565b600080600080608085870312156141f6576141f5615609565b5b600061420487828801613e77565b945050602061421587828801613ea1565b935050604061422687828801613ea1565b925050606061423787828801613ea1565b91505092959194509250565b600080600080600060a0868803121561425f5761425e615609565b5b600061426d88828901613e77565b955050602061427e88828901613ea1565b945050604061428f88828901613ea1565b93505060606142a088828901613ea1565b92505060806142b188828901613ea1565b9150509295509295909350565b60008060008060008060c087890312156142db576142da615609565b5b60006142e989828a01613e77565b96505060206142fa89828a01613ea1565b955050604061430b89828a01613ea1565b945050606061431c89828a01613ea1565b935050608061432d89828a01613ea1565b92505060a061433e89828a01613ea1565b9150509295509295509295565b60006020828403121561436157614360615609565b5b600061436f84828501613e8c565b91505092915050565b60006020828403121561438e5761438d615609565b5b600061439c84828501613ea1565b91505092915050565b600080604083850312156143bc576143bb615609565b5b60006143ca85828601613ea1565b92505060206143db85828601613e77565b9150509250929050565b6143ee816152a0565b82525050565b6143fd816152b2565b82525050565b600061440e82614e00565b6144188185614e16565b9350614428818560208601615348565b6144318161560e565b840191505092915050565b614445816152ea565b82525050565b600061445682614e0b565b6144608185614e27565b9350614470818560208601615348565b6144798161560e565b840191505092915050565b600061448f82614e0b565b6144998185614e38565b93506144a9818560208601615348565b80840191505092915050565b60006144c2601e83614e27565b91506144cd8261561f565b602082019050919050565b60006144e5603283614e27565b91506144f082615648565b604082019050919050565b6000614508602683614e27565b915061451382615697565b604082019050919050565b600061452b601c83614e27565b9150614536826156e6565b602082019050919050565b600061454e602483614e27565b91506145598261570f565b604082019050919050565b6000614571601983614e27565b915061457c8261575e565b602082019050919050565b6000614594601b83614e27565b915061459f82615787565b602082019050919050565b60006145b7602483614e27565b91506145c2826157b0565b604082019050919050565b60006145da602783614e27565b91506145e5826157ff565b604082019050919050565b60006145fd601c83614e27565b91506146088261584e565b602082019050919050565b6000614620602c83614e27565b915061462b82615877565b604082019050919050565b6000614643603883614e27565b915061464e826158c6565b604082019050919050565b6000614666602a83614e27565b915061467182615915565b604082019050919050565b6000614689602983614e27565b915061469482615964565b604082019050919050565b60006146ac602083614e27565b91506146b7826159b3565b602082019050919050565b60006146cf601583614e27565b91506146da826159dc565b602082019050919050565b60006146f2601583614e27565b91506146fd82615a05565b602082019050919050565b6000614715602c83614e27565b915061472082615a2e565b604082019050919050565b6000614738602083614e27565b915061474382615a7d565b602082019050919050565b600061475b602983614e27565b915061476682615aa6565b604082019050919050565b600061477e602f83614e27565b915061478982615af5565b604082019050919050565b60006147a1602183614e27565b91506147ac82615b44565b604082019050919050565b60006147c4601c83614e27565b91506147cf82615b93565b602082019050919050565b60006147e7602f83614e27565b91506147f282615bbc565b604082019050919050565b600061480a603183614e27565b915061481582615c0b565b604082019050919050565b600061482d603083614e27565b915061483882615c5a565b604082019050919050565b6000614850601383614e27565b915061485b82615ca9565b602082019050919050565b61486f816152f4565b82525050565b61487e81615322565b82525050565b61488d8161532c565b82525050565b600061489f8285614484565b91506148ab8284614484565b91508190509392505050565b60006020820190506148cc60008301846143e5565b92915050565b60006080820190506148e760008301876143e5565b6148f460208301866143e5565b6149016040830185614875565b81810360608301526149138184614403565b905095945050505050565b600060408201905061493360008301856143e5565b6149406020830184614875565b9392505050565b600060208201905061495c60008301846143f4565b92915050565b6000602082019050614977600083018461443c565b92915050565b60006020820190508181036000830152614997818461444b565b905092915050565b600060208201905081810360008301526149b8816144b5565b9050919050565b600060208201905081810360008301526149d8816144d8565b9050919050565b600060208201905081810360008301526149f8816144fb565b9050919050565b60006020820190508181036000830152614a188161451e565b9050919050565b60006020820190508181036000830152614a3881614541565b9050919050565b60006020820190508181036000830152614a5881614564565b9050919050565b60006020820190508181036000830152614a7881614587565b9050919050565b60006020820190508181036000830152614a98816145aa565b9050919050565b60006020820190508181036000830152614ab8816145cd565b9050919050565b60006020820190508181036000830152614ad8816145f0565b9050919050565b60006020820190508181036000830152614af881614613565b9050919050565b60006020820190508181036000830152614b1881614636565b9050919050565b60006020820190508181036000830152614b3881614659565b9050919050565b60006020820190508181036000830152614b588161467c565b9050919050565b60006020820190508181036000830152614b788161469f565b9050919050565b60006020820190508181036000830152614b98816146c2565b9050919050565b60006020820190508181036000830152614bb8816146e5565b9050919050565b60006020820190508181036000830152614bd881614708565b9050919050565b60006020820190508181036000830152614bf88161472b565b9050919050565b60006020820190508181036000830152614c188161474e565b9050919050565b60006020820190508181036000830152614c3881614771565b9050919050565b60006020820190508181036000830152614c5881614794565b9050919050565b60006020820190508181036000830152614c78816147b7565b9050919050565b60006020820190508181036000830152614c98816147da565b9050919050565b60006020820190508181036000830152614cb8816147fd565b9050919050565b60006020820190508181036000830152614cd881614820565b9050919050565b60006020820190508181036000830152614cf881614843565b9050919050565b6000602082019050614d146000830184614866565b92915050565b6000602082019050614d2f6000830184614875565b92915050565b6000602082019050614d4a6000830184614884565b92915050565b6000604082019050614d656000830185614884565b614d726020830184614884565b9392505050565b6000614d83614d94565b9050614d8f82826153ad565b919050565b6000604051905090565b600067ffffffffffffffff821115614db957614db86155cb565b5b614dc28261560e565b9050602081019050919050565b600067ffffffffffffffff821115614dea57614de96155cb565b5b614df38261560e565b9050602081019050919050565b600081519050919050565b600081519050919050565b600082825260208201905092915050565b600082825260208201905092915050565b600081905092915050565b6000614e4e826152ea565b9150614e59836152ea565b9250817f7fffffffffffffffffffffffffffffffffffffffffffffffffffffffffffffff03831360008312151615614e9457614e9361550f565b5b817f8000000000000000000000000000000000000000000000000000000000000000038312600083121615614ecc57614ecb61550f565b5b828201905092915050565b6000614ee282615322565b9150614eed83615322565b9250827fffffffffffffffffffffffffffffffffffffffffffffffffffffffffffffffff03821115614f2257614f2161550f565b5b828201905092915050565b6000614f388261532c565b9150614f438361532c565b92508260ff03821115614f5957614f5861550f565b5b828201905092915050565b6000614f6f826152ea565b9150614f7a836152ea565b925082614f8a57614f8961553e565b5b600160000383147f800000000000000000000000000000000000000000000000000000000000000083141615614fc357614fc261550f565b5b828205905092915050565b6000614fd982615322565b9150614fe483615322565b925082614ff457614ff361553e565b5b828204905092915050565b600061500a826152ea565b9150615015836152ea565b9250827f7fffffffffffffffffffffffffffffffffffffffffffffffffffffffffffffff04821160008413600084131616156150545761505361550f565b5b817f800000000000000000000000000000000000000000000000000000000000000005831260008412600084131616156150915761509061550f565b5b827f800000000000000000000000000000000000000000000000000000000000000005821260008413600084121616156150ce576150cd61550f565b5b827f7fffffffffffffffffffffffffffffffffffffffffffffffffffffffffffffff058212600084126000841216161561510b5761510a61550f565b5b828202905092915050565b600061512182615322565b915061512c83615322565b9250817fffffffffffffffffffffffffffffffffffffffffffffffffffffffffffffffff04831182151516156151655761516461550f565b5b828202905092915050565b600061517b826152ea565b9150615186836152ea565b9250827f8000000000000000000000000000000000000000000000000000000000000000018212600084121516156151c1576151c061550f565b5b827f7fffffffffffffffffffffffffffffffffffffffffffffffffffffffffffffff0182136000841216156151f9576151f861550f565b5b828203905092915050565b600061520f826152f4565b915061521a836152f4565b92508282101561522d5761522c61550f565b5b828203905092915050565b600061524382615322565b915061524e83615322565b9250828210156152615761526061550f565b5b828203905092915050565b60006152778261532c565b91506152828361532c565b9250828210156152955761529461550f565b5b828203905092915050565b60006152ab82615302565b9050919050565b60008115159050919050565b60007fffffffff0000000000000000000000000000000000000000000000000000000082169050919050565b6000819050919050565b600061ffff82169050919050565b600073ffffffffffffffffffffffffffffffffffffffff82169050919050565b6000819050919050565b600060ff82169050919050565b82818337600083830152505050565b60005b8381101561536657808201518184015260208101905061534b565b83811115615375576000848401525b50505050565b6000600282049050600182168061539357607f821691505b602082108114156153a7576153a661556d565b5b50919050565b6153b68261560e565b810181811067ffffffffffffffff821117156153d5576153d46155cb565b5b80604052505050565b60006153e9826152f4565b915061ffff8214156153fe576153fd61550f565b5b600182019050919050565b600061541482615322565b91507fffffffffffffffffffffffffffffffffffffffffffffffffffffffffffffffff8214156154475761544661550f565b5b600182019050919050565b600061545d8261532c565b915060ff8214156154715761547061550f565b5b600182019050919050565b6000615487826152f4565b9150615492836152f4565b9250826154a2576154a161553e565b5b828206905092915050565b60006154b882615322565b91506154c383615322565b9250826154d3576154d261553e565b5b828206905092915050565b60006154e98261532c565b91506154f48361532c565b9250826155045761550361553e565b5b828206905092915050565b7f4e487b7100000000000000000000000000000000000000000000000000000000600052601160045260246000fd5b7f4e487b7100000000000000000000000000000000000000000000000000000000600052601260045260246000fd5b7f4e487b7100000000000000000000000000000000000000000000000000000000600052602260045260246000fd5b7f4e487b7100000000000000000000000000000000000000000000000000000000600052603260045260246000fd5b7f4e487b7100000000000000000000000000000000000000000000000000000000600052604160045260246000fd5b600080fd5b600080fd5b600080fd5b600080fd5b6000601f19601f8301169050919050565b7f4f766572666c6f772070726f74656374696f6e207472696767657265642e0000600082015250565b7f4552433732313a207472616e7366657220746f206e6f6e20455243373231526560008201527f63656976657220696d706c656d656e7465720000000000000000000000000000602082015250565b7f4f776e61626c653a206e6577206f776e657220697320746865207a65726f206160008201527f6464726573730000000000000000000000000000000000000000000000000000602082015250565b7f4552433732313a20746f6b656e20616c7265616479206d696e74656400000000600082015250565b7f4552433732313a207472616e7366657220746f20746865207a65726f2061646460008201527f7265737300000000000000000000000000000000000000000000000000000000602082015250565b7f4552433732313a20617070726f766520746f2063616c6c657200000000000000600082015250565b7f536f6e6720726571756573742071756575652069732066756c6c2e0000000000600082015250565b7f4f6e6520616464726573732063616e206f6e6c7920686f6c64206f6e6520746f60008201527f6b656e2e00000000000000000000000000000000000000000000000000000000602082015250565b7f596f75206861766520746f2073656e6420534f4d452072657061796d656e742060008201527f616d6f756e742e00000000000000000000000000000000000000000000000000602082015250565b7f446562742063616e2774206265206e65676174697665206f7220302e00000000600082015250565b7f4552433732313a206f70657261746f7220717565727920666f72206e6f6e657860008201527f697374656e7420746f6b656e0000000000000000000000000000000000000000602082015250565b7f4552433732313a20617070726f76652063616c6c6572206973206e6f74206f7760008201527f6e6572206e6f7220617070726f76656420666f7220616c6c0000000000000000602082015250565b7f4552433732313a2062616c616e636520717565727920666f7220746865207a6560008201527f726f206164647265737300000000000000000000000000000000000000000000602082015250565b7f4552433732313a206f776e657220717565727920666f72206e6f6e657869737460008201527f656e7420746f6b656e0000000000000000000000000000000000000000000000602082015250565b7f4552433732313a206d696e7420746f20746865207a65726f2061646472657373600082015250565b7f546f6b656e20646f6573206e6f742065786973742e0000000000000000000000600082015250565b7f546f6b656e206973206e6f7420696e20646562742e0000000000000000000000600082015250565b7f4552433732313a20617070726f76656420717565727920666f72206e6f6e657860008201527f697374656e7420746f6b656e0000000000000000000000000000000000000000602082015250565b7f4f776e61626c653a2063616c6c6572206973206e6f7420746865206f776e6572600082015250565b7f4552433732313a207472616e73666572206f6620746f6b656e2074686174206960008201527f73206e6f74206f776e0000000000000000000000000000000000000000000000602082015250565b7f4552433732314d657461646174613a2055524920717565727920666f72206e6f60008201527f6e6578697374656e7420746f6b656e0000000000000000000000000000000000602082015250565b7f4552433732313a20617070726f76616c20746f2063757272656e74206f776e6560008201527f7200000000000000000000000000000000000000000000000000000000000000602082015250565b7f4f6e6c79203130207669702063617264732063616e2065786973742e00000000600082015250565b7f596f75206d757374206265206120746f6b656e20686f6c64657220746f20757360008201527f65207468697320736572766963652e0000000000000000000000000000000000602082015250565b7f4552433732313a207472616e736665722063616c6c6572206973206e6f74206f60008201527f776e6572206e6f7220617070726f766564000000000000000000000000000000602082015250565b7f4552433732314275726e61626c653a2063616c6c6572206973206e6f74206f7760008201527f6e6572206e6f7220617070726f76656400000000000000000000000000000000602082015250565b7f496e73756666696369656e742066756e64732e00000000000000000000000000600082015250565b615cdb816152a0565b8114615ce657600080fd5b50565b615cf2816152b2565b8114615cfd57600080fd5b50565b615d09816152be565b8114615d1457600080fd5b50565b615d20816152ea565b8114615d2b57600080fd5b50565b615d37816152f4565b8114615d4257600080fd5b50565b615d4e81615322565b8114615d5957600080fd5b50565b615d658161532c565b8114615d7057600080fd5b5056fea2646970667358221220e61d6aa8f66f1d4e701d855d393c1f90bd9b6df9c9f9e65fb8072936a99bf71764736f6c63430008070033",
			"opcodes": "PUSH1 0x80 PUSH1 0x40 MSTORE PUSH8 0xDE0B6B3A7640000 PUSH1 0x9 SSTORE PUSH1 0xA DUP1 SSTORE PUSH1 0x14 PUSH1 0x15 PUSH1 0x0 PUSH2 0x100 EXP DUP2 SLOAD DUP2 PUSH1 0xFF MUL NOT AND SWAP1 DUP4 PUSH1 0xFF AND MUL OR SWAP1 SSTORE POP PUSH1 0x0 PUSH1 0x2A PUSH1 0x0 PUSH2 0x100 EXP DUP2 SLOAD DUP2 PUSH1 0xFF MUL NOT AND SWAP1 DUP4 PUSH1 0xFF AND MUL OR SWAP1 SSTORE POP PUSH1 0x0 PUSH1 0x2A PUSH1 0x1 PUSH2 0x100 EXP DUP2 SLOAD DUP2 PUSH1 0xFF MUL NOT AND SWAP1 DUP4 PUSH1 0xFF AND MUL OR SWAP1 SSTORE POP CALLVALUE DUP1 ISZERO PUSH3 0x75 JUMPI PUSH1 0x0 DUP1 REVERT JUMPDEST POP PUSH1 0x40 MLOAD DUP1 PUSH1 0x40 ADD PUSH1 0x40 MSTORE DUP1 PUSH1 0x11 DUP2 MSTORE PUSH1 0x20 ADD PUSH32 0x54686520436C7562205649502043617264000000000000000000000000000000 DUP2 MSTORE POP PUSH1 0x40 MLOAD DUP1 PUSH1 0x40 ADD PUSH1 0x40 MSTORE DUP1 PUSH1 0x4 DUP2 MSTORE PUSH1 0x20 ADD PUSH32 0x5443564300000000000000000000000000000000000000000000000000000000 DUP2 MSTORE POP DUP2 PUSH1 0x0 SWAP1 DUP1 MLOAD SWAP1 PUSH1 0x20 ADD SWAP1 PUSH3 0xFA SWAP3 SWAP2 SWAP1 PUSH3 0x20A JUMP JUMPDEST POP DUP1 PUSH1 0x1 SWAP1 DUP1 MLOAD SWAP1 PUSH1 0x20 ADD SWAP1 PUSH3 0x113 SWAP3 SWAP2 SWAP1 PUSH3 0x20A JUMP JUMPDEST POP POP POP PUSH3 0x136 PUSH3 0x12A PUSH3 0x13C PUSH1 0x20 SHL PUSH1 0x20 SHR JUMP JUMPDEST PUSH3 0x144 PUSH1 0x20 SHL PUSH1 0x20 SHR JUMP JUMPDEST PUSH3 0x31F JUMP JUMPDEST PUSH1 0x0 CALLER SWAP1 POP SWAP1 JUMP JUMPDEST PUSH1 0x0 PUSH1 0x6 PUSH1 0x0 SWAP1 SLOAD SWAP1 PUSH2 0x100 EXP SWAP1 DIV PUSH20 0xFFFFFFFFFFFFFFFFFFFFFFFFFFFFFFFFFFFFFFFF AND SWAP1 POP DUP2 PUSH1 0x6 PUSH1 0x0 PUSH2 0x100 EXP DUP2 SLOAD DUP2 PUSH20 0xFFFFFFFFFFFFFFFFFFFFFFFFFFFFFFFFFFFFFFFF MUL NOT AND SWAP1 DUP4 PUSH20 0xFFFFFFFFFFFFFFFFFFFFFFFFFFFFFFFFFFFFFFFF AND MUL OR SWAP1 SSTORE POP DUP2 PUSH20 0xFFFFFFFFFFFFFFFFFFFFFFFFFFFFFFFFFFFFFFFF AND DUP2 PUSH20 0xFFFFFFFFFFFFFFFFFFFFFFFFFFFFFFFFFFFFFFFF AND PUSH32 0x8BE0079C531659141344CD1FD0A4F28419497F9722A3DAAFE3B4186F6B6457E0 PUSH1 0x40 MLOAD PUSH1 0x40 MLOAD DUP1 SWAP2 SUB SWAP1 LOG3 POP POP JUMP JUMPDEST DUP3 DUP1 SLOAD PUSH3 0x218 SWAP1 PUSH3 0x2BA JUMP JUMPDEST SWAP1 PUSH1 0x0 MSTORE PUSH1 0x20 PUSH1 0x0 KECCAK256 SWAP1 PUSH1 0x1F ADD PUSH1 0x20 SWAP1 DIV DUP2 ADD SWAP3 DUP3 PUSH3 0x23C JUMPI PUSH1 0x0 DUP6 SSTORE PUSH3 0x288 JUMP JUMPDEST DUP3 PUSH1 0x1F LT PUSH3 0x257 JUMPI DUP1 MLOAD PUSH1 0xFF NOT AND DUP4 DUP1 ADD OR DUP6 SSTORE PUSH3 0x288 JUMP JUMPDEST DUP3 DUP1 ADD PUSH1 0x1 ADD DUP6 SSTORE DUP3 ISZERO PUSH3 0x288 JUMPI SWAP2 DUP3 ADD JUMPDEST DUP3 DUP2 GT ISZERO PUSH3 0x287 JUMPI DUP3 MLOAD DUP3 SSTORE SWAP2 PUSH1 0x20 ADD SWAP2 SWAP1 PUSH1 0x1 ADD SWAP1 PUSH3 0x26A JUMP JUMPDEST JUMPDEST POP SWAP1 POP PUSH3 0x297 SWAP2 SWAP1 PUSH3 0x29B JUMP JUMPDEST POP SWAP1 JUMP JUMPDEST JUMPDEST DUP1 DUP3 GT ISZERO PUSH3 0x2B6 JUMPI PUSH1 0x0 DUP2 PUSH1 0x0 SWAP1 SSTORE POP PUSH1 0x1 ADD PUSH3 0x29C JUMP JUMPDEST POP SWAP1 JUMP JUMPDEST PUSH1 0x0 PUSH1 0x2 DUP3 DIV SWAP1 POP PUSH1 0x1 DUP3 AND DUP1 PUSH3 0x2D3 JUMPI PUSH1 0x7F DUP3 AND SWAP2 POP JUMPDEST PUSH1 0x20 DUP3 LT DUP2 EQ ISZERO PUSH3 0x2EA JUMPI PUSH3 0x2E9 PUSH3 0x2F0 JUMP JUMPDEST JUMPDEST POP SWAP2 SWAP1 POP JUMP JUMPDEST PUSH32 0x4E487B7100000000000000000000000000000000000000000000000000000000 PUSH1 0x0 MSTORE PUSH1 0x22 PUSH1 0x4 MSTORE PUSH1 0x24 PUSH1 0x0 REVERT JUMPDEST PUSH2 0x5DA9 DUP1 PUSH3 0x32F PUSH1 0x0 CODECOPY PUSH1 0x0 RETURN INVALID PUSH1 0x80 PUSH1 0x40 MSTORE PUSH1 0x4 CALLDATASIZE LT PUSH2 0x2AD JUMPI PUSH1 0x0 CALLDATALOAD PUSH1 0xE0 SHR DUP1 PUSH4 0x70A08231 GT PUSH2 0x175 JUMPI DUP1 PUSH4 0xA22CB465 GT PUSH2 0xDC JUMPI DUP1 PUSH4 0xBB8F3320 GT PUSH2 0x95 JUMPI DUP1 PUSH4 0xD57BDE79 GT PUSH2 0x6F JUMPI DUP1 PUSH4 0xD57BDE79 EQ PUSH2 0xB31 JUMPI DUP1 PUSH4 0xE985E9C5 EQ PUSH2 0xB5C JUMPI DUP1 PUSH4 0xF2FDE38B EQ PUSH2 0xB99 JUMPI DUP1 PUSH4 0xFA93F883 EQ PUSH2 0xBC2 JUMPI PUSH2 0x2AD JUMP JUMPDEST DUP1 PUSH4 0xBB8F3320 EQ PUSH2 0xA8C JUMPI DUP1 PUSH4 0xC87B56DD EQ PUSH2 0xAB7 JUMPI DUP1 PUSH4 0xC9DD1F3C EQ PUSH2 0xAF4 JUMPI PUSH2 0x2AD JUMP JUMPDEST DUP1 PUSH4 0xA22CB465 EQ PUSH2 0x946 JUMPI DUP1 PUSH4 0xA324AD24 EQ PUSH2 0x96F JUMPI DUP1 PUSH4 0xA6F0E577 EQ PUSH2 0x9AC JUMPI DUP1 PUSH4 0xB1999937 EQ PUSH2 0x9E9 JUMPI DUP1 PUSH4 0xB238AD0E EQ PUSH2 0xA26 JUMPI DUP1 PUSH4 0xB88D4FDE EQ PUSH2 0xA63 JUMPI PUSH2 0x2AD JUMP JUMPDEST DUP1 PUSH4 0x8DA5CB5B GT PUSH2 0x12E JUMPI DUP1 PUSH4 0x8DA5CB5B EQ PUSH2 0x820 JUMPI DUP1 PUSH4 0x9054BDEC EQ PUSH2 0x84B JUMPI DUP1 PUSH4 0x91F90157 EQ PUSH2 0x888 JUMPI DUP1 PUSH4 0x92D66313 EQ PUSH2 0x8B3 JUMPI DUP1 PUSH4 0x95D89B41 EQ PUSH2 0x8F0 JUMPI DUP1 PUSH4 0x991352D0 EQ PUSH2 0x91B JUMPI PUSH2 0x2AD JUMP JUMPDEST DUP1 PUSH4 0x70A08231 EQ PUSH2 0x6D8 JUMPI DUP1 PUSH4 0x715018A6 EQ PUSH2 0x715 JUMPI DUP1 PUSH4 0x7F791833 EQ PUSH2 0x72C JUMPI DUP1 PUSH4 0x8AA001FC EQ PUSH2 0x769 JUMPI DUP1 PUSH4 0x8BCB2B82 EQ PUSH2 0x7A6 JUMPI DUP1 PUSH4 0x8C8D98A0 EQ PUSH2 0x7E3 JUMPI PUSH2 0x2AD JUMP JUMPDEST DUP1 PUSH4 0x3CCFD60B GT PUSH2 0x219 JUMPI DUP1 PUSH4 0x4F245EF7 GT PUSH2 0x1D2 JUMPI DUP1 PUSH4 0x4F245EF7 EQ PUSH2 0x5D4 JUMPI DUP1 PUSH4 0x62BA9687 EQ PUSH2 0x5EB JUMPI DUP1 PUSH4 0x6352211E EQ PUSH2 0x628 JUMPI DUP1 PUSH4 0x65C72840 EQ PUSH2 0x665 JUMPI DUP1 PUSH4 0x6871EE40 EQ PUSH2 0x6A2 JUMPI DUP1 PUSH4 0x6C49C70A EQ PUSH2 0x6AC JUMPI PUSH2 0x2AD JUMP JUMPDEST DUP1 PUSH4 0x3CCFD60B EQ PUSH2 0x4B4 JUMPI DUP1 PUSH4 0x3E239E1A EQ PUSH2 0x4DF JUMPI DUP1 PUSH4 0x42842E0E EQ PUSH2 0x51C JUMPI DUP1 PUSH4 0x42966C68 EQ PUSH2 0x545 JUMPI DUP1 PUSH4 0x44EE6389 EQ PUSH2 0x56E JUMPI DUP1 PUSH4 0x4AC1AD78 EQ PUSH2 0x597 JUMPI PUSH2 0x2AD JUMP JUMPDEST DUP1 PUSH4 0xFB93D34 GT PUSH2 0x26B JUMPI DUP1 PUSH4 0xFB93D34 EQ PUSH2 0x3E6 JUMPI DUP1 PUSH4 0x15140E43 EQ PUSH2 0x411 JUMPI DUP1 PUSH4 0x16FC3297 EQ PUSH2 0x44E JUMPI DUP1 PUSH4 0x1998AEEF EQ PUSH2 0x46A JUMPI DUP1 PUSH4 0x23B872DD EQ PUSH2 0x474 JUMPI DUP1 PUSH4 0x2A24F46C EQ PUSH2 0x49D JUMPI PUSH2 0x2AD JUMP JUMPDEST DUP1 PUSH3 0xF38ADB EQ PUSH2 0x2B2 JUMPI DUP1 PUSH4 0x1FFC9A7 EQ PUSH2 0x2DB JUMPI DUP1 PUSH4 0x6FDDE03 EQ PUSH2 0x318 JUMPI DUP1 PUSH4 0x81812FC EQ PUSH2 0x343 JUMPI DUP1 PUSH4 0x8AC7AD6 EQ PUSH2 0x380 JUMPI DUP1 PUSH4 0x95EA7B3 EQ PUSH2 0x3BD JUMPI JUMPDEST PUSH1 0x0 DUP1 REVERT JUMPDEST CALLVALUE DUP1 ISZERO PUSH2 0x2BE JUMPI PUSH1 0x0 DUP1 REVERT JUMPDEST POP PUSH2 0x2D9 PUSH1 0x4 DUP1 CALLDATASIZE SUB DUP2 ADD SWAP1 PUSH2 0x2D4 SWAP2 SWAP1 PUSH2 0x40D3 JUMP JUMPDEST PUSH2 0xBFF JUMP JUMPDEST STOP JUMPDEST CALLVALUE DUP1 ISZERO PUSH2 0x2E7 JUMPI PUSH1 0x0 DUP1 REVERT JUMPDEST POP PUSH2 0x302 PUSH1 0x4 DUP1 CALLDATASIZE SUB DUP2 ADD SWAP1 PUSH2 0x2FD SWAP2 SWAP1 PUSH2 0x4079 JUMP JUMPDEST PUSH2 0xDD7 JUMP JUMPDEST PUSH1 0x40 MLOAD PUSH2 0x30F SWAP2 SWAP1 PUSH2 0x4947 JUMP JUMPDEST PUSH1 0x40 MLOAD DUP1 SWAP2 SUB SWAP1 RETURN JUMPDEST CALLVALUE DUP1 ISZERO PUSH2 0x324 JUMPI PUSH1 0x0 DUP1 REVERT JUMPDEST POP PUSH2 0x32D PUSH2 0xEB9 JUMP JUMPDEST PUSH1 0x40 MLOAD PUSH2 0x33A SWAP2 SWAP1 PUSH2 0x497D JUMP JUMPDEST PUSH1 0x40 MLOAD DUP1 SWAP2 SUB SWAP1 RETURN JUMPDEST CALLVALUE DUP1 ISZERO PUSH2 0x34F JUMPI PUSH1 0x0 DUP1 REVERT JUMPDEST POP PUSH2 0x36A PUSH1 0x4 DUP1 CALLDATASIZE SUB DUP2 ADD SWAP1 PUSH2 0x365 SWAP2 SWAP1 PUSH2 0x434B JUMP JUMPDEST PUSH2 0xF4B JUMP JUMPDEST PUSH1 0x40 MLOAD PUSH2 0x377 SWAP2 SWAP1 PUSH2 0x48B7 JUMP JUMPDEST PUSH1 0x40 MLOAD DUP1 SWAP2 SUB SWAP1 RETURN JUMPDEST CALLVALUE DUP1 ISZERO PUSH2 0x38C JUMPI PUSH1 0x0 DUP1 REVERT JUMPDEST POP PUSH2 0x3A7 PUSH1 0x4 DUP1 CALLDATASIZE SUB DUP2 ADD SWAP1 PUSH2 0x3A2 SWAP2 SWAP1 PUSH2 0x4378 JUMP JUMPDEST PUSH2 0xFD0 JUMP JUMPDEST PUSH1 0x40 MLOAD PUSH2 0x3B4 SWAP2 SWAP1 PUSH2 0x497D JUMP JUMPDEST PUSH1 0x40 MLOAD DUP1 SWAP2 SUB SWAP1 RETURN JUMPDEST CALLVALUE DUP1 ISZERO PUSH2 0x3C9 JUMPI PUSH1 0x0 DUP1 REVERT JUMPDEST POP PUSH2 0x3E4 PUSH1 0x4 DUP1 CALLDATASIZE SUB DUP2 ADD SWAP1 PUSH2 0x3DF SWAP2 SWAP1 PUSH2 0x4039 JUMP JUMPDEST PUSH2 0x1094 JUMP JUMPDEST STOP JUMPDEST CALLVALUE DUP1 ISZERO PUSH2 0x3F2 JUMPI PUSH1 0x0 DUP1 REVERT JUMPDEST POP PUSH2 0x3FB PUSH2 0x11AC JUMP JUMPDEST PUSH1 0x40 MLOAD PUSH2 0x408 SWAP2 SWAP1 PUSH2 0x497D JUMP JUMPDEST PUSH1 0x40 MLOAD DUP1 SWAP2 SUB SWAP1 RETURN JUMPDEST CALLVALUE DUP1 ISZERO PUSH2 0x41D JUMPI PUSH1 0x0 DUP1 REVERT JUMPDEST POP PUSH2 0x438 PUSH1 0x4 DUP1 CALLDATASIZE SUB DUP2 ADD SWAP1 PUSH2 0x433 SWAP2 SWAP1 PUSH2 0x434B JUMP JUMPDEST PUSH2 0x1335 JUMP JUMPDEST PUSH1 0x40 MLOAD PUSH2 0x445 SWAP2 SWAP1 PUSH2 0x4962 JUMP JUMPDEST PUSH1 0x40 MLOAD DUP1 SWAP2 SUB SWAP1 RETURN JUMPDEST PUSH2 0x468 PUSH1 0x4 DUP1 CALLDATASIZE SUB DUP2 ADD SWAP1 PUSH2 0x463 SWAP2 SWAP1 PUSH2 0x434B JUMP JUMPDEST PUSH2 0x1350 JUMP JUMPDEST STOP JUMPDEST PUSH2 0x472 PUSH2 0x1476 JUMP JUMPDEST STOP JUMPDEST CALLVALUE DUP1 ISZERO PUSH2 0x480 JUMPI PUSH1 0x0 DUP1 REVERT JUMPDEST POP PUSH2 0x49B PUSH1 0x4 DUP1 CALLDATASIZE SUB DUP2 ADD SWAP1 PUSH2 0x496 SWAP2 SWAP1 PUSH2 0x3F23 JUMP JUMPDEST PUSH2 0x16A3 JUMP JUMPDEST STOP JUMPDEST CALLVALUE DUP1 ISZERO PUSH2 0x4A9 JUMPI PUSH1 0x0 DUP1 REVERT JUMPDEST POP PUSH2 0x4B2 PUSH2 0x1703 JUMP JUMPDEST STOP JUMPDEST CALLVALUE DUP1 ISZERO PUSH2 0x4C0 JUMPI PUSH1 0x0 DUP1 REVERT JUMPDEST POP PUSH2 0x4C9 PUSH2 0x183F JUMP JUMPDEST PUSH1 0x40 MLOAD PUSH2 0x4D6 SWAP2 SWAP1 PUSH2 0x4947 JUMP JUMPDEST PUSH1 0x40 MLOAD DUP1 SWAP2 SUB SWAP1 RETURN JUMPDEST CALLVALUE DUP1 ISZERO PUSH2 0x4EB JUMPI PUSH1 0x0 DUP1 REVERT JUMPDEST POP PUSH2 0x506 PUSH1 0x4 DUP1 CALLDATASIZE SUB DUP2 ADD SWAP1 PUSH2 0x501 SWAP2 SWAP1 PUSH2 0x434B JUMP JUMPDEST PUSH2 0x1963 JUMP JUMPDEST PUSH1 0x40 MLOAD PUSH2 0x513 SWAP2 SWAP1 PUSH2 0x4D35 JUMP JUMPDEST PUSH1 0x40 MLOAD DUP1 SWAP2 SUB SWAP1 RETURN JUMPDEST CALLVALUE DUP1 ISZERO PUSH2 0x528 JUMPI PUSH1 0x0 DUP1 REVERT JUMPDEST POP PUSH2 0x543 PUSH1 0x4 DUP1 CALLDATASIZE SUB DUP2 ADD SWAP1 PUSH2 0x53E SWAP2 SWAP1 PUSH2 0x3F23 JUMP JUMPDEST PUSH2 0x1990 JUMP JUMPDEST STOP JUMPDEST CALLVALUE DUP1 ISZERO PUSH2 0x551 JUMPI PUSH1 0x0 DUP1 REVERT JUMPDEST POP PUSH2 0x56C PUSH1 0x4 DUP1 CALLDATASIZE SUB DUP2 ADD SWAP1 PUSH2 0x567 SWAP2 SWAP1 PUSH2 0x434B JUMP JUMPDEST PUSH2 0x19B0 JUMP JUMPDEST STOP JUMPDEST CALLVALUE DUP1 ISZERO PUSH2 0x57A JUMPI PUSH1 0x0 DUP1 REVERT JUMPDEST POP PUSH2 0x595 PUSH1 0x4 DUP1 CALLDATASIZE SUB DUP2 ADD SWAP1 PUSH2 0x590 SWAP2 SWAP1 PUSH2 0x4113 JUMP JUMPDEST PUSH2 0x1A0C JUMP JUMPDEST STOP JUMPDEST CALLVALUE DUP1 ISZERO PUSH2 0x5A3 JUMPI PUSH1 0x0 DUP1 REVERT JUMPDEST POP PUSH2 0x5BE PUSH1 0x4 DUP1 CALLDATASIZE SUB DUP2 ADD SWAP1 PUSH2 0x5B9 SWAP2 SWAP1 PUSH2 0x434B JUMP JUMPDEST PUSH2 0x1B73 JUMP JUMPDEST PUSH1 0x40 MLOAD PUSH2 0x5CB SWAP2 SWAP1 PUSH2 0x4D35 JUMP JUMPDEST PUSH1 0x40 MLOAD DUP1 SWAP2 SUB SWAP1 RETURN JUMPDEST CALLVALUE DUP1 ISZERO PUSH2 0x5E0 JUMPI PUSH1 0x0 DUP1 REVERT JUMPDEST POP PUSH2 0x5E9 PUSH2 0x1BA3 JUMP JUMPDEST STOP JUMPDEST CALLVALUE DUP1 ISZERO PUSH2 0x5F7 JUMPI PUSH1 0x0 DUP1 REVERT JUMPDEST POP PUSH2 0x612 PUSH1 0x4 DUP1 CALLDATASIZE SUB DUP2 ADD SWAP1 PUSH2 0x60D SWAP2 SWAP1 PUSH2 0x4243 JUMP JUMPDEST PUSH2 0x1D56 JUMP JUMPDEST PUSH1 0x40 MLOAD PUSH2 0x61F SWAP2 SWAP1 PUSH2 0x4D1A JUMP JUMPDEST PUSH1 0x40 MLOAD DUP1 SWAP2 SUB SWAP1 RETURN JUMPDEST CALLVALUE DUP1 ISZERO PUSH2 0x634 JUMPI PUSH1 0x0 DUP1 REVERT JUMPDEST POP PUSH2 0x64F PUSH1 0x4 DUP1 CALLDATASIZE SUB DUP2 ADD SWAP1 PUSH2 0x64A SWAP2 SWAP1 PUSH2 0x434B JUMP JUMPDEST PUSH2 0x1D72 JUMP JUMPDEST PUSH1 0x40 MLOAD PUSH2 0x65C SWAP2 SWAP1 PUSH2 0x48B7 JUMP JUMPDEST PUSH1 0x40 MLOAD DUP1 SWAP2 SUB SWAP1 RETURN JUMPDEST CALLVALUE DUP1 ISZERO PUSH2 0x671 JUMPI PUSH1 0x0 DUP1 REVERT JUMPDEST POP PUSH2 0x68C PUSH1 0x4 DUP1 CALLDATASIZE SUB DUP2 ADD SWAP1 PUSH2 0x687 SWAP2 SWAP1 PUSH2 0x434B JUMP JUMPDEST PUSH2 0x1E24 JUMP JUMPDEST PUSH1 0x40 MLOAD PUSH2 0x699 SWAP2 SWAP1 PUSH2 0x4D35 JUMP JUMPDEST PUSH1 0x40 MLOAD DUP1 SWAP2 SUB SWAP1 RETURN JUMPDEST PUSH2 0x6AA PUSH2 0x1E3A JUMP JUMPDEST STOP JUMPDEST CALLVALUE DUP1 ISZERO PUSH2 0x6B8 JUMPI PUSH1 0x0 DUP1 REVERT JUMPDEST POP PUSH2 0x6C1 PUSH2 0x1F35 JUMP JUMPDEST PUSH1 0x40 MLOAD PUSH2 0x6CF SWAP3 SWAP2 SWAP1 PUSH2 0x4D50 JUMP JUMPDEST PUSH1 0x40 MLOAD DUP1 SWAP2 SUB SWAP1 RETURN JUMPDEST CALLVALUE DUP1 ISZERO PUSH2 0x6E4 JUMPI PUSH1 0x0 DUP1 REVERT JUMPDEST POP PUSH2 0x6FF PUSH1 0x4 DUP1 CALLDATASIZE SUB DUP2 ADD SWAP1 PUSH2 0x6FA SWAP2 SWAP1 PUSH2 0x3EB6 JUMP JUMPDEST PUSH2 0x1F60 JUMP JUMPDEST PUSH1 0x40 MLOAD PUSH2 0x70C SWAP2 SWAP1 PUSH2 0x4D1A JUMP JUMPDEST PUSH1 0x40 MLOAD DUP1 SWAP2 SUB SWAP1 RETURN JUMPDEST CALLVALUE DUP1 ISZERO PUSH2 0x721 JUMPI PUSH1 0x0 DUP1 REVERT JUMPDEST POP PUSH2 0x72A PUSH2 0x2018 JUMP JUMPDEST STOP JUMPDEST CALLVALUE DUP1 ISZERO PUSH2 0x738 JUMPI PUSH1 0x0 DUP1 REVERT JUMPDEST POP PUSH2 0x753 PUSH1 0x4 DUP1 CALLDATASIZE SUB DUP2 ADD SWAP1 PUSH2 0x74E SWAP2 SWAP1 PUSH2 0x41DC JUMP JUMPDEST PUSH2 0x20A0 JUMP JUMPDEST PUSH1 0x40 MLOAD PUSH2 0x760 SWAP2 SWAP1 PUSH2 0x4D1A JUMP JUMPDEST PUSH1 0x40 MLOAD DUP1 SWAP2 SUB SWAP1 RETURN JUMPDEST CALLVALUE DUP1 ISZERO PUSH2 0x775 JUMPI PUSH1 0x0 DUP1 REVERT JUMPDEST POP PUSH2 0x790 PUSH1 0x4 DUP1 CALLDATASIZE SUB DUP2 ADD SWAP1 PUSH2 0x78B SWAP2 SWAP1 PUSH2 0x434B JUMP JUMPDEST PUSH2 0x20BB JUMP JUMPDEST PUSH1 0x40 MLOAD PUSH2 0x79D SWAP2 SWAP1 PUSH2 0x4D35 JUMP JUMPDEST PUSH1 0x40 MLOAD DUP1 SWAP2 SUB SWAP1 RETURN JUMPDEST CALLVALUE DUP1 ISZERO PUSH2 0x7B2 JUMPI PUSH1 0x0 DUP1 REVERT JUMPDEST POP PUSH2 0x7CD PUSH1 0x4 DUP1 CALLDATASIZE SUB DUP2 ADD SWAP1 PUSH2 0x7C8 SWAP2 SWAP1 PUSH2 0x434B JUMP JUMPDEST PUSH2 0x20D1 JUMP JUMPDEST PUSH1 0x40 MLOAD PUSH2 0x7DA SWAP2 SWAP1 PUSH2 0x497D JUMP JUMPDEST PUSH1 0x40 MLOAD DUP1 SWAP2 SUB SWAP1 RETURN JUMPDEST CALLVALUE DUP1 ISZERO PUSH2 0x7EF JUMPI PUSH1 0x0 DUP1 REVERT JUMPDEST POP PUSH2 0x80A PUSH1 0x4 DUP1 CALLDATASIZE SUB DUP2 ADD SWAP1 PUSH2 0x805 SWAP2 SWAP1 PUSH2 0x4189 JUMP JUMPDEST PUSH2 0x2174 JUMP JUMPDEST PUSH1 0x40 MLOAD PUSH2 0x817 SWAP2 SWAP1 PUSH2 0x4D1A JUMP JUMPDEST PUSH1 0x40 MLOAD DUP1 SWAP2 SUB SWAP1 RETURN JUMPDEST CALLVALUE DUP1 ISZERO PUSH2 0x82C JUMPI PUSH1 0x0 DUP1 REVERT JUMPDEST POP PUSH2 0x835 PUSH2 0x218F JUMP JUMPDEST PUSH1 0x40 MLOAD PUSH2 0x842 SWAP2 SWAP1 PUSH2 0x48B7 JUMP JUMPDEST PUSH1 0x40 MLOAD DUP1 SWAP2 SUB SWAP1 RETURN JUMPDEST CALLVALUE DUP1 ISZERO PUSH2 0x857 JUMPI PUSH1 0x0 DUP1 REVERT JUMPDEST POP PUSH2 0x872 PUSH1 0x4 DUP1 CALLDATASIZE SUB DUP2 ADD SWAP1 PUSH2 0x86D SWAP2 SWAP1 PUSH2 0x42BE JUMP JUMPDEST PUSH2 0x21B9 JUMP JUMPDEST PUSH1 0x40 MLOAD PUSH2 0x87F SWAP2 SWAP1 PUSH2 0x4D1A JUMP JUMPDEST PUSH1 0x40 MLOAD DUP1 SWAP2 SUB SWAP1 RETURN JUMPDEST CALLVALUE DUP1 ISZERO PUSH2 0x894 JUMPI PUSH1 0x0 DUP1 REVERT JUMPDEST POP PUSH2 0x89D PUSH2 0x2524 JUMP JUMPDEST PUSH1 0x40 MLOAD PUSH2 0x8AA SWAP2 SWAP1 PUSH2 0x48B7 JUMP JUMPDEST PUSH1 0x40 MLOAD DUP1 SWAP2 SUB SWAP1 RETURN JUMPDEST CALLVALUE DUP1 ISZERO PUSH2 0x8BF JUMPI PUSH1 0x0 DUP1 REVERT JUMPDEST POP PUSH2 0x8DA PUSH1 0x4 DUP1 CALLDATASIZE SUB DUP2 ADD SWAP1 PUSH2 0x8D5 SWAP2 SWAP1 PUSH2 0x434B JUMP JUMPDEST PUSH2 0x254A JUMP JUMPDEST PUSH1 0x40 MLOAD PUSH2 0x8E7 SWAP2 SWAP1 PUSH2 0x4CFF JUMP JUMPDEST PUSH1 0x40 MLOAD DUP1 SWAP2 SUB SWAP1 RETURN JUMPDEST CALLVALUE DUP1 ISZERO PUSH2 0x8FC JUMPI PUSH1 0x0 DUP1 REVERT JUMPDEST POP PUSH2 0x905 PUSH2 0x2661 JUMP JUMPDEST PUSH1 0x40 MLOAD PUSH2 0x912 SWAP2 SWAP1 PUSH2 0x497D JUMP JUMPDEST PUSH1 0x40 MLOAD DUP1 SWAP2 SUB SWAP1 RETURN JUMPDEST CALLVALUE DUP1 ISZERO PUSH2 0x927 JUMPI PUSH1 0x0 DUP1 REVERT JUMPDEST POP PUSH2 0x930 PUSH2 0x26F3 JUMP JUMPDEST PUSH1 0x40 MLOAD PUSH2 0x93D SWAP2 SWAP1 PUSH2 0x4962 JUMP JUMPDEST PUSH1 0x40 MLOAD DUP1 SWAP2 SUB SWAP1 RETURN JUMPDEST CALLVALUE DUP1 ISZERO PUSH2 0x952 JUMPI PUSH1 0x0 DUP1 REVERT JUMPDEST POP PUSH2 0x96D PUSH1 0x4 DUP1 CALLDATASIZE SUB DUP2 ADD SWAP1 PUSH2 0x968 SWAP2 SWAP1 PUSH2 0x3FF9 JUMP JUMPDEST PUSH2 0x2720 JUMP JUMPDEST STOP JUMPDEST CALLVALUE DUP1 ISZERO PUSH2 0x97B JUMPI PUSH1 0x0 DUP1 REVERT JUMPDEST POP PUSH2 0x996 PUSH1 0x4 DUP1 CALLDATASIZE SUB DUP2 ADD SWAP1 PUSH2 0x991 SWAP2 SWAP1 PUSH2 0x434B JUMP JUMPDEST PUSH2 0x28A1 JUMP JUMPDEST PUSH1 0x40 MLOAD PUSH2 0x9A3 SWAP2 SWAP1 PUSH2 0x4D35 JUMP JUMPDEST PUSH1 0x40 MLOAD DUP1 SWAP2 SUB SWAP1 RETURN JUMPDEST CALLVALUE DUP1 ISZERO PUSH2 0x9B8 JUMPI PUSH1 0x0 DUP1 REVERT JUMPDEST POP PUSH2 0x9D3 PUSH1 0x4 DUP1 CALLDATASIZE SUB DUP2 ADD SWAP1 PUSH2 0x9CE SWAP2 SWAP1 PUSH2 0x415C JUMP JUMPDEST PUSH2 0x28B7 JUMP JUMPDEST PUSH1 0x40 MLOAD PUSH2 0x9E0 SWAP2 SWAP1 PUSH2 0x4947 JUMP JUMPDEST PUSH1 0x40 MLOAD DUP1 SWAP2 SUB SWAP1 RETURN JUMPDEST CALLVALUE DUP1 ISZERO PUSH2 0x9F5 JUMPI PUSH1 0x0 DUP1 REVERT JUMPDEST POP PUSH2 0xA10 PUSH1 0x4 DUP1 CALLDATASIZE SUB DUP2 ADD SWAP1 PUSH2 0xA0B SWAP2 SWAP1 PUSH2 0x434B JUMP JUMPDEST PUSH2 0x2926 JUMP JUMPDEST PUSH1 0x40 MLOAD PUSH2 0xA1D SWAP2 SWAP1 PUSH2 0x4D1A JUMP JUMPDEST PUSH1 0x40 MLOAD DUP1 SWAP2 SUB SWAP1 RETURN JUMPDEST CALLVALUE DUP1 ISZERO PUSH2 0xA32 JUMPI PUSH1 0x0 DUP1 REVERT JUMPDEST POP PUSH2 0xA4D PUSH1 0x4 DUP1 CALLDATASIZE SUB DUP2 ADD SWAP1 PUSH2 0xA48 SWAP2 SWAP1 PUSH2 0x43A5 JUMP JUMPDEST PUSH2 0x297A JUMP JUMPDEST PUSH1 0x40 MLOAD PUSH2 0xA5A SWAP2 SWAP1 PUSH2 0x4D35 JUMP JUMPDEST PUSH1 0x40 MLOAD DUP1 SWAP2 SUB SWAP1 RETURN JUMPDEST CALLVALUE DUP1 ISZERO PUSH2 0xA6F JUMPI PUSH1 0x0 DUP1 REVERT JUMPDEST POP PUSH2 0xA8A PUSH1 0x4 DUP1 CALLDATASIZE SUB DUP2 ADD SWAP1 PUSH2 0xA85 SWAP2 SWAP1 PUSH2 0x3F76 JUMP JUMPDEST PUSH2 0x2A46 JUMP JUMPDEST STOP JUMPDEST CALLVALUE DUP1 ISZERO PUSH2 0xA98 JUMPI PUSH1 0x0 DUP1 REVERT JUMPDEST POP PUSH2 0xAA1 PUSH2 0x2AA8 JUMP JUMPDEST PUSH1 0x40 MLOAD PUSH2 0xAAE SWAP2 SWAP1 PUSH2 0x4D35 JUMP JUMPDEST PUSH1 0x40 MLOAD DUP1 SWAP2 SUB SWAP1 RETURN JUMPDEST CALLVALUE DUP1 ISZERO PUSH2 0xAC3 JUMPI PUSH1 0x0 DUP1 REVERT JUMPDEST POP PUSH2 0xADE PUSH1 0x4 DUP1 CALLDATASIZE SUB DUP2 ADD SWAP1 PUSH2 0xAD9 SWAP2 SWAP1 PUSH2 0x434B JUMP JUMPDEST PUSH2 0x2ABF JUMP JUMPDEST PUSH1 0x40 MLOAD PUSH2 0xAEB SWAP2 SWAP1 PUSH2 0x497D JUMP JUMPDEST PUSH1 0x40 MLOAD DUP1 SWAP2 SUB SWAP1 RETURN JUMPDEST CALLVALUE DUP1 ISZERO PUSH2 0xB00 JUMPI PUSH1 0x0 DUP1 REVERT JUMPDEST POP PUSH2 0xB1B PUSH1 0x4 DUP1 CALLDATASIZE SUB DUP2 ADD SWAP1 PUSH2 0xB16 SWAP2 SWAP1 PUSH2 0x434B JUMP JUMPDEST PUSH2 0x2B66 JUMP JUMPDEST PUSH1 0x40 MLOAD PUSH2 0xB28 SWAP2 SWAP1 PUSH2 0x4962 JUMP JUMPDEST PUSH1 0x40 MLOAD DUP1 SWAP2 SUB SWAP1 RETURN JUMPDEST CALLVALUE DUP1 ISZERO PUSH2 0xB3D JUMPI PUSH1 0x0 DUP1 REVERT JUMPDEST POP PUSH2 0xB46 PUSH2 0x2B85 JUMP JUMPDEST PUSH1 0x40 MLOAD PUSH2 0xB53 SWAP2 SWAP1 PUSH2 0x4D1A JUMP JUMPDEST PUSH1 0x40 MLOAD DUP1 SWAP2 SUB SWAP1 RETURN JUMPDEST CALLVALUE DUP1 ISZERO PUSH2 0xB68 JUMPI PUSH1 0x0 DUP1 REVERT JUMPDEST POP PUSH2 0xB83 PUSH1 0x4 DUP1 CALLDATASIZE SUB DUP2 ADD SWAP1 PUSH2 0xB7E SWAP2 SWAP1 PUSH2 0x3EE3 JUMP JUMPDEST PUSH2 0x2B8B JUMP JUMPDEST PUSH1 0x40 MLOAD PUSH2 0xB90 SWAP2 SWAP1 PUSH2 0x4947 JUMP JUMPDEST PUSH1 0x40 MLOAD DUP1 SWAP2 SUB SWAP1 RETURN JUMPDEST CALLVALUE DUP1 ISZERO PUSH2 0xBA5 JUMPI PUSH1 0x0 DUP1 REVERT JUMPDEST POP PUSH2 0xBC0 PUSH1 0x4 DUP1 CALLDATASIZE SUB DUP2 ADD SWAP1 PUSH2 0xBBB SWAP2 SWAP1 PUSH2 0x3EB6 JUMP JUMPDEST PUSH2 0x2C1F JUMP JUMPDEST STOP JUMPDEST CALLVALUE DUP1 ISZERO PUSH2 0xBCE JUMPI PUSH1 0x0 DUP1 REVERT JUMPDEST POP PUSH2 0xBE9 PUSH1 0x4 DUP1 CALLDATASIZE SUB DUP2 ADD SWAP1 PUSH2 0xBE4 SWAP2 SWAP1 PUSH2 0x434B JUMP JUMPDEST PUSH2 0x2D17 JUMP JUMPDEST PUSH1 0x40 MLOAD PUSH2 0xBF6 SWAP2 SWAP1 PUSH2 0x4D35 JUMP JUMPDEST PUSH1 0x40 MLOAD DUP1 SWAP2 SUB SWAP1 RETURN JUMPDEST PUSH2 0xC07 PUSH2 0x2D38 JUMP JUMPDEST PUSH20 0xFFFFFFFFFFFFFFFFFFFFFFFFFFFFFFFFFFFFFFFF AND PUSH2 0xC25 PUSH2 0x218F JUMP JUMPDEST PUSH20 0xFFFFFFFFFFFFFFFFFFFFFFFFFFFFFFFFFFFFFFFF AND EQ PUSH2 0xC7B JUMPI PUSH1 0x40 MLOAD PUSH32 0x8C379A000000000000000000000000000000000000000000000000000000000 DUP2 MSTORE PUSH1 0x4 ADD PUSH2 0xC72 SWAP1 PUSH2 0x4BDF JUMP JUMPDEST PUSH1 0x40 MLOAD DUP1 SWAP2 SUB SWAP1 REVERT JUMPDEST PUSH1 0x0 DUP3 SGT PUSH2 0xCBE JUMPI PUSH1 0x40 MLOAD PUSH32 0x8C379A000000000000000000000000000000000000000000000000000000000 DUP2 MSTORE PUSH1 0x4 ADD PUSH2 0xCB5 SWAP1 PUSH2 0x4ABF JUMP JUMPDEST PUSH1 0x40 MLOAD DUP1 SWAP2 SUB SWAP1 REVERT JUMPDEST PUSH2 0xCC8 PUSH1 0x7 PUSH2 0x2D40 JUMP JUMPDEST DUP2 LT PUSH2 0xD09 JUMPI PUSH1 0x40 MLOAD PUSH32 0x8C379A000000000000000000000000000000000000000000000000000000000 DUP2 MSTORE PUSH1 0x4 ADD PUSH2 0xD00 SWAP1 PUSH2 0x4B7F JUMP JUMPDEST PUSH1 0x40 MLOAD DUP1 SWAP2 SUB SWAP1 REVERT JUMPDEST PUSH1 0x0 PUSH1 0xB DUP3 PUSH1 0xA DUP2 LT PUSH2 0xD1F JUMPI PUSH2 0xD1E PUSH2 0x559C JUMP JUMPDEST JUMPDEST ADD SLOAD SWAP1 POP PUSH1 0x0 DUP4 PUSH2 0xD2E PUSH2 0x26F3 JUMP JUMPDEST PUSH2 0xD38 SWAP2 SWAP1 PUSH2 0x4FFF JUMP JUMPDEST SWAP1 POP PUSH1 0x0 PUSH1 0xA SLOAD PUSH1 0x64 DUP4 PUSH2 0xD4C SWAP2 SWAP1 PUSH2 0x4F64 JUMP JUMPDEST PUSH2 0xD56 SWAP2 SWAP1 PUSH2 0x4FFF JUMP JUMPDEST DUP3 PUSH2 0xD61 SWAP2 SWAP1 PUSH2 0x5170 JUMP JUMPDEST SWAP1 POP PUSH1 0x0 DUP2 DUP5 PUSH2 0xD71 SWAP2 SWAP1 PUSH2 0x5170 JUMP JUMPDEST SWAP1 POP DUP4 DUP2 SLT PUSH2 0xDB5 JUMPI PUSH1 0x40 MLOAD PUSH32 0x8C379A000000000000000000000000000000000000000000000000000000000 DUP2 MSTORE PUSH1 0x4 ADD PUSH2 0xDAC SWAP1 PUSH2 0x499F JUMP JUMPDEST PUSH1 0x40 MLOAD DUP1 SWAP2 SUB SWAP1 REVERT JUMPDEST DUP1 PUSH1 0xB DUP7 PUSH1 0xA DUP2 LT PUSH2 0xDCA JUMPI PUSH2 0xDC9 PUSH2 0x559C JUMP JUMPDEST JUMPDEST ADD DUP2 SWAP1 SSTORE POP POP POP POP POP POP POP JUMP JUMPDEST PUSH1 0x0 PUSH32 0x80AC58CD00000000000000000000000000000000000000000000000000000000 PUSH28 0xFFFFFFFFFFFFFFFFFFFFFFFFFFFFFFFFFFFFFFFFFFFFFFFFFFFFFFFF NOT AND DUP3 PUSH28 0xFFFFFFFFFFFFFFFFFFFFFFFFFFFFFFFFFFFFFFFFFFFFFFFFFFFFFFFF NOT AND EQ DUP1 PUSH2 0xEA2 JUMPI POP PUSH32 0x5B5E139F00000000000000000000000000000000000000000000000000000000 PUSH28 0xFFFFFFFFFFFFFFFFFFFFFFFFFFFFFFFFFFFFFFFFFFFFFFFFFFFFFFFF NOT AND DUP3 PUSH28 0xFFFFFFFFFFFFFFFFFFFFFFFFFFFFFFFFFFFFFFFFFFFFFFFFFFFFFFFF NOT AND EQ JUMPDEST DUP1 PUSH2 0xEB2 JUMPI POP PUSH2 0xEB1 DUP3 PUSH2 0x2D4E JUMP JUMPDEST JUMPDEST SWAP1 POP SWAP2 SWAP1 POP JUMP JUMPDEST PUSH1 0x60 PUSH1 0x0 DUP1 SLOAD PUSH2 0xEC8 SWAP1 PUSH2 0x537B JUMP JUMPDEST DUP1 PUSH1 0x1F ADD PUSH1 0x20 DUP1 SWAP2 DIV MUL PUSH1 0x20 ADD PUSH1 0x40 MLOAD SWAP1 DUP2 ADD PUSH1 0x40 MSTORE DUP1 SWAP3 SWAP2 SWAP1 DUP2 DUP2 MSTORE PUSH1 0x20 ADD DUP3 DUP1 SLOAD PUSH2 0xEF4 SWAP1 PUSH2 0x537B JUMP JUMPDEST DUP1 ISZERO PUSH2 0xF41 JUMPI DUP1 PUSH1 0x1F LT PUSH2 0xF16 JUMPI PUSH2 0x100 DUP1 DUP4 SLOAD DIV MUL DUP4 MSTORE SWAP2 PUSH1 0x20 ADD SWAP2 PUSH2 0xF41 JUMP JUMPDEST DUP3 ADD SWAP2 SWAP1 PUSH1 0x0 MSTORE PUSH1 0x20 PUSH1 0x0 KECCAK256 SWAP1 JUMPDEST DUP2 SLOAD DUP2 MSTORE SWAP1 PUSH1 0x1 ADD SWAP1 PUSH1 0x20 ADD DUP1 DUP4 GT PUSH2 0xF24 JUMPI DUP3 SWAP1 SUB PUSH1 0x1F AND DUP3 ADD SWAP2 JUMPDEST POP POP POP POP POP SWAP1 POP SWAP1 JUMP JUMPDEST PUSH1 0x0 PUSH2 0xF56 DUP3 PUSH2 0x2DB8 JUMP JUMPDEST PUSH2 0xF95 JUMPI PUSH1 0x40 MLOAD PUSH32 0x8C379A000000000000000000000000000000000000000000000000000000000 DUP2 MSTORE PUSH1 0x4 ADD PUSH2 0xF8C SWAP1 PUSH2 0x4BBF JUMP JUMPDEST PUSH1 0x40 MLOAD DUP1 SWAP2 SUB SWAP1 REVERT JUMPDEST PUSH1 0x4 PUSH1 0x0 DUP4 DUP2 MSTORE PUSH1 0x20 ADD SWAP1 DUP2 MSTORE PUSH1 0x20 ADD PUSH1 0x0 KECCAK256 PUSH1 0x0 SWAP1 SLOAD SWAP1 PUSH2 0x100 EXP SWAP1 DIV PUSH20 0xFFFFFFFFFFFFFFFFFFFFFFFFFFFFFFFFFFFFFFFF AND SWAP1 POP SWAP2 SWAP1 POP JUMP JUMPDEST PUSH1 0x60 PUSH1 0x16 PUSH1 0x15 PUSH1 0x0 SWAP1 SLOAD SWAP1 PUSH2 0x100 EXP SWAP1 DIV PUSH1 0xFF AND DUP4 PUSH2 0xFEF SWAP2 SWAP1 PUSH2 0x54DE JUMP JUMPDEST PUSH1 0xFF AND PUSH1 0x14 DUP2 LT PUSH2 0x1003 JUMPI PUSH2 0x1002 PUSH2 0x559C JUMP JUMPDEST JUMPDEST ADD DUP1 SLOAD PUSH2 0x100F SWAP1 PUSH2 0x537B JUMP JUMPDEST DUP1 PUSH1 0x1F ADD PUSH1 0x20 DUP1 SWAP2 DIV MUL PUSH1 0x20 ADD PUSH1 0x40 MLOAD SWAP1 DUP2 ADD PUSH1 0x40 MSTORE DUP1 SWAP3 SWAP2 SWAP1 DUP2 DUP2 MSTORE PUSH1 0x20 ADD DUP3 DUP1 SLOAD PUSH2 0x103B SWAP1 PUSH2 0x537B JUMP JUMPDEST DUP1 ISZERO PUSH2 0x1088 JUMPI DUP1 PUSH1 0x1F LT PUSH2 0x105D JUMPI PUSH2 0x100 DUP1 DUP4 SLOAD DIV MUL DUP4 MSTORE SWAP2 PUSH1 0x20 ADD SWAP2 PUSH2 0x1088 JUMP JUMPDEST DUP3 ADD SWAP2 SWAP1 PUSH1 0x0 MSTORE PUSH1 0x20 PUSH1 0x0 KECCAK256 SWAP1 JUMPDEST DUP2 SLOAD DUP2 MSTORE SWAP1 PUSH1 0x1 ADD SWAP1 PUSH1 0x20 ADD DUP1 DUP4 GT PUSH2 0x106B JUMPI DUP3 SWAP1 SUB PUSH1 0x1F AND DUP3 ADD SWAP2 JUMPDEST POP POP POP POP POP SWAP1 POP SWAP2 SWAP1 POP JUMP JUMPDEST PUSH1 0x0 PUSH2 0x109F DUP3 PUSH2 0x1D72 JUMP JUMPDEST SWAP1 POP DUP1 PUSH20 0xFFFFFFFFFFFFFFFFFFFFFFFFFFFFFFFFFFFFFFFF AND DUP4 PUSH20 0xFFFFFFFFFFFFFFFFFFFFFFFFFFFFFFFFFFFFFFFF AND EQ ISZERO PUSH2 0x1110 JUMPI PUSH1 0x40 MLOAD PUSH32 0x8C379A000000000000000000000000000000000000000000000000000000000 DUP2 MSTORE PUSH1 0x4 ADD PUSH2 0x1107 SWAP1 PUSH2 0x4C3F JUMP JUMPDEST PUSH1 0x40 MLOAD DUP1 SWAP2 SUB SWAP1 REVERT JUMPDEST DUP1 PUSH20 0xFFFFFFFFFFFFFFFFFFFFFFFFFFFFFFFFFFFFFFFF AND PUSH2 0x112F PUSH2 0x2D38 JUMP JUMPDEST PUSH20 0xFFFFFFFFFFFFFFFFFFFFFFFFFFFFFFFFFFFFFFFF AND EQ DUP1 PUSH2 0x115E JUMPI POP PUSH2 0x115D DUP2 PUSH2 0x1158 PUSH2 0x2D38 JUMP JUMPDEST PUSH2 0x2B8B JUMP JUMPDEST JUMPDEST PUSH2 0x119D JUMPI PUSH1 0x40 MLOAD PUSH32 0x8C379A000000000000000000000000000000000000000000000000000000000 DUP2 MSTORE PUSH1 0x4 ADD PUSH2 0x1194 SWAP1 PUSH2 0x4AFF JUMP JUMPDEST PUSH1 0x40 MLOAD DUP1 SWAP2 SUB SWAP1 REVERT JUMPDEST PUSH2 0x11A7 DUP4 DUP4 PUSH2 0x2E24 JUMP JUMPDEST POP POP POP JUMP JUMPDEST PUSH1 0x60 PUSH2 0x11B6 PUSH2 0x2D38 JUMP JUMPDEST PUSH20 0xFFFFFFFFFFFFFFFFFFFFFFFFFFFFFFFFFFFFFFFF AND PUSH2 0x11D4 PUSH2 0x218F JUMP JUMPDEST PUSH20 0xFFFFFFFFFFFFFFFFFFFFFFFFFFFFFFFFFFFFFFFF AND EQ PUSH2 0x122A JUMPI PUSH1 0x40 MLOAD PUSH32 0x8C379A000000000000000000000000000000000000000000000000000000000 DUP2 MSTORE PUSH1 0x4 ADD PUSH2 0x1221 SWAP1 PUSH2 0x4BDF JUMP JUMPDEST PUSH1 0x40 MLOAD DUP1 SWAP2 SUB SWAP1 REVERT JUMPDEST PUSH1 0x0 PUSH1 0x16 PUSH1 0x2A PUSH1 0x1 SWAP1 SLOAD SWAP1 PUSH2 0x100 EXP SWAP1 DIV PUSH1 0xFF AND PUSH1 0xFF AND PUSH1 0x14 DUP2 LT PUSH2 0x1252 JUMPI PUSH2 0x1251 PUSH2 0x559C JUMP JUMPDEST JUMPDEST ADD DUP1 SLOAD PUSH2 0x125E SWAP1 PUSH2 0x537B JUMP JUMPDEST DUP1 PUSH1 0x1F ADD PUSH1 0x20 DUP1 SWAP2 DIV MUL PUSH1 0x20 ADD PUSH1 0x40 MLOAD SWAP1 DUP2 ADD PUSH1 0x40 MSTORE DUP1 SWAP3 SWAP2 SWAP1 DUP2 DUP2 MSTORE PUSH1 0x20 ADD DUP3 DUP1 SLOAD PUSH2 0x128A SWAP1 PUSH2 0x537B JUMP JUMPDEST DUP1 ISZERO PUSH2 0x12D7 JUMPI DUP1 PUSH1 0x1F LT PUSH2 0x12AC JUMPI PUSH2 0x100 DUP1 DUP4 SLOAD DIV MUL DUP4 MSTORE SWAP2 PUSH1 0x20 ADD SWAP2 PUSH2 0x12D7 JUMP JUMPDEST DUP3 ADD SWAP2 SWAP1 PUSH1 0x0 MSTORE PUSH1 0x20 PUSH1 0x0 KECCAK256 SWAP1 JUMPDEST DUP2 SLOAD DUP2 MSTORE SWAP1 PUSH1 0x1 ADD SWAP1 PUSH1 0x20 ADD DUP1 DUP4 GT PUSH2 0x12BA JUMPI DUP3 SWAP1 SUB PUSH1 0x1F AND DUP3 ADD SWAP2 JUMPDEST POP POP POP POP POP SWAP1 POP PUSH1 0x15 PUSH1 0x0 SWAP1 SLOAD SWAP1 PUSH2 0x100 EXP SWAP1 DIV PUSH1 0xFF AND PUSH1 0x1 PUSH1 0x2A PUSH1 0x1 SWAP1 SLOAD SWAP1 PUSH2 0x100 EXP SWAP1 DIV PUSH1 0xFF AND PUSH2 0x130A SWAP2 SWAP1 PUSH2 0x4F2D JUMP JUMPDEST PUSH2 0x1314 SWAP2 SWAP1 PUSH2 0x54DE JUMP JUMPDEST PUSH1 0x2A PUSH1 0x1 PUSH2 0x100 EXP DUP2 SLOAD DUP2 PUSH1 0xFF MUL NOT AND SWAP1 DUP4 PUSH1 0xFF AND MUL OR SWAP1 SSTORE POP DUP1 SWAP2 POP POP SWAP1 JUMP JUMPDEST PUSH1 0xB DUP2 PUSH1 0xA DUP2 LT PUSH2 0x1345 JUMPI PUSH1 0x0 DUP1 REVERT JUMPDEST ADD PUSH1 0x0 SWAP2 POP SWAP1 POP SLOAD DUP2 JUMP JUMPDEST PUSH1 0x0 CALLVALUE GT PUSH2 0x1393 JUMPI PUSH1 0x40 MLOAD PUSH32 0x8C379A000000000000000000000000000000000000000000000000000000000 DUP2 MSTORE PUSH1 0x4 ADD PUSH2 0x138A SWAP1 PUSH2 0x4A9F JUMP JUMPDEST PUSH1 0x40 MLOAD DUP1 SWAP2 SUB SWAP1 REVERT JUMPDEST PUSH1 0x0 PUSH1 0xB DUP3 PUSH1 0xA DUP2 LT PUSH2 0x13A9 JUMPI PUSH2 0x13A8 PUSH2 0x559C JUMP JUMPDEST JUMPDEST ADD SLOAD SLT PUSH2 0x13EB JUMPI PUSH1 0x40 MLOAD PUSH32 0x8C379A000000000000000000000000000000000000000000000000000000000 DUP2 MSTORE PUSH1 0x4 ADD PUSH2 0x13E2 SWAP1 PUSH2 0x4B9F JUMP JUMPDEST PUSH1 0x40 MLOAD DUP1 SWAP2 SUB SWAP1 REVERT JUMPDEST PUSH1 0x0 PUSH1 0xB DUP3 PUSH1 0xA DUP2 LT PUSH2 0x1401 JUMPI PUSH2 0x1400 PUSH2 0x559C JUMP JUMPDEST JUMPDEST ADD SLOAD SWAP1 POP PUSH1 0x0 CALLVALUE DUP3 PUSH2 0x1413 SWAP2 SWAP1 PUSH2 0x4E43 JUMP JUMPDEST SWAP1 POP DUP2 DUP2 SGT PUSH2 0x1457 JUMPI PUSH1 0x40 MLOAD PUSH32 0x8C379A000000000000000000000000000000000000000000000000000000000 DUP2 MSTORE PUSH1 0x4 ADD PUSH2 0x144E SWAP1 PUSH2 0x499F JUMP JUMPDEST PUSH1 0x40 MLOAD DUP1 SWAP2 SUB SWAP1 REVERT JUMPDEST DUP1 PUSH1 0xB DUP5 PUSH1 0xA DUP2 LT PUSH2 0x146C JUMPI PUSH2 0x146B PUSH2 0x559C JUMP JUMPDEST JUMPDEST ADD DUP2 SWAP1 SSTORE POP POP POP POP JUMP JUMPDEST PUSH1 0x0 PUSH2 0x1481 CALLER PUSH2 0x1F60 JUMP JUMPDEST GT PUSH2 0x14C1 JUMPI PUSH1 0x40 MLOAD PUSH32 0x8C379A000000000000000000000000000000000000000000000000000000000 DUP2 MSTORE PUSH1 0x4 ADD PUSH2 0x14B8 SWAP1 PUSH2 0x4C7F JUMP JUMPDEST PUSH1 0x40 MLOAD DUP1 SWAP2 SUB SWAP1 REVERT JUMPDEST PUSH1 0x0 PUSH2 0x14CC TIMESTAMP PUSH2 0x1B73 JUMP JUMPDEST SWAP1 POP PUSH1 0x4 DUP2 PUSH1 0xFF AND EQ PUSH2 0x150B JUMPI PUSH1 0x40 MLOAD PUSH32 0xD02E774D00000000000000000000000000000000000000000000000000000000 DUP2 MSTORE PUSH1 0x4 ADD PUSH1 0x40 MLOAD DUP1 SWAP2 SUB SWAP1 REVERT JUMPDEST PUSH1 0x2D PUSH1 0x0 SWAP1 SLOAD SWAP1 PUSH2 0x100 EXP SWAP1 DIV PUSH1 0xFF AND PUSH2 0x1551 JUMPI PUSH1 0x40 MLOAD PUSH32 0xD02E774D00000000000000000000000000000000000000000000000000000000 DUP2 MSTORE PUSH1 0x4 ADD PUSH1 0x40 MLOAD DUP1 SWAP2 SUB SWAP1 REVERT JUMPDEST PUSH1 0x2B SLOAD CALLVALUE LT ISZERO PUSH2 0x159A JUMPI PUSH1 0x2B SLOAD PUSH1 0x40 MLOAD PUSH32 0x4E12C1BB00000000000000000000000000000000000000000000000000000000 DUP2 MSTORE PUSH1 0x4 ADD PUSH2 0x1591 SWAP2 SWAP1 PUSH2 0x4D1A JUMP JUMPDEST PUSH1 0x40 MLOAD DUP1 SWAP2 SUB SWAP1 REVERT JUMPDEST PUSH1 0x0 PUSH1 0x2B SLOAD EQ PUSH2 0x161F JUMPI PUSH1 0x2B SLOAD PUSH1 0x2C PUSH1 0x0 PUSH1 0x2A PUSH1 0x2 SWAP1 SLOAD SWAP1 PUSH2 0x100 EXP SWAP1 DIV PUSH20 0xFFFFFFFFFFFFFFFFFFFFFFFFFFFFFFFFFFFFFFFF AND PUSH20 0xFFFFFFFFFFFFFFFFFFFFFFFFFFFFFFFFFFFFFFFF AND PUSH20 0xFFFFFFFFFFFFFFFFFFFFFFFFFFFFFFFFFFFFFFFF AND DUP2 MSTORE PUSH1 0x20 ADD SWAP1 DUP2 MSTORE PUSH1 0x20 ADD PUSH1 0x0 KECCAK256 PUSH1 0x0 DUP3 DUP3 SLOAD PUSH2 0x1617 SWAP2 SWAP1 PUSH2 0x4ED7 JUMP JUMPDEST SWAP3 POP POP DUP2 SWAP1 SSTORE POP JUMPDEST CALLER PUSH1 0x2A PUSH1 0x2 PUSH2 0x100 EXP DUP2 SLOAD DUP2 PUSH20 0xFFFFFFFFFFFFFFFFFFFFFFFFFFFFFFFFFFFFFFFF MUL NOT AND SWAP1 DUP4 PUSH20 0xFFFFFFFFFFFFFFFFFFFFFFFFFFFFFFFFFFFFFFFF AND MUL OR SWAP1 SSTORE POP CALLVALUE PUSH1 0x2B DUP2 SWAP1 SSTORE POP PUSH32 0xF4757A49B326036464BEC6FE419A4AE38C8A02CE3E68BF0809674F6AAB8AD300 CALLER CALLVALUE PUSH1 0x40 MLOAD PUSH2 0x1698 SWAP3 SWAP2 SWAP1 PUSH2 0x491E JUMP JUMPDEST PUSH1 0x40 MLOAD DUP1 SWAP2 SUB SWAP1 LOG1 POP JUMP JUMPDEST PUSH2 0x16B4 PUSH2 0x16AE PUSH2 0x2D38 JUMP JUMPDEST DUP3 PUSH2 0x2EDD JUMP JUMPDEST PUSH2 0x16F3 JUMPI PUSH1 0x40 MLOAD PUSH32 0x8C379A000000000000000000000000000000000000000000000000000000000 DUP2 MSTORE PUSH1 0x4 ADD PUSH2 0x16EA SWAP1 PUSH2 0x4C9F JUMP JUMPDEST PUSH1 0x40 MLOAD DUP1 SWAP2 SUB SWAP1 REVERT JUMPDEST PUSH2 0x16FE DUP4 DUP4 DUP4 PUSH2 0x2FBB JUMP JUMPDEST POP POP POP JUMP JUMPDEST PUSH2 0x170B PUSH2 0x2D38 JUMP JUMPDEST PUSH20 0xFFFFFFFFFFFFFFFFFFFFFFFFFFFFFFFFFFFFFFFF AND PUSH2 0x1729 PUSH2 0x218F JUMP JUMPDEST PUSH20 0xFFFFFFFFFFFFFFFFFFFFFFFFFFFFFFFFFFFFFFFF AND EQ PUSH2 0x177F JUMPI PUSH1 0x40 MLOAD PUSH32 0x8C379A000000000000000000000000000000000000000000000000000000000 DUP2 MSTORE PUSH1 0x4 ADD PUSH2 0x1776 SWAP1 PUSH2 0x4BDF JUMP JUMPDEST PUSH1 0x40 MLOAD DUP1 SWAP2 SUB SWAP1 REVERT JUMPDEST PUSH1 0x2D PUSH1 0x0 SWAP1 SLOAD SWAP1 PUSH2 0x100 EXP SWAP1 DIV PUSH1 0xFF AND PUSH2 0x17C5 JUMPI PUSH1 0x40 MLOAD PUSH32 0xD02E774D00000000000000000000000000000000000000000000000000000000 DUP2 MSTORE PUSH1 0x4 ADD PUSH1 0x40 MLOAD DUP1 SWAP2 SUB SWAP1 REVERT JUMPDEST PUSH1 0x0 PUSH1 0x2D PUSH1 0x0 PUSH2 0x100 EXP DUP2 SLOAD DUP2 PUSH1 0xFF MUL NOT AND SWAP1 DUP4 ISZERO ISZERO MUL OR SWAP1 SSTORE POP PUSH32 0xDAEC4582D5D9595688C8C98545FDD1C696D41C6AEAEB636737E84ED2F5C00EDA PUSH1 0x2A PUSH1 0x2 SWAP1 SLOAD SWAP1 PUSH2 0x100 EXP SWAP1 DIV PUSH20 0xFFFFFFFFFFFFFFFFFFFFFFFFFFFFFFFFFFFFFFFF AND PUSH1 0x2B SLOAD PUSH1 0x40 MLOAD PUSH2 0x1835 SWAP3 SWAP2 SWAP1 PUSH2 0x491E JUMP JUMPDEST PUSH1 0x40 MLOAD DUP1 SWAP2 SUB SWAP1 LOG1 JUMP JUMPDEST PUSH1 0x0 DUP1 PUSH1 0x2C PUSH1 0x0 CALLER PUSH20 0xFFFFFFFFFFFFFFFFFFFFFFFFFFFFFFFFFFFFFFFF AND PUSH20 0xFFFFFFFFFFFFFFFFFFFFFFFFFFFFFFFFFFFFFFFF AND DUP2 MSTORE PUSH1 0x20 ADD SWAP1 DUP2 MSTORE PUSH1 0x20 ADD PUSH1 0x0 KECCAK256 SLOAD SWAP1 POP PUSH1 0x0 DUP2 GT ISZERO PUSH2 0x195A JUMPI PUSH1 0x0 PUSH1 0x2C PUSH1 0x0 CALLER PUSH20 0xFFFFFFFFFFFFFFFFFFFFFFFFFFFFFFFFFFFFFFFF AND PUSH20 0xFFFFFFFFFFFFFFFFFFFFFFFFFFFFFFFFFFFFFFFF AND DUP2 MSTORE PUSH1 0x20 ADD SWAP1 DUP2 MSTORE PUSH1 0x20 ADD PUSH1 0x0 KECCAK256 DUP2 SWAP1 SSTORE POP CALLER PUSH20 0xFFFFFFFFFFFFFFFFFFFFFFFFFFFFFFFFFFFFFFFF AND PUSH2 0x8FC DUP3 SWAP1 DUP2 ISZERO MUL SWAP1 PUSH1 0x40 MLOAD PUSH1 0x0 PUSH1 0x40 MLOAD DUP1 DUP4 SUB DUP2 DUP6 DUP9 DUP9 CALL SWAP4 POP POP POP POP PUSH2 0x1959 JUMPI DUP1 PUSH1 0x2C PUSH1 0x0 CALLER PUSH20 0xFFFFFFFFFFFFFFFFFFFFFFFFFFFFFFFFFFFFFFFF AND PUSH20 0xFFFFFFFFFFFFFFFFFFFFFFFFFFFFFFFFFFFFFFFF AND DUP2 MSTORE PUSH1 0x20 ADD SWAP1 DUP2 MSTORE PUSH1 0x20 ADD PUSH1 0x0 KECCAK256 DUP2 SWAP1 SSTORE POP PUSH1 0x0 SWAP2 POP POP PUSH2 0x1960 JUMP JUMPDEST JUMPDEST PUSH1 0x1 SWAP2 POP POP JUMPDEST SWAP1 JUMP JUMPDEST PUSH1 0x0 PUSH1 0x18 PUSH1 0x3C DUP1 DUP5 PUSH2 0x1975 SWAP2 SWAP1 PUSH2 0x4FCE JUMP JUMPDEST PUSH2 0x197F SWAP2 SWAP1 PUSH2 0x4FCE JUMP JUMPDEST PUSH2 0x1989 SWAP2 SWAP1 PUSH2 0x54AD JUMP JUMPDEST SWAP1 POP SWAP2 SWAP1 POP JUMP JUMPDEST PUSH2 0x19AB DUP4 DUP4 DUP4 PUSH1 0x40 MLOAD DUP1 PUSH1 0x20 ADD PUSH1 0x40 MSTORE DUP1 PUSH1 0x0 DUP2 MSTORE POP PUSH2 0x2A46 JUMP JUMPDEST POP POP POP JUMP JUMPDEST PUSH2 0x19C1 PUSH2 0x19BB PUSH2 0x2D38 JUMP JUMPDEST DUP3 PUSH2 0x2EDD JUMP JUMPDEST PUSH2 0x1A00 JUMPI PUSH1 0x40 MLOAD PUSH32 0x8C379A000000000000000000000000000000000000000000000000000000000 DUP2 MSTORE PUSH1 0x4 ADD PUSH2 0x19F7 SWAP1 PUSH2 0x4CBF JUMP JUMPDEST PUSH1 0x40 MLOAD DUP1 SWAP2 SUB SWAP1 REVERT JUMPDEST PUSH2 0x1A09 DUP2 PUSH2 0x3217 JUMP JUMPDEST POP JUMP JUMPDEST PUSH1 0x0 PUSH2 0x1A17 CALLER PUSH2 0x1F60 JUMP JUMPDEST GT PUSH2 0x1A57 JUMPI PUSH1 0x40 MLOAD PUSH32 0x8C379A000000000000000000000000000000000000000000000000000000000 DUP2 MSTORE PUSH1 0x4 ADD PUSH2 0x1A4E SWAP1 PUSH2 0x4C7F JUMP JUMPDEST PUSH1 0x40 MLOAD DUP1 SWAP2 SUB SWAP1 REVERT JUMPDEST PUSH1 0x2A PUSH1 0x1 SWAP1 SLOAD SWAP1 PUSH2 0x100 EXP SWAP1 DIV PUSH1 0xFF AND PUSH1 0xFF AND PUSH1 0x15 PUSH1 0x0 SWAP1 SLOAD SWAP1 PUSH2 0x100 EXP SWAP1 DIV PUSH1 0xFF AND PUSH1 0x1 PUSH1 0x2A PUSH1 0x0 SWAP1 SLOAD SWAP1 PUSH2 0x100 EXP SWAP1 DIV PUSH1 0xFF AND PUSH2 0x1A96 SWAP2 SWAP1 PUSH2 0x4F2D JUMP JUMPDEST PUSH2 0x1AA0 SWAP2 SWAP1 PUSH2 0x54DE JUMP JUMPDEST PUSH1 0xFF AND EQ ISZERO PUSH2 0x1AE4 JUMPI PUSH1 0x40 MLOAD PUSH32 0x8C379A000000000000000000000000000000000000000000000000000000000 DUP2 MSTORE PUSH1 0x4 ADD PUSH2 0x1ADB SWAP1 PUSH2 0x4A5F JUMP JUMPDEST PUSH1 0x40 MLOAD DUP1 SWAP2 SUB SWAP1 REVERT JUMPDEST DUP1 PUSH1 0x16 PUSH1 0x2A PUSH1 0x0 SWAP1 SLOAD SWAP1 PUSH2 0x100 EXP SWAP1 DIV PUSH1 0xFF AND PUSH1 0xFF AND PUSH1 0x14 DUP2 LT PUSH2 0x1B0B JUMPI PUSH2 0x1B0A PUSH2 0x559C JUMP JUMPDEST JUMPDEST ADD SWAP1 DUP1 MLOAD SWAP1 PUSH1 0x20 ADD SWAP1 PUSH2 0x1B1F SWAP3 SWAP2 SWAP1 PUSH2 0x3C15 JUMP JUMPDEST POP PUSH1 0x15 PUSH1 0x0 SWAP1 SLOAD SWAP1 PUSH2 0x100 EXP SWAP1 DIV PUSH1 0xFF AND PUSH1 0x1 PUSH1 0x2A PUSH1 0x0 SWAP1 SLOAD SWAP1 PUSH2 0x100 EXP SWAP1 DIV PUSH1 0xFF AND PUSH2 0x1B4C SWAP2 SWAP1 PUSH2 0x4F2D JUMP JUMPDEST PUSH2 0x1B56 SWAP2 SWAP1 PUSH2 0x54DE JUMP JUMPDEST PUSH1 0x2A PUSH1 0x0 PUSH2 0x100 EXP DUP2 SLOAD DUP2 PUSH1 0xFF MUL NOT AND SWAP1 DUP4 PUSH1 0xFF AND MUL OR SWAP1 SSTORE POP POP JUMP JUMPDEST PUSH1 0x0 PUSH1 0x7 PUSH1 0x4 PUSH3 0x15180 DUP5 PUSH2 0x1B88 SWAP2 SWAP1 PUSH2 0x4FCE JUMP JUMPDEST PUSH2 0x1B92 SWAP2 SWAP1 PUSH2 0x4ED7 JUMP JUMPDEST PUSH2 0x1B9C SWAP2 SWAP1 PUSH2 0x54AD JUMP JUMPDEST SWAP1 POP SWAP2 SWAP1 POP JUMP JUMPDEST PUSH2 0x1BAB PUSH2 0x2D38 JUMP JUMPDEST PUSH20 0xFFFFFFFFFFFFFFFFFFFFFFFFFFFFFFFFFFFFFFFF AND PUSH2 0x1BC9 PUSH2 0x218F JUMP JUMPDEST PUSH20 0xFFFFFFFFFFFFFFFFFFFFFFFFFFFFFFFFFFFFFFFF AND EQ PUSH2 0x1C1F JUMPI PUSH1 0x40 MLOAD PUSH32 0x8C379A000000000000000000000000000000000000000000000000000000000 DUP2 MSTORE PUSH1 0x4 ADD PUSH2 0x1C16 SWAP1 PUSH2 0x4BDF JUMP JUMPDEST PUSH1 0x40 MLOAD DUP1 SWAP2 SUB SWAP1 REVERT JUMPDEST PUSH1 0x2D PUSH1 0x0 SWAP1 SLOAD SWAP1 PUSH2 0x100 EXP SWAP1 DIV PUSH1 0xFF AND ISZERO PUSH2 0x1C66 JUMPI PUSH1 0x40 MLOAD PUSH32 0x628E388300000000000000000000000000000000000000000000000000000000 DUP2 MSTORE PUSH1 0x4 ADD PUSH1 0x40 MLOAD DUP1 SWAP2 SUB SWAP1 REVERT JUMPDEST PUSH1 0x1 PUSH1 0x2D PUSH1 0x0 PUSH2 0x100 EXP DUP2 SLOAD DUP2 PUSH1 0xFF MUL NOT AND SWAP1 DUP4 ISZERO ISZERO MUL OR SWAP1 SSTORE POP PUSH1 0x0 PUSH1 0x2B DUP2 SWAP1 SSTORE POP PUSH1 0x0 PUSH1 0x2A PUSH1 0x2 PUSH2 0x100 EXP DUP2 SLOAD DUP2 PUSH20 0xFFFFFFFFFFFFFFFFFFFFFFFFFFFFFFFFFFFFFFFF MUL NOT AND SWAP1 DUP4 PUSH20 0xFFFFFFFFFFFFFFFFFFFFFFFFFFFFFFFFFFFFFFFF AND MUL OR SWAP1 SSTORE POP PUSH32 0xF4757A49B326036464BEC6FE419A4AE38C8A02CE3E68BF0809674F6AAB8AD300 PUSH1 0x2A PUSH1 0x2 SWAP1 SLOAD SWAP1 PUSH2 0x100 EXP SWAP1 DIV PUSH20 0xFFFFFFFFFFFFFFFFFFFFFFFFFFFFFFFFFFFFFFFF AND PUSH1 0x2B SLOAD PUSH1 0x40 MLOAD PUSH2 0x1D20 SWAP3 SWAP2 SWAP1 PUSH2 0x491E JUMP JUMPDEST PUSH1 0x40 MLOAD DUP1 SWAP2 SUB SWAP1 LOG1 PUSH32 0xC8F99B9AC2A284B93C3652B9F064A6706724088CDAFA9E0A8437C026191B2F03 PUSH1 0x40 MLOAD PUSH1 0x40 MLOAD DUP1 SWAP2 SUB SWAP1 LOG1 JUMP JUMPDEST PUSH1 0x0 PUSH2 0x1D67 DUP7 DUP7 DUP7 DUP7 DUP7 PUSH1 0x0 PUSH2 0x21B9 JUMP JUMPDEST SWAP1 POP SWAP6 SWAP5 POP POP POP POP POP JUMP JUMPDEST PUSH1 0x0 DUP1 PUSH1 0x2 PUSH1 0x0 DUP5 DUP2 MSTORE PUSH1 0x20 ADD SWAP1 DUP2 MSTORE PUSH1 0x20 ADD PUSH1 0x0 KECCAK256 PUSH1 0x0 SWAP1 SLOAD SWAP1 PUSH2 0x100 EXP SWAP1 DIV PUSH20 0xFFFFFFFFFFFFFFFFFFFFFFFFFFFFFFFFFFFFFFFF AND SWAP1 POP PUSH1 0x0 PUSH20 0xFFFFFFFFFFFFFFFFFFFFFFFFFFFFFFFFFFFFFFFF AND DUP2 PUSH20 0xFFFFFFFFFFFFFFFFFFFFFFFFFFFFFFFFFFFFFFFF AND EQ ISZERO PUSH2 0x1E1B JUMPI PUSH1 0x40 MLOAD PUSH32 0x8C379A000000000000000000000000000000000000000000000000000000000 DUP2 MSTORE PUSH1 0x4 ADD PUSH2 0x1E12 SWAP1 PUSH2 0x4B3F JUMP JUMPDEST PUSH1 0x40 MLOAD DUP1 SWAP2 SUB SWAP1 REVERT JUMPDEST DUP1 SWAP2 POP POP SWAP2 SWAP1 POP JUMP JUMPDEST PUSH1 0x0 PUSH2 0x1E2F DUP3 PUSH2 0x3328 JUMP JUMPDEST PUSH1 0x40 ADD MLOAD SWAP1 POP SWAP2 SWAP1 POP JUMP JUMPDEST PUSH1 0xA PUSH2 0x1E46 PUSH1 0x7 PUSH2 0x2D40 JUMP JUMPDEST LT PUSH2 0x1E86 JUMPI PUSH1 0x40 MLOAD PUSH32 0x8C379A000000000000000000000000000000000000000000000000000000000 DUP2 MSTORE PUSH1 0x4 ADD PUSH2 0x1E7D SWAP1 PUSH2 0x4C5F JUMP JUMPDEST PUSH1 0x40 MLOAD DUP1 SWAP2 SUB SWAP1 REVERT JUMPDEST PUSH1 0x9 SLOAD CALLVALUE LT ISZERO PUSH2 0x1ECB JUMPI PUSH1 0x40 MLOAD PUSH32 0x8C379A000000000000000000000000000000000000000000000000000000000 DUP2 MSTORE PUSH1 0x4 ADD PUSH2 0x1EC2 SWAP1 PUSH2 0x4CDF JUMP JUMPDEST PUSH1 0x40 MLOAD DUP1 SWAP2 SUB SWAP1 REVERT JUMPDEST PUSH1 0x0 PUSH2 0x1ED6 CALLER PUSH2 0x1F60 JUMP JUMPDEST EQ PUSH2 0x1F16 JUMPI PUSH1 0x40 MLOAD PUSH32 0x8C379A000000000000000000000000000000000000000000000000000000000 DUP2 MSTORE PUSH1 0x4 ADD PUSH2 0x1F0D SWAP1 PUSH2 0x4A7F JUMP JUMPDEST PUSH1 0x40 MLOAD DUP1 SWAP2 SUB SWAP1 REVERT JUMPDEST PUSH2 0x1F29 CALLER PUSH2 0x1F24 PUSH1 0x7 PUSH2 0x2D40 JUMP JUMPDEST PUSH2 0x3539 JUMP JUMPDEST PUSH2 0x1F33 PUSH1 0x7 PUSH2 0x3557 JUMP JUMPDEST JUMP JUMPDEST PUSH1 0x0 DUP1 PUSH1 0x2A PUSH1 0x1 SWAP1 SLOAD SWAP1 PUSH2 0x100 EXP SWAP1 DIV PUSH1 0xFF AND PUSH1 0x2A PUSH1 0x0 SWAP1 SLOAD SWAP1 PUSH2 0x100 EXP SWAP1 DIV PUSH1 0xFF AND SWAP2 POP SWAP2 POP SWAP1 SWAP2 JUMP JUMPDEST PUSH1 0x0 DUP1 PUSH20 0xFFFFFFFFFFFFFFFFFFFFFFFFFFFFFFFFFFFFFFFF AND DUP3 PUSH20 0xFFFFFFFFFFFFFFFFFFFFFFFFFFFFFFFFFFFFFFFF AND EQ ISZERO PUSH2 0x1FD1 JUMPI PUSH1 0x40 MLOAD PUSH32 0x8C379A000000000000000000000000000000000000000000000000000000000 DUP2 MSTORE PUSH1 0x4 ADD PUSH2 0x1FC8 SWAP1 PUSH2 0x4B1F JUMP JUMPDEST PUSH1 0x40 MLOAD DUP1 SWAP2 SUB SWAP1 REVERT JUMPDEST PUSH1 0x3 PUSH1 0x0 DUP4 PUSH20 0xFFFFFFFFFFFFFFFFFFFFFFFFFFFFFFFFFFFFFFFF AND PUSH20 0xFFFFFFFFFFFFFFFFFFFFFFFFFFFFFFFFFFFFFFFF AND DUP2 MSTORE PUSH1 0x20 ADD SWAP1 DUP2 MSTORE PUSH1 0x20 ADD PUSH1 0x0 KECCAK256 SLOAD SWAP1 POP SWAP2 SWAP1 POP JUMP JUMPDEST PUSH2 0x2020 PUSH2 0x2D38 JUMP JUMPDEST PUSH20 0xFFFFFFFFFFFFFFFFFFFFFFFFFFFFFFFFFFFFFFFF AND PUSH2 0x203E PUSH2 0x218F JUMP JUMPDEST PUSH20 0xFFFFFFFFFFFFFFFFFFFFFFFFFFFFFFFFFFFFFFFF AND EQ PUSH2 0x2094 JUMPI PUSH1 0x40 MLOAD PUSH32 0x8C379A000000000000000000000000000000000000000000000000000000000 DUP2 MSTORE PUSH1 0x4 ADD PUSH2 0x208B SWAP1 PUSH2 0x4BDF JUMP JUMPDEST PUSH1 0x40 MLOAD DUP1 SWAP2 SUB SWAP1 REVERT JUMPDEST PUSH2 0x209E PUSH1 0x0 PUSH2 0x356D JUMP JUMPDEST JUMP JUMPDEST PUSH1 0x0 PUSH2 0x20B1 DUP6 DUP6 DUP6 DUP6 PUSH1 0x0 DUP1 PUSH2 0x21B9 JUMP JUMPDEST SWAP1 POP SWAP5 SWAP4 POP POP POP POP JUMP JUMPDEST PUSH1 0x0 PUSH1 0x3C DUP3 PUSH2 0x20CA SWAP2 SWAP1 PUSH2 0x54AD JUMP JUMPDEST SWAP1 POP SWAP2 SWAP1 POP JUMP JUMPDEST PUSH1 0x16 DUP2 PUSH1 0x14 DUP2 LT PUSH2 0x20E1 JUMPI PUSH1 0x0 DUP1 REVERT JUMPDEST ADD PUSH1 0x0 SWAP2 POP SWAP1 POP DUP1 SLOAD PUSH2 0x20F3 SWAP1 PUSH2 0x537B JUMP JUMPDEST DUP1 PUSH1 0x1F ADD PUSH1 0x20 DUP1 SWAP2 DIV MUL PUSH1 0x20 ADD PUSH1 0x40 MLOAD SWAP1 DUP2 ADD PUSH1 0x40 MSTORE DUP1 SWAP3 SWAP2 SWAP1 DUP2 DUP2 MSTORE PUSH1 0x20 ADD DUP3 DUP1 SLOAD PUSH2 0x211F SWAP1 PUSH2 0x537B JUMP JUMPDEST DUP1 ISZERO PUSH2 0x216C JUMPI DUP1 PUSH1 0x1F LT PUSH2 0x2141 JUMPI PUSH2 0x100 DUP1 DUP4 SLOAD DIV MUL DUP4 MSTORE SWAP2 PUSH1 0x20 ADD SWAP2 PUSH2 0x216C JUMP JUMPDEST DUP3 ADD SWAP2 SWAP1 PUSH1 0x0 MSTORE PUSH1 0x20 PUSH1 0x0 KECCAK256 SWAP1 JUMPDEST DUP2 SLOAD DUP2 MSTORE SWAP1 PUSH1 0x1 ADD SWAP1 PUSH1 0x20 ADD DUP1 DUP4 GT PUSH2 0x214F JUMPI DUP3 SWAP1 SUB PUSH1 0x1F AND DUP3 ADD SWAP2 JUMPDEST POP POP POP POP POP DUP2 JUMP JUMPDEST PUSH1 0x0 PUSH2 0x2186 DUP5 DUP5 DUP5 PUSH1 0x0 DUP1 PUSH1 0x0 PUSH2 0x21B9 JUMP JUMPDEST SWAP1 POP SWAP4 SWAP3 POP POP POP JUMP JUMPDEST PUSH1 0x0 PUSH1 0x6 PUSH1 0x0 SWAP1 SLOAD SWAP1 PUSH2 0x100 EXP SWAP1 DIV PUSH20 0xFFFFFFFFFFFFFFFFFFFFFFFFFFFFFFFFFFFFFFFF AND SWAP1 POP SWAP1 JUMP JUMPDEST PUSH1 0x0 DUP1 PUSH2 0x7B2 SWAP1 POP JUMPDEST DUP8 PUSH2 0xFFFF AND DUP2 PUSH2 0xFFFF AND LT ISZERO PUSH2 0x221D JUMPI PUSH2 0x21DB DUP2 PUSH2 0x28B7 JUMP JUMPDEST ISZERO PUSH2 0x21F7 JUMPI PUSH4 0x1E28500 DUP3 PUSH2 0x21F0 SWAP2 SWAP1 PUSH2 0x4ED7 JUMP JUMPDEST SWAP2 POP PUSH2 0x220A JUMP JUMPDEST PUSH4 0x1E13380 DUP3 PUSH2 0x2207 SWAP2 SWAP1 PUSH2 0x4ED7 JUMP JUMPDEST SWAP2 POP JUMPDEST DUP1 DUP1 PUSH2 0x2215 SWAP1 PUSH2 0x53DE JUMP JUMPDEST SWAP2 POP POP PUSH2 0x21C2 JUMP JUMPDEST PUSH2 0x2225 PUSH2 0x3C9B JUMP JUMPDEST PUSH1 0x1F DUP2 PUSH1 0x0 PUSH1 0xC DUP2 LT PUSH2 0x223B JUMPI PUSH2 0x223A PUSH2 0x559C JUMP JUMPDEST JUMPDEST PUSH1 0x20 MUL ADD SWAP1 PUSH1 0xFF AND SWAP1 DUP2 PUSH1 0xFF AND DUP2 MSTORE POP POP PUSH2 0x2255 DUP10 PUSH2 0x28B7 JUMP JUMPDEST ISZERO PUSH2 0x2286 JUMPI PUSH1 0x1D DUP2 PUSH1 0x1 PUSH1 0xC DUP2 LT PUSH2 0x2270 JUMPI PUSH2 0x226F PUSH2 0x559C JUMP JUMPDEST JUMPDEST PUSH1 0x20 MUL ADD SWAP1 PUSH1 0xFF AND SWAP1 DUP2 PUSH1 0xFF AND DUP2 MSTORE POP POP PUSH2 0x22AE JUMP JUMPDEST PUSH1 0x1C DUP2 PUSH1 0x1 PUSH1 0xC DUP2 LT PUSH2 0x229C JUMPI PUSH2 0x229B PUSH2 0x559C JUMP JUMPDEST JUMPDEST PUSH1 0x20 MUL ADD SWAP1 PUSH1 0xFF AND SWAP1 DUP2 PUSH1 0xFF AND DUP2 MSTORE POP POP JUMPDEST PUSH1 0x1F DUP2 PUSH1 0x2 PUSH1 0xC DUP2 LT PUSH2 0x22C4 JUMPI PUSH2 0x22C3 PUSH2 0x559C JUMP JUMPDEST JUMPDEST PUSH1 0x20 MUL ADD SWAP1 PUSH1 0xFF AND SWAP1 DUP2 PUSH1 0xFF AND DUP2 MSTORE POP POP PUSH1 0x1E DUP2 PUSH1 0x3 PUSH1 0xC DUP2 LT PUSH2 0x22EB JUMPI PUSH2 0x22EA PUSH2 0x559C JUMP JUMPDEST JUMPDEST PUSH1 0x20 MUL ADD SWAP1 PUSH1 0xFF AND SWAP1 DUP2 PUSH1 0xFF AND DUP2 MSTORE POP POP PUSH1 0x1F DUP2 PUSH1 0x4 PUSH1 0xC DUP2 LT PUSH2 0x2312 JUMPI PUSH2 0x2311 PUSH2 0x559C JUMP JUMPDEST JUMPDEST PUSH1 0x20 MUL ADD SWAP1 PUSH1 0xFF AND SWAP1 DUP2 PUSH1 0xFF AND DUP2 MSTORE POP POP PUSH1 0x1E DUP2 PUSH1 0x5 PUSH1 0xC DUP2 LT PUSH2 0x2339 JUMPI PUSH2 0x2338 PUSH2 0x559C JUMP JUMPDEST JUMPDEST PUSH1 0x20 MUL ADD SWAP1 PUSH1 0xFF AND SWAP1 DUP2 PUSH1 0xFF AND DUP2 MSTORE POP POP PUSH1 0x1F DUP2 PUSH1 0x6 PUSH1 0xC DUP2 LT PUSH2 0x2360 JUMPI PUSH2 0x235F PUSH2 0x559C JUMP JUMPDEST JUMPDEST PUSH1 0x20 MUL ADD SWAP1 PUSH1 0xFF AND SWAP1 DUP2 PUSH1 0xFF AND DUP2 MSTORE POP POP PUSH1 0x1F DUP2 PUSH1 0x7 PUSH1 0xC DUP2 LT PUSH2 0x2387 JUMPI PUSH2 0x2386 PUSH2 0x559C JUMP JUMPDEST JUMPDEST PUSH1 0x20 MUL ADD SWAP1 PUSH1 0xFF AND SWAP1 DUP2 PUSH1 0xFF AND DUP2 MSTORE POP POP PUSH1 0x1E DUP2 PUSH1 0x8 PUSH1 0xC DUP2 LT PUSH2 0x23AE JUMPI PUSH2 0x23AD PUSH2 0x559C JUMP JUMPDEST JUMPDEST PUSH1 0x20 MUL ADD SWAP1 PUSH1 0xFF AND SWAP1 DUP2 PUSH1 0xFF AND DUP2 MSTORE POP POP PUSH1 0x1F DUP2 PUSH1 0x9 PUSH1 0xC DUP2 LT PUSH2 0x23D5 JUMPI PUSH2 0x23D4 PUSH2 0x559C JUMP JUMPDEST JUMPDEST PUSH1 0x20 MUL ADD SWAP1 PUSH1 0xFF AND SWAP1 DUP2 PUSH1 0xFF AND DUP2 MSTORE POP POP PUSH1 0x1E DUP2 PUSH1 0xA PUSH1 0xC DUP2 LT PUSH2 0x23FC JUMPI PUSH2 0x23FB PUSH2 0x559C JUMP JUMPDEST JUMPDEST PUSH1 0x20 MUL ADD SWAP1 PUSH1 0xFF AND SWAP1 DUP2 PUSH1 0xFF AND DUP2 MSTORE POP POP PUSH1 0x1F DUP2 PUSH1 0xB PUSH1 0xC DUP2 LT PUSH2 0x2423 JUMPI PUSH2 0x2422 PUSH2 0x559C JUMP JUMPDEST JUMPDEST PUSH1 0x20 MUL ADD SWAP1 PUSH1 0xFF AND SWAP1 DUP2 PUSH1 0xFF AND DUP2 MSTORE POP POP PUSH1 0x1 SWAP2 POP JUMPDEST DUP8 PUSH1 0xFF AND DUP3 PUSH2 0xFFFF AND LT ISZERO PUSH2 0x24A1 JUMPI DUP1 PUSH1 0x1 DUP4 PUSH2 0x2456 SWAP2 SWAP1 PUSH2 0x5204 JUMP JUMPDEST PUSH2 0xFFFF AND PUSH1 0xC DUP2 LT PUSH2 0x246B JUMPI PUSH2 0x246A PUSH2 0x559C JUMP JUMPDEST JUMPDEST PUSH1 0x20 MUL ADD MLOAD PUSH1 0xFF AND PUSH3 0x15180 PUSH2 0x2481 SWAP2 SWAP1 PUSH2 0x5116 JUMP JUMPDEST DUP4 PUSH2 0x248C SWAP2 SWAP1 PUSH2 0x4ED7 JUMP JUMPDEST SWAP3 POP DUP2 DUP1 PUSH2 0x2499 SWAP1 PUSH2 0x53DE JUMP JUMPDEST SWAP3 POP POP PUSH2 0x2439 JUMP JUMPDEST PUSH1 0x1 DUP8 PUSH2 0x24AE SWAP2 SWAP1 PUSH2 0x526C JUMP JUMPDEST PUSH1 0xFF AND PUSH3 0x15180 PUSH2 0x24BF SWAP2 SWAP1 PUSH2 0x5116 JUMP JUMPDEST DUP4 PUSH2 0x24CA SWAP2 SWAP1 PUSH2 0x4ED7 JUMP JUMPDEST SWAP3 POP DUP6 PUSH1 0xFF AND PUSH2 0xE10 PUSH2 0x24DD SWAP2 SWAP1 PUSH2 0x5116 JUMP JUMPDEST DUP4 PUSH2 0x24E8 SWAP2 SWAP1 PUSH2 0x4ED7 JUMP JUMPDEST SWAP3 POP DUP5 PUSH1 0xFF AND PUSH1 0x3C PUSH2 0x24FA SWAP2 SWAP1 PUSH2 0x5116 JUMP JUMPDEST DUP4 PUSH2 0x2505 SWAP2 SWAP1 PUSH2 0x4ED7 JUMP JUMPDEST SWAP3 POP DUP4 PUSH1 0xFF AND DUP4 PUSH2 0x2516 SWAP2 SWAP1 PUSH2 0x4ED7 JUMP JUMPDEST SWAP3 POP POP POP SWAP7 SWAP6 POP POP POP POP POP POP JUMP JUMPDEST PUSH1 0x2A PUSH1 0x2 SWAP1 SLOAD SWAP1 PUSH2 0x100 EXP SWAP1 DIV PUSH20 0xFFFFFFFFFFFFFFFFFFFFFFFFFFFFFFFFFFFFFFFF AND DUP2 JUMP JUMPDEST PUSH1 0x0 DUP1 PUSH1 0x0 SWAP1 POP PUSH1 0x0 DUP1 PUSH4 0x1E13380 DUP6 PUSH2 0x2564 SWAP2 SWAP1 PUSH2 0x4FCE JUMP JUMPDEST PUSH2 0x7B2 PUSH2 0xFFFF AND PUSH2 0x2575 SWAP2 SWAP1 PUSH2 0x4ED7 JUMP JUMPDEST SWAP2 POP PUSH2 0x2586 PUSH2 0x7B2 PUSH2 0xFFFF AND PUSH2 0x2926 JUMP JUMPDEST PUSH2 0x2593 DUP4 PUSH2 0xFFFF AND PUSH2 0x2926 JUMP JUMPDEST PUSH2 0x259D SWAP2 SWAP1 PUSH2 0x5238 JUMP JUMPDEST SWAP1 POP DUP1 PUSH4 0x1E28500 PUSH2 0x25AF SWAP2 SWAP1 PUSH2 0x5116 JUMP JUMPDEST DUP4 PUSH2 0x25BA SWAP2 SWAP1 PUSH2 0x4ED7 JUMP JUMPDEST SWAP3 POP DUP1 PUSH2 0x7B2 DUP4 PUSH2 0x25CB SWAP2 SWAP1 PUSH2 0x5204 JUMP JUMPDEST PUSH2 0xFFFF AND PUSH2 0x25D9 SWAP2 SWAP1 PUSH2 0x5238 JUMP JUMPDEST PUSH4 0x1E13380 PUSH2 0x25E8 SWAP2 SWAP1 PUSH2 0x5116 JUMP JUMPDEST DUP4 PUSH2 0x25F3 SWAP2 SWAP1 PUSH2 0x4ED7 JUMP JUMPDEST SWAP3 POP JUMPDEST DUP5 DUP4 GT ISZERO PUSH2 0x2656 JUMPI PUSH2 0x2613 PUSH1 0x1 DUP4 PUSH2 0x260E SWAP2 SWAP1 PUSH2 0x5204 JUMP JUMPDEST PUSH2 0x28B7 JUMP JUMPDEST ISZERO PUSH2 0x262F JUMPI PUSH4 0x1E28500 DUP4 PUSH2 0x2628 SWAP2 SWAP1 PUSH2 0x5238 JUMP JUMPDEST SWAP3 POP PUSH2 0x2642 JUMP JUMPDEST PUSH4 0x1E13380 DUP4 PUSH2 0x263F SWAP2 SWAP1 PUSH2 0x5238 JUMP JUMPDEST SWAP3 POP JUMPDEST PUSH1 0x1 DUP3 PUSH2 0x264F SWAP2 SWAP1 PUSH2 0x5204 JUMP JUMPDEST SWAP2 POP PUSH2 0x25F6 JUMP JUMPDEST DUP2 SWAP4 POP POP POP POP SWAP2 SWAP1 POP JUMP JUMPDEST PUSH1 0x60 PUSH1 0x1 DUP1 SLOAD PUSH2 0x2670 SWAP1 PUSH2 0x537B JUMP JUMPDEST DUP1 PUSH1 0x1F ADD PUSH1 0x20 DUP1 SWAP2 DIV MUL PUSH1 0x20 ADD PUSH1 0x40 MLOAD SWAP1 DUP2 ADD PUSH1 0x40 MSTORE DUP1 SWAP3 SWAP2 SWAP1 DUP2 DUP2 MSTORE PUSH1 0x20 ADD DUP3 DUP1 SLOAD PUSH2 0x269C SWAP1 PUSH2 0x537B JUMP JUMPDEST DUP1 ISZERO PUSH2 0x26E9 JUMPI DUP1 PUSH1 0x1F LT PUSH2 0x26BE JUMPI PUSH2 0x100 DUP1 DUP4 SLOAD DIV MUL DUP4 MSTORE SWAP2 PUSH1 0x20 ADD SWAP2 PUSH2 0x26E9 JUMP JUMPDEST DUP3 ADD SWAP2 SWAP1 PUSH1 0x0 MSTORE PUSH1 0x20 PUSH1 0x0 KECCAK256 SWAP1 JUMPDEST DUP2 SLOAD DUP2 MSTORE SWAP1 PUSH1 0x1 ADD SWAP1 PUSH1 0x20 ADD DUP1 DUP4 GT PUSH2 0x26CC JUMPI DUP3 SWAP1 SUB PUSH1 0x1F AND DUP3 ADD SWAP2 JUMPDEST POP POP POP POP POP SWAP1 POP SWAP1 JUMP JUMPDEST PUSH1 0x0 DUP1 PUSH2 0x26FE PUSH2 0x3633 JUMP JUMPDEST SWAP1 POP PUSH1 0x0 DUP2 PUSH8 0xDE0B6B3A7640000 PUSH2 0x2716 SWAP2 SWAP1 PUSH2 0x4F64 JUMP JUMPDEST SWAP1 POP DUP1 SWAP3 POP POP POP SWAP1 JUMP JUMPDEST PUSH2 0x2728 PUSH2 0x2D38 JUMP JUMPDEST PUSH20 0xFFFFFFFFFFFFFFFFFFFFFFFFFFFFFFFFFFFFFFFF AND DUP3 PUSH20 0xFFFFFFFFFFFFFFFFFFFFFFFFFFFFFFFFFFFFFFFF AND EQ ISZERO PUSH2 0x2796 JUMPI PUSH1 0x40 MLOAD PUSH32 0x8C379A000000000000000000000000000000000000000000000000000000000 DUP2 MSTORE PUSH1 0x4 ADD PUSH2 0x278D SWAP1 PUSH2 0x4A3F JUMP JUMPDEST PUSH1 0x40 MLOAD DUP1 SWAP2 SUB SWAP1 REVERT JUMPDEST DUP1 PUSH1 0x5 PUSH1 0x0 PUSH2 0x27A3 PUSH2 0x2D38 JUMP JUMPDEST PUSH20 0xFFFFFFFFFFFFFFFFFFFFFFFFFFFFFFFFFFFFFFFF AND PUSH20 0xFFFFFFFFFFFFFFFFFFFFFFFFFFFFFFFFFFFFFFFF AND DUP2 MSTORE PUSH1 0x20 ADD SWAP1 DUP2 MSTORE PUSH1 0x20 ADD PUSH1 0x0 KECCAK256 PUSH1 0x0 DUP5 PUSH20 0xFFFFFFFFFFFFFFFFFFFFFFFFFFFFFFFFFFFFFFFF AND PUSH20 0xFFFFFFFFFFFFFFFFFFFFFFFFFFFFFFFFFFFFFFFF AND DUP2 MSTORE PUSH1 0x20 ADD SWAP1 DUP2 MSTORE PUSH1 0x20 ADD PUSH1 0x0 KECCAK256 PUSH1 0x0 PUSH2 0x100 EXP DUP2 SLOAD DUP2 PUSH1 0xFF MUL NOT AND SWAP1 DUP4 ISZERO ISZERO MUL OR SWAP1 SSTORE POP DUP2 PUSH20 0xFFFFFFFFFFFFFFFFFFFFFFFFFFFFFFFFFFFFFFFF AND PUSH2 0x2850 PUSH2 0x2D38 JUMP JUMPDEST PUSH20 0xFFFFFFFFFFFFFFFFFFFFFFFFFFFFFFFFFFFFFFFF AND PUSH32 0x17307EAB39AB6107E8899845AD3D59BD9653F200F220920489CA2B5937696C31 DUP4 PUSH1 0x40 MLOAD PUSH2 0x2895 SWAP2 SWAP1 PUSH2 0x4947 JUMP JUMPDEST PUSH1 0x40 MLOAD DUP1 SWAP2 SUB SWAP1 LOG3 POP POP JUMP JUMPDEST PUSH1 0x0 PUSH2 0x28AC DUP3 PUSH2 0x3328 JUMP JUMPDEST PUSH1 0x20 ADD MLOAD SWAP1 POP SWAP2 SWAP1 POP JUMP JUMPDEST PUSH1 0x0 DUP1 PUSH1 0x4 DUP4 PUSH2 0x28C7 SWAP2 SWAP1 PUSH2 0x547C JUMP JUMPDEST PUSH2 0xFFFF AND EQ PUSH2 0x28D9 JUMPI PUSH1 0x0 SWAP1 POP PUSH2 0x2921 JUMP JUMPDEST PUSH1 0x0 PUSH1 0x64 DUP4 PUSH2 0x28E8 SWAP2 SWAP1 PUSH2 0x547C JUMP JUMPDEST PUSH2 0xFFFF AND EQ PUSH2 0x28FA JUMPI PUSH1 0x1 SWAP1 POP PUSH2 0x2921 JUMP JUMPDEST PUSH1 0x0 PUSH2 0x190 DUP4 PUSH2 0x290A SWAP2 SWAP1 PUSH2 0x547C JUMP JUMPDEST PUSH2 0xFFFF AND EQ PUSH2 0x291C JUMPI PUSH1 0x0 SWAP1 POP PUSH2 0x2921 JUMP JUMPDEST PUSH1 0x1 SWAP1 POP JUMPDEST SWAP2 SWAP1 POP JUMP JUMPDEST PUSH1 0x0 PUSH1 0x1 DUP3 PUSH2 0x2935 SWAP2 SWAP1 PUSH2 0x5238 JUMP JUMPDEST SWAP2 POP PUSH2 0x190 DUP3 PUSH2 0x2945 SWAP2 SWAP1 PUSH2 0x4FCE JUMP JUMPDEST PUSH1 0x64 DUP4 PUSH2 0x2952 SWAP2 SWAP1 PUSH2 0x4FCE JUMP JUMPDEST PUSH1 0x4 DUP5 PUSH2 0x295F SWAP2 SWAP1 PUSH2 0x4FCE JUMP JUMPDEST PUSH2 0x2969 SWAP2 SWAP1 PUSH2 0x5238 JUMP JUMPDEST PUSH2 0x2973 SWAP2 SWAP1 PUSH2 0x4ED7 JUMP JUMPDEST SWAP1 POP SWAP2 SWAP1 POP JUMP JUMPDEST PUSH1 0x0 PUSH1 0x1 DUP4 PUSH1 0xFF AND EQ DUP1 PUSH2 0x2991 JUMPI POP PUSH1 0x3 DUP4 PUSH1 0xFF AND EQ JUMPDEST DUP1 PUSH2 0x299F JUMPI POP PUSH1 0x5 DUP4 PUSH1 0xFF AND EQ JUMPDEST DUP1 PUSH2 0x29AD JUMPI POP PUSH1 0x7 DUP4 PUSH1 0xFF AND EQ JUMPDEST DUP1 PUSH2 0x29BB JUMPI POP PUSH1 0x8 DUP4 PUSH1 0xFF AND EQ JUMPDEST DUP1 PUSH2 0x29C9 JUMPI POP PUSH1 0xA DUP4 PUSH1 0xFF AND EQ JUMPDEST DUP1 PUSH2 0x29D7 JUMPI POP PUSH1 0xC DUP4 PUSH1 0xFF AND EQ JUMPDEST ISZERO PUSH2 0x29E5 JUMPI PUSH1 0x1F SWAP1 POP PUSH2 0x2A40 JUMP JUMPDEST PUSH1 0x4 DUP4 PUSH1 0xFF AND EQ DUP1 PUSH2 0x29FA JUMPI POP PUSH1 0x6 DUP4 PUSH1 0xFF AND EQ JUMPDEST DUP1 PUSH2 0x2A08 JUMPI POP PUSH1 0x9 DUP4 PUSH1 0xFF AND EQ JUMPDEST DUP1 PUSH2 0x2A16 JUMPI POP PUSH1 0xB DUP4 PUSH1 0xFF AND EQ JUMPDEST ISZERO PUSH2 0x2A24 JUMPI PUSH1 0x1E SWAP1 POP PUSH2 0x2A40 JUMP JUMPDEST PUSH2 0x2A2D DUP3 PUSH2 0x28B7 JUMP JUMPDEST ISZERO PUSH2 0x2A3B JUMPI PUSH1 0x1D SWAP1 POP PUSH2 0x2A40 JUMP JUMPDEST PUSH1 0x1C SWAP1 POP JUMPDEST SWAP3 SWAP2 POP POP JUMP JUMPDEST PUSH2 0x2A57 PUSH2 0x2A51 PUSH2 0x2D38 JUMP JUMPDEST DUP4 PUSH2 0x2EDD JUMP JUMPDEST PUSH2 0x2A96 JUMPI PUSH1 0x40 MLOAD PUSH32 0x8C379A000000000000000000000000000000000000000000000000000000000 DUP2 MSTORE PUSH1 0x4 ADD PUSH2 0x2A8D SWAP1 PUSH2 0x4C9F JUMP JUMPDEST PUSH1 0x40 MLOAD DUP1 SWAP2 SUB SWAP1 REVERT JUMPDEST PUSH2 0x2AA2 DUP5 DUP5 DUP5 DUP5 PUSH2 0x3643 JUMP JUMPDEST POP POP POP POP JUMP JUMPDEST PUSH1 0x0 PUSH1 0x2A PUSH1 0x1 SWAP1 SLOAD SWAP1 PUSH2 0x100 EXP SWAP1 DIV PUSH1 0xFF AND SWAP1 POP SWAP1 JUMP JUMPDEST PUSH1 0x60 PUSH2 0x2ACA DUP3 PUSH2 0x2DB8 JUMP JUMPDEST PUSH2 0x2B09 JUMPI PUSH1 0x40 MLOAD PUSH32 0x8C379A000000000000000000000000000000000000000000000000000000000 DUP2 MSTORE PUSH1 0x4 ADD PUSH2 0x2B00 SWAP1 PUSH2 0x4C1F JUMP JUMPDEST PUSH1 0x40 MLOAD DUP1 SWAP2 SUB SWAP1 REVERT JUMPDEST PUSH1 0x0 PUSH2 0x2B13 PUSH2 0x369F JUMP JUMPDEST SWAP1 POP PUSH1 0x0 DUP2 MLOAD GT PUSH2 0x2B33 JUMPI PUSH1 0x40 MLOAD DUP1 PUSH1 0x20 ADD PUSH1 0x40 MSTORE DUP1 PUSH1 0x0 DUP2 MSTORE POP PUSH2 0x2B5E JUMP JUMPDEST DUP1 PUSH2 0x2B3D DUP5 PUSH2 0x36DC JUMP JUMPDEST PUSH1 0x40 MLOAD PUSH1 0x20 ADD PUSH2 0x2B4E SWAP3 SWAP2 SWAP1 PUSH2 0x4893 JUMP JUMPDEST PUSH1 0x40 MLOAD PUSH1 0x20 DUP2 DUP4 SUB SUB DUP2 MSTORE SWAP1 PUSH1 0x40 MSTORE JUMPDEST SWAP2 POP POP SWAP2 SWAP1 POP JUMP JUMPDEST PUSH1 0x0 PUSH1 0xB DUP3 PUSH1 0xA DUP2 LT PUSH2 0x2B7C JUMPI PUSH2 0x2B7B PUSH2 0x559C JUMP JUMPDEST JUMPDEST ADD SLOAD SWAP1 POP SWAP2 SWAP1 POP JUMP JUMPDEST PUSH1 0x2B SLOAD DUP2 JUMP JUMPDEST PUSH1 0x0 PUSH1 0x5 PUSH1 0x0 DUP5 PUSH20 0xFFFFFFFFFFFFFFFFFFFFFFFFFFFFFFFFFFFFFFFF AND PUSH20 0xFFFFFFFFFFFFFFFFFFFFFFFFFFFFFFFFFFFFFFFF AND DUP2 MSTORE PUSH1 0x20 ADD SWAP1 DUP2 MSTORE PUSH1 0x20 ADD PUSH1 0x0 KECCAK256 PUSH1 0x0 DUP4 PUSH20 0xFFFFFFFFFFFFFFFFFFFFFFFFFFFFFFFFFFFFFFFF AND PUSH20 0xFFFFFFFFFFFFFFFFFFFFFFFFFFFFFFFFFFFFFFFF AND DUP2 MSTORE PUSH1 0x20 ADD SWAP1 DUP2 MSTORE PUSH1 0x20 ADD PUSH1 0x0 KECCAK256 PUSH1 0x0 SWAP1 SLOAD SWAP1 PUSH2 0x100 EXP SWAP1 DIV PUSH1 0xFF AND SWAP1 POP SWAP3 SWAP2 POP POP JUMP JUMPDEST PUSH2 0x2C27 PUSH2 0x2D38 JUMP JUMPDEST PUSH20 0xFFFFFFFFFFFFFFFFFFFFFFFFFFFFFFFFFFFFFFFF AND PUSH2 0x2C45 PUSH2 0x218F JUMP JUMPDEST PUSH20 0xFFFFFFFFFFFFFFFFFFFFFFFFFFFFFFFFFFFFFFFF AND EQ PUSH2 0x2C9B JUMPI PUSH1 0x40 MLOAD PUSH32 0x8C379A000000000000000000000000000000000000000000000000000000000 DUP2 MSTORE PUSH1 0x4 ADD PUSH2 0x2C92 SWAP1 PUSH2 0x4BDF JUMP JUMPDEST PUSH1 0x40 MLOAD DUP1 SWAP2 SUB SWAP1 REVERT JUMPDEST PUSH1 0x0 PUSH20 0xFFFFFFFFFFFFFFFFFFFFFFFFFFFFFFFFFFFFFFFF AND DUP2 PUSH20 0xFFFFFFFFFFFFFFFFFFFFFFFFFFFFFFFFFFFFFFFF AND EQ ISZERO PUSH2 0x2D0B JUMPI PUSH1 0x40 MLOAD PUSH32 0x8C379A000000000000000000000000000000000000000000000000000000000 DUP2 MSTORE PUSH1 0x4 ADD PUSH2 0x2D02 SWAP1 PUSH2 0x49DF JUMP JUMPDEST PUSH1 0x40 MLOAD DUP1 SWAP2 SUB SWAP1 REVERT JUMPDEST PUSH2 0x2D14 DUP2 PUSH2 0x356D JUMP JUMPDEST POP JUMP JUMPDEST PUSH1 0x0 PUSH1 0x3C DUP1 DUP4 PUSH2 0x2D27 SWAP2 SWAP1 PUSH2 0x4FCE JUMP JUMPDEST PUSH2 0x2D31 SWAP2 SWAP1 PUSH2 0x54AD JUMP JUMPDEST SWAP1 POP SWAP2 SWAP1 POP JUMP JUMPDEST PUSH1 0x0 CALLER SWAP1 POP SWAP1 JUMP JUMPDEST PUSH1 0x0 DUP2 PUSH1 0x0 ADD SLOAD SWAP1 POP SWAP2 SWAP1 POP JUMP JUMPDEST PUSH1 0x0 PUSH32 0x1FFC9A700000000000000000000000000000000000000000000000000000000 PUSH28 0xFFFFFFFFFFFFFFFFFFFFFFFFFFFFFFFFFFFFFFFFFFFFFFFFFFFFFFFF NOT AND DUP3 PUSH28 0xFFFFFFFFFFFFFFFFFFFFFFFFFFFFFFFFFFFFFFFFFFFFFFFFFFFFFFFF NOT AND EQ SWAP1 POP SWAP2 SWAP1 POP JUMP JUMPDEST PUSH1 0x0 DUP1 PUSH20 0xFFFFFFFFFFFFFFFFFFFFFFFFFFFFFFFFFFFFFFFF AND PUSH1 0x2 PUSH1 0x0 DUP5 DUP2 MSTORE PUSH1 0x20 ADD SWAP1 DUP2 MSTORE PUSH1 0x20 ADD PUSH1 0x0 KECCAK256 PUSH1 0x0 SWAP1 SLOAD SWAP1 PUSH2 0x100 EXP SWAP1 DIV PUSH20 0xFFFFFFFFFFFFFFFFFFFFFFFFFFFFFFFFFFFFFFFF AND PUSH20 0xFFFFFFFFFFFFFFFFFFFFFFFFFFFFFFFFFFFFFFFF AND EQ ISZERO SWAP1 POP SWAP2 SWAP1 POP JUMP JUMPDEST DUP2 PUSH1 0x4 PUSH1 0x0 DUP4 DUP2 MSTORE PUSH1 0x20 ADD SWAP1 DUP2 MSTORE PUSH1 0x20 ADD PUSH1 0x0 KECCAK256 PUSH1 0x0 PUSH2 0x100 EXP DUP2 SLOAD DUP2 PUSH20 0xFFFFFFFFFFFFFFFFFFFFFFFFFFFFFFFFFFFFFFFF MUL NOT AND SWAP1 DUP4 PUSH20 0xFFFFFFFFFFFFFFFFFFFFFFFFFFFFFFFFFFFFFFFF AND MUL OR SWAP1 SSTORE POP DUP1 DUP3 PUSH20 0xFFFFFFFFFFFFFFFFFFFFFFFFFFFFFFFFFFFFFFFF AND PUSH2 0x2E97 DUP4 PUSH2 0x1D72 JUMP JUMPDEST PUSH20 0xFFFFFFFFFFFFFFFFFFFFFFFFFFFFFFFFFFFFFFFF AND PUSH32 0x8C5BE1E5EBEC7D5BD14F71427D1E84F3DD0314C0F7B2291E5B200AC8C7C3B925 PUSH1 0x40 MLOAD PUSH1 0x40 MLOAD DUP1 SWAP2 SUB SWAP1 LOG4 POP POP JUMP JUMPDEST PUSH1 0x0 PUSH2 0x2EE8 DUP3 PUSH2 0x2DB8 JUMP JUMPDEST PUSH2 0x2F27 JUMPI PUSH1 0x40 MLOAD PUSH32 0x8C379A000000000000000000000000000000000000000000000000000000000 DUP2 MSTORE PUSH1 0x4 ADD PUSH2 0x2F1E SWAP1 PUSH2 0x4ADF JUMP JUMPDEST PUSH1 0x40 MLOAD DUP1 SWAP2 SUB SWAP1 REVERT JUMPDEST PUSH1 0x0 PUSH2 0x2F32 DUP4 PUSH2 0x1D72 JUMP JUMPDEST SWAP1 POP DUP1 PUSH20 0xFFFFFFFFFFFFFFFFFFFFFFFFFFFFFFFFFFFFFFFF AND DUP5 PUSH20 0xFFFFFFFFFFFFFFFFFFFFFFFFFFFFFFFFFFFFFFFF AND EQ DUP1 PUSH2 0x2FA1 JUMPI POP DUP4 PUSH20 0xFFFFFFFFFFFFFFFFFFFFFFFFFFFFFFFFFFFFFFFF AND PUSH2 0x2F89 DUP5 PUSH2 0xF4B JUMP JUMPDEST PUSH20 0xFFFFFFFFFFFFFFFFFFFFFFFFFFFFFFFFFFFFFFFF AND EQ JUMPDEST DUP1 PUSH2 0x2FB2 JUMPI POP PUSH2 0x2FB1 DUP2 DUP6 PUSH2 0x2B8B JUMP JUMPDEST JUMPDEST SWAP2 POP POP SWAP3 SWAP2 POP POP JUMP JUMPDEST DUP3 PUSH20 0xFFFFFFFFFFFFFFFFFFFFFFFFFFFFFFFFFFFFFFFF AND PUSH2 0x2FDB DUP3 PUSH2 0x1D72 JUMP JUMPDEST PUSH20 0xFFFFFFFFFFFFFFFFFFFFFFFFFFFFFFFFFFFFFFFF AND EQ PUSH2 0x3031 JUMPI PUSH1 0x40 MLOAD PUSH32 0x8C379A000000000000000000000000000000000000000000000000000000000 DUP2 MSTORE PUSH1 0x4 ADD PUSH2 0x3028 SWAP1 PUSH2 0x4BFF JUMP JUMPDEST PUSH1 0x40 MLOAD DUP1 SWAP2 SUB SWAP1 REVERT JUMPDEST PUSH1 0x0 PUSH20 0xFFFFFFFFFFFFFFFFFFFFFFFFFFFFFFFFFFFFFFFF AND DUP3 PUSH20 0xFFFFFFFFFFFFFFFFFFFFFFFFFFFFFFFFFFFFFFFF AND EQ ISZERO PUSH2 0x30A1 JUMPI PUSH1 0x40 MLOAD PUSH32 0x8C379A000000000000000000000000000000000000000000000000000000000 DUP2 MSTORE PUSH1 0x4 ADD PUSH2 0x3098 SWAP1 PUSH2 0x4A1F JUMP JUMPDEST PUSH1 0x40 MLOAD DUP1 SWAP2 SUB SWAP1 REVERT JUMPDEST PUSH2 0x30AC DUP4 DUP4 DUP4 PUSH2 0x383D JUMP JUMPDEST PUSH2 0x30B7 PUSH1 0x0 DUP3 PUSH2 0x2E24 JUMP JUMPDEST PUSH1 0x1 PUSH1 0x3 PUSH1 0x0 DUP6 PUSH20 0xFFFFFFFFFFFFFFFFFFFFFFFFFFFFFFFFFFFFFFFF AND PUSH20 0xFFFFFFFFFFFFFFFFFFFFFFFFFFFFFFFFFFFFFFFF AND DUP2 MSTORE PUSH1 0x20 ADD SWAP1 DUP2 MSTORE PUSH1 0x20 ADD PUSH1 0x0 KECCAK256 PUSH1 0x0 DUP3 DUP3 SLOAD PUSH2 0x3107 SWAP2 SWAP1 PUSH2 0x5238 JUMP JUMPDEST SWAP3 POP POP DUP2 SWAP1 SSTORE POP PUSH1 0x1 PUSH1 0x3 PUSH1 0x0 DUP5 PUSH20 0xFFFFFFFFFFFFFFFFFFFFFFFFFFFFFFFFFFFFFFFF AND PUSH20 0xFFFFFFFFFFFFFFFFFFFFFFFFFFFFFFFFFFFFFFFF AND DUP2 MSTORE PUSH1 0x20 ADD SWAP1 DUP2 MSTORE PUSH1 0x20 ADD PUSH1 0x0 KECCAK256 PUSH1 0x0 DUP3 DUP3 SLOAD PUSH2 0x315E SWAP2 SWAP1 PUSH2 0x4ED7 JUMP JUMPDEST SWAP3 POP POP DUP2 SWAP1 SSTORE POP DUP2 PUSH1 0x2 PUSH1 0x0 DUP4 DUP2 MSTORE PUSH1 0x20 ADD SWAP1 DUP2 MSTORE PUSH1 0x20 ADD PUSH1 0x0 KECCAK256 PUSH1 0x0 PUSH2 0x100 EXP DUP2 SLOAD DUP2 PUSH20 0xFFFFFFFFFFFFFFFFFFFFFFFFFFFFFFFFFFFFFFFF MUL NOT AND SWAP1 DUP4 PUSH20 0xFFFFFFFFFFFFFFFFFFFFFFFFFFFFFFFFFFFFFFFF AND MUL OR SWAP1 SSTORE POP DUP1 DUP3 PUSH20 0xFFFFFFFFFFFFFFFFFFFFFFFFFFFFFFFFFFFFFFFF AND DUP5 PUSH20 0xFFFFFFFFFFFFFFFFFFFFFFFFFFFFFFFFFFFFFFFF AND PUSH32 0xDDF252AD1BE2C89B69C2B068FC378DAA952BA7F163C4A11628F55A4DF523B3EF PUSH1 0x40 MLOAD PUSH1 0x40 MLOAD DUP1 SWAP2 SUB SWAP1 LOG4 POP POP POP JUMP JUMPDEST PUSH1 0x0 PUSH2 0x3222 DUP3 PUSH2 0x1D72 JUMP JUMPDEST SWAP1 POP PUSH2 0x3230 DUP2 PUSH1 0x0 DUP5 PUSH2 0x383D JUMP JUMPDEST PUSH2 0x323B PUSH1 0x0 DUP4 PUSH2 0x2E24 JUMP JUMPDEST PUSH1 0x1 PUSH1 0x3 PUSH1 0x0 DUP4 PUSH20 0xFFFFFFFFFFFFFFFFFFFFFFFFFFFFFFFFFFFFFFFF AND PUSH20 0xFFFFFFFFFFFFFFFFFFFFFFFFFFFFFFFFFFFFFFFF AND DUP2 MSTORE PUSH1 0x20 ADD SWAP1 DUP2 MSTORE PUSH1 0x20 ADD PUSH1 0x0 KECCAK256 PUSH1 0x0 DUP3 DUP3 SLOAD PUSH2 0x328B SWAP2 SWAP1 PUSH2 0x5238 JUMP JUMPDEST SWAP3 POP POP DUP2 SWAP1 SSTORE POP PUSH1 0x2 PUSH1 0x0 DUP4 DUP2 MSTORE PUSH1 0x20 ADD SWAP1 DUP2 MSTORE PUSH1 0x20 ADD PUSH1 0x0 KECCAK256 PUSH1 0x0 PUSH2 0x100 EXP DUP2 SLOAD SWAP1 PUSH20 0xFFFFFFFFFFFFFFFFFFFFFFFFFFFFFFFFFFFFFFFF MUL NOT AND SWAP1 SSTORE DUP2 PUSH1 0x0 PUSH20 0xFFFFFFFFFFFFFFFFFFFFFFFFFFFFFFFFFFFFFFFF AND DUP3 PUSH20 0xFFFFFFFFFFFFFFFFFFFFFFFFFFFFFFFFFFFFFFFF AND PUSH32 0xDDF252AD1BE2C89B69C2B068FC378DAA952BA7F163C4A11628F55A4DF523B3EF PUSH1 0x40 MLOAD PUSH1 0x40 MLOAD DUP1 SWAP2 SUB SWAP1 LOG4 POP POP JUMP JUMPDEST PUSH2 0x3330 PUSH2 0x3CBE JUMP JUMPDEST PUSH1 0x0 DUP1 DUP1 PUSH2 0x333D DUP6 PUSH2 0x254A JUMP JUMPDEST DUP5 PUSH1 0x0 ADD SWAP1 PUSH2 0xFFFF AND SWAP1 DUP2 PUSH2 0xFFFF AND DUP2 MSTORE POP POP PUSH2 0x335F PUSH2 0x7B2 PUSH2 0xFFFF AND PUSH2 0x2926 JUMP JUMPDEST PUSH2 0x3370 DUP6 PUSH1 0x0 ADD MLOAD PUSH2 0xFFFF AND PUSH2 0x2926 JUMP JUMPDEST PUSH2 0x337A SWAP2 SWAP1 PUSH2 0x5238 JUMP JUMPDEST SWAP2 POP DUP2 PUSH4 0x1E28500 PUSH2 0x338C SWAP2 SWAP1 PUSH2 0x5116 JUMP JUMPDEST DUP4 PUSH2 0x3397 SWAP2 SWAP1 PUSH2 0x4ED7 JUMP JUMPDEST SWAP3 POP DUP2 PUSH2 0x7B2 DUP6 PUSH1 0x0 ADD MLOAD PUSH2 0x33AC SWAP2 SWAP1 PUSH2 0x5204 JUMP JUMPDEST PUSH2 0xFFFF AND PUSH2 0x33BA SWAP2 SWAP1 PUSH2 0x5238 JUMP JUMPDEST PUSH4 0x1E13380 PUSH2 0x33C9 SWAP2 SWAP1 PUSH2 0x5116 JUMP JUMPDEST DUP4 PUSH2 0x33D4 SWAP2 SWAP1 PUSH2 0x4ED7 JUMP JUMPDEST SWAP3 POP PUSH1 0x0 PUSH1 0x1 SWAP2 POP JUMPDEST PUSH1 0xC DUP3 PUSH1 0xFF AND GT PUSH2 0x3454 JUMPI PUSH2 0x33F6 DUP3 DUP7 PUSH1 0x0 ADD MLOAD PUSH2 0x297A JUMP JUMPDEST PUSH1 0xFF AND PUSH3 0x15180 PUSH2 0x3407 SWAP2 SWAP1 PUSH2 0x5116 JUMP JUMPDEST SWAP1 POP DUP6 DUP5 DUP3 PUSH2 0x3416 SWAP2 SWAP1 PUSH2 0x4ED7 JUMP JUMPDEST GT ISZERO PUSH2 0x3433 JUMPI DUP2 DUP6 PUSH1 0x20 ADD SWAP1 PUSH1 0xFF AND SWAP1 DUP2 PUSH1 0xFF AND DUP2 MSTORE POP POP PUSH2 0x3454 JUMP JUMPDEST DUP1 DUP5 PUSH2 0x343F SWAP2 SWAP1 PUSH2 0x4ED7 JUMP JUMPDEST SWAP4 POP DUP2 DUP1 PUSH2 0x344C SWAP1 PUSH2 0x5452 JUMP JUMPDEST SWAP3 POP POP PUSH2 0x33DD JUMP JUMPDEST PUSH1 0x1 SWAP2 POP JUMPDEST PUSH2 0x346B DUP6 PUSH1 0x20 ADD MLOAD DUP7 PUSH1 0x0 ADD MLOAD PUSH2 0x297A JUMP JUMPDEST PUSH1 0xFF AND DUP3 PUSH1 0xFF AND GT PUSH2 0x34C8 JUMPI DUP6 DUP5 PUSH3 0x15180 PUSH2 0x3487 SWAP2 SWAP1 PUSH2 0x4ED7 JUMP JUMPDEST GT ISZERO PUSH2 0x34A4 JUMPI DUP2 DUP6 PUSH1 0x40 ADD SWAP1 PUSH1 0xFF AND SWAP1 DUP2 PUSH1 0xFF AND DUP2 MSTORE POP POP PUSH2 0x34C8 JUMP JUMPDEST PUSH3 0x15180 DUP5 PUSH2 0x34B3 SWAP2 SWAP1 PUSH2 0x4ED7 JUMP JUMPDEST SWAP4 POP DUP2 DUP1 PUSH2 0x34C0 SWAP1 PUSH2 0x5452 JUMP JUMPDEST SWAP3 POP POP PUSH2 0x3459 JUMP JUMPDEST PUSH2 0x34D1 DUP7 PUSH2 0x1963 JUMP JUMPDEST DUP6 PUSH1 0x60 ADD SWAP1 PUSH1 0xFF AND SWAP1 DUP2 PUSH1 0xFF AND DUP2 MSTORE POP POP PUSH2 0x34EB DUP7 PUSH2 0x2D17 JUMP JUMPDEST DUP6 PUSH1 0x80 ADD SWAP1 PUSH1 0xFF AND SWAP1 DUP2 PUSH1 0xFF AND DUP2 MSTORE POP POP PUSH2 0x3505 DUP7 PUSH2 0x20BB JUMP JUMPDEST DUP6 PUSH1 0xA0 ADD SWAP1 PUSH1 0xFF AND SWAP1 DUP2 PUSH1 0xFF AND DUP2 MSTORE POP POP PUSH2 0x351F DUP7 PUSH2 0x1B73 JUMP JUMPDEST DUP6 PUSH1 0xC0 ADD SWAP1 PUSH1 0xFF AND SWAP1 DUP2 PUSH1 0xFF AND DUP2 MSTORE POP POP POP POP POP POP SWAP2 SWAP1 POP JUMP JUMPDEST PUSH2 0x3553 DUP3 DUP3 PUSH1 0x40 MLOAD DUP1 PUSH1 0x20 ADD PUSH1 0x40 MSTORE DUP1 PUSH1 0x0 DUP2 MSTORE POP PUSH2 0x3842 JUMP JUMPDEST POP POP JUMP JUMPDEST PUSH1 0x1 DUP2 PUSH1 0x0 ADD PUSH1 0x0 DUP3 DUP3 SLOAD ADD SWAP3 POP POP DUP2 SWAP1 SSTORE POP POP JUMP JUMPDEST PUSH1 0x0 PUSH1 0x6 PUSH1 0x0 SWAP1 SLOAD SWAP1 PUSH2 0x100 EXP SWAP1 DIV PUSH20 0xFFFFFFFFFFFFFFFFFFFFFFFFFFFFFFFFFFFFFFFF AND SWAP1 POP DUP2 PUSH1 0x6 PUSH1 0x0 PUSH2 0x100 EXP DUP2 SLOAD DUP2 PUSH20 0xFFFFFFFFFFFFFFFFFFFFFFFFFFFFFFFFFFFFFFFF MUL NOT AND SWAP1 DUP4 PUSH20 0xFFFFFFFFFFFFFFFFFFFFFFFFFFFFFFFFFFFFFFFF AND MUL OR SWAP1 SSTORE POP DUP2 PUSH20 0xFFFFFFFFFFFFFFFFFFFFFFFFFFFFFFFFFFFFFFFF AND DUP2 PUSH20 0xFFFFFFFFFFFFFFFFFFFFFFFFFFFFFFFFFFFFFFFF AND PUSH32 0x8BE0079C531659141344CD1FD0A4F28419497F9722A3DAAFE3B4186F6B6457E0 PUSH1 0x40 MLOAD PUSH1 0x40 MLOAD DUP1 SWAP2 SUB SWAP1 LOG3 POP POP JUMP JUMPDEST PUSH1 0x0 DUP1 PUSH3 0x4C4D2 SWAP1 POP DUP1 SWAP2 POP POP SWAP1 JUMP JUMPDEST PUSH2 0x364E DUP5 DUP5 DUP5 PUSH2 0x2FBB JUMP JUMPDEST PUSH2 0x365A DUP5 DUP5 DUP5 DUP5 PUSH2 0x389D JUMP JUMPDEST PUSH2 0x3699 JUMPI PUSH1 0x40 MLOAD PUSH32 0x8C379A000000000000000000000000000000000000000000000000000000000 DUP2 MSTORE PUSH1 0x4 ADD PUSH2 0x3690 SWAP1 PUSH2 0x49BF JUMP JUMPDEST PUSH1 0x40 MLOAD DUP1 SWAP2 SUB SWAP1 REVERT JUMPDEST POP POP POP POP JUMP JUMPDEST PUSH1 0x60 PUSH1 0x40 MLOAD DUP1 PUSH1 0x40 ADD PUSH1 0x40 MSTORE DUP1 PUSH1 0x12 DUP2 MSTORE PUSH1 0x20 ADD PUSH32 0x68747470733A5C5C746865636C75622E72730000000000000000000000000000 DUP2 MSTORE POP SWAP1 POP SWAP1 JUMP JUMPDEST PUSH1 0x60 PUSH1 0x0 DUP3 EQ ISZERO PUSH2 0x3724 JUMPI PUSH1 0x40 MLOAD DUP1 PUSH1 0x40 ADD PUSH1 0x40 MSTORE DUP1 PUSH1 0x1 DUP2 MSTORE PUSH1 0x20 ADD PUSH32 0x3000000000000000000000000000000000000000000000000000000000000000 DUP2 MSTORE POP SWAP1 POP PUSH2 0x3838 JUMP JUMPDEST PUSH1 0x0 DUP3 SWAP1 POP PUSH1 0x0 JUMPDEST PUSH1 0x0 DUP3 EQ PUSH2 0x3756 JUMPI DUP1 DUP1 PUSH2 0x373F SWAP1 PUSH2 0x5409 JUMP JUMPDEST SWAP2 POP POP PUSH1 0xA DUP3 PUSH2 0x374F SWAP2 SWAP1 PUSH2 0x4FCE JUMP JUMPDEST SWAP2 POP PUSH2 0x372C JUMP JUMPDEST PUSH1 0x0 DUP2 PUSH8 0xFFFFFFFFFFFFFFFF DUP2 GT ISZERO PUSH2 0x3772 JUMPI PUSH2 0x3771 PUSH2 0x55CB JUMP JUMPDEST JUMPDEST PUSH1 0x40 MLOAD SWAP1 DUP1 DUP3 MSTORE DUP1 PUSH1 0x1F ADD PUSH1 0x1F NOT AND PUSH1 0x20 ADD DUP3 ADD PUSH1 0x40 MSTORE DUP1 ISZERO PUSH2 0x37A4 JUMPI DUP2 PUSH1 0x20 ADD PUSH1 0x1 DUP3 MUL DUP1 CALLDATASIZE DUP4 CALLDATACOPY DUP1 DUP3 ADD SWAP2 POP POP SWAP1 POP JUMPDEST POP SWAP1 POP JUMPDEST PUSH1 0x0 DUP6 EQ PUSH2 0x3831 JUMPI PUSH1 0x1 DUP3 PUSH2 0x37BD SWAP2 SWAP1 PUSH2 0x5238 JUMP JUMPDEST SWAP2 POP PUSH1 0xA DUP6 PUSH2 0x37CC SWAP2 SWAP1 PUSH2 0x54AD JUMP JUMPDEST PUSH1 0x30 PUSH2 0x37D8 SWAP2 SWAP1 PUSH2 0x4ED7 JUMP JUMPDEST PUSH1 0xF8 SHL DUP2 DUP4 DUP2 MLOAD DUP2 LT PUSH2 0x37EE JUMPI PUSH2 0x37ED PUSH2 0x559C JUMP JUMPDEST JUMPDEST PUSH1 0x20 ADD ADD SWAP1 PUSH31 0xFFFFFFFFFFFFFFFFFFFFFFFFFFFFFFFFFFFFFFFFFFFFFFFFFFFFFFFFFFFFFF NOT AND SWAP1 DUP2 PUSH1 0x0 BYTE SWAP1 MSTORE8 POP PUSH1 0xA DUP6 PUSH2 0x382A SWAP2 SWAP1 PUSH2 0x4FCE JUMP JUMPDEST SWAP5 POP PUSH2 0x37A8 JUMP JUMPDEST DUP1 SWAP4 POP POP POP POP JUMPDEST SWAP2 SWAP1 POP JUMP JUMPDEST POP POP POP JUMP JUMPDEST PUSH2 0x384C DUP4 DUP4 PUSH2 0x3A34 JUMP JUMPDEST PUSH2 0x3859 PUSH1 0x0 DUP5 DUP5 DUP5 PUSH2 0x389D JUMP JUMPDEST PUSH2 0x3898 JUMPI PUSH1 0x40 MLOAD PUSH32 0x8C379A000000000000000000000000000000000000000000000000000000000 DUP2 MSTORE PUSH1 0x4 ADD PUSH2 0x388F SWAP1 PUSH2 0x49BF JUMP JUMPDEST PUSH1 0x40 MLOAD DUP1 SWAP2 SUB SWAP1 REVERT JUMPDEST POP POP POP JUMP JUMPDEST PUSH1 0x0 PUSH2 0x38BE DUP5 PUSH20 0xFFFFFFFFFFFFFFFFFFFFFFFFFFFFFFFFFFFFFFFF AND PUSH2 0x3C02 JUMP JUMPDEST ISZERO PUSH2 0x3A27 JUMPI DUP4 PUSH20 0xFFFFFFFFFFFFFFFFFFFFFFFFFFFFFFFFFFFFFFFF AND PUSH4 0x150B7A02 PUSH2 0x38E7 PUSH2 0x2D38 JUMP JUMPDEST DUP8 DUP7 DUP7 PUSH1 0x40 MLOAD DUP6 PUSH4 0xFFFFFFFF AND PUSH1 0xE0 SHL DUP2 MSTORE PUSH1 0x4 ADD PUSH2 0x3909 SWAP5 SWAP4 SWAP3 SWAP2 SWAP1 PUSH2 0x48D2 JUMP JUMPDEST PUSH1 0x20 PUSH1 0x40 MLOAD DUP1 DUP4 SUB DUP2 PUSH1 0x0 DUP8 DUP1 EXTCODESIZE ISZERO DUP1 ISZERO PUSH2 0x3923 JUMPI PUSH1 0x0 DUP1 REVERT JUMPDEST POP GAS CALL SWAP3 POP POP POP DUP1 ISZERO PUSH2 0x3954 JUMPI POP PUSH1 0x40 MLOAD RETURNDATASIZE PUSH1 0x1F NOT PUSH1 0x1F DUP3 ADD AND DUP3 ADD DUP1 PUSH1 0x40 MSTORE POP DUP2 ADD SWAP1 PUSH2 0x3951 SWAP2 SWAP1 PUSH2 0x40A6 JUMP JUMPDEST PUSH1 0x1 JUMPDEST PUSH2 0x39D7 JUMPI RETURNDATASIZE DUP1 PUSH1 0x0 DUP2 EQ PUSH2 0x3984 JUMPI PUSH1 0x40 MLOAD SWAP2 POP PUSH1 0x1F NOT PUSH1 0x3F RETURNDATASIZE ADD AND DUP3 ADD PUSH1 0x40 MSTORE RETURNDATASIZE DUP3 MSTORE RETURNDATASIZE PUSH1 0x0 PUSH1 0x20 DUP5 ADD RETURNDATACOPY PUSH2 0x3989 JUMP JUMPDEST PUSH1 0x60 SWAP2 POP JUMPDEST POP PUSH1 0x0 DUP2 MLOAD EQ ISZERO PUSH2 0x39CF JUMPI PUSH1 0x40 MLOAD PUSH32 0x8C379A000000000000000000000000000000000000000000000000000000000 DUP2 MSTORE PUSH1 0x4 ADD PUSH2 0x39C6 SWAP1 PUSH2 0x49BF JUMP JUMPDEST PUSH1 0x40 MLOAD DUP1 SWAP2 SUB SWAP1 REVERT JUMPDEST DUP1 MLOAD DUP2 PUSH1 0x20 ADD REVERT JUMPDEST PUSH4 0x150B7A02 PUSH1 0xE0 SHL PUSH28 0xFFFFFFFFFFFFFFFFFFFFFFFFFFFFFFFFFFFFFFFFFFFFFFFFFFFFFFFF NOT AND DUP2 PUSH28 0xFFFFFFFFFFFFFFFFFFFFFFFFFFFFFFFFFFFFFFFFFFFFFFFFFFFFFFFF NOT AND EQ SWAP2 POP POP PUSH2 0x3A2C JUMP JUMPDEST PUSH1 0x1 SWAP1 POP JUMPDEST SWAP5 SWAP4 POP POP POP POP JUMP JUMPDEST PUSH1 0x0 PUSH20 0xFFFFFFFFFFFFFFFFFFFFFFFFFFFFFFFFFFFFFFFF AND DUP3 PUSH20 0xFFFFFFFFFFFFFFFFFFFFFFFFFFFFFFFFFFFFFFFF AND EQ ISZERO PUSH2 0x3AA4 JUMPI PUSH1 0x40 MLOAD PUSH32 0x8C379A000000000000000000000000000000000000000000000000000000000 DUP2 MSTORE PUSH1 0x4 ADD PUSH2 0x3A9B SWAP1 PUSH2 0x4B5F JUMP JUMPDEST PUSH1 0x40 MLOAD DUP1 SWAP2 SUB SWAP1 REVERT JUMPDEST PUSH2 0x3AAD DUP2 PUSH2 0x2DB8 JUMP JUMPDEST ISZERO PUSH2 0x3AED JUMPI PUSH1 0x40 MLOAD PUSH32 0x8C379A000000000000000000000000000000000000000000000000000000000 DUP2 MSTORE PUSH1 0x4 ADD PUSH2 0x3AE4 SWAP1 PUSH2 0x49FF JUMP JUMPDEST PUSH1 0x40 MLOAD DUP1 SWAP2 SUB SWAP1 REVERT JUMPDEST PUSH2 0x3AF9 PUSH1 0x0 DUP4 DUP4 PUSH2 0x383D JUMP JUMPDEST PUSH1 0x1 PUSH1 0x3 PUSH1 0x0 DUP5 PUSH20 0xFFFFFFFFFFFFFFFFFFFFFFFFFFFFFFFFFFFFFFFF AND PUSH20 0xFFFFFFFFFFFFFFFFFFFFFFFFFFFFFFFFFFFFFFFF AND DUP2 MSTORE PUSH1 0x20 ADD SWAP1 DUP2 MSTORE PUSH1 0x20 ADD PUSH1 0x0 KECCAK256 PUSH1 0x0 DUP3 DUP3 SLOAD PUSH2 0x3B49 SWAP2 SWAP1 PUSH2 0x4ED7 JUMP JUMPDEST SWAP3 POP POP DUP2 SWAP1 SSTORE POP DUP2 PUSH1 0x2 PUSH1 0x0 DUP4 DUP2 MSTORE PUSH1 0x20 ADD SWAP1 DUP2 MSTORE PUSH1 0x20 ADD PUSH1 0x0 KECCAK256 PUSH1 0x0 PUSH2 0x100 EXP DUP2 SLOAD DUP2 PUSH20 0xFFFFFFFFFFFFFFFFFFFFFFFFFFFFFFFFFFFFFFFF MUL NOT AND SWAP1 DUP4 PUSH20 0xFFFFFFFFFFFFFFFFFFFFFFFFFFFFFFFFFFFFFFFF AND MUL OR SWAP1 SSTORE POP DUP1 DUP3 PUSH20 0xFFFFFFFFFFFFFFFFFFFFFFFFFFFFFFFFFFFFFFFF AND PUSH1 0x0 PUSH20 0xFFFFFFFFFFFFFFFFFFFFFFFFFFFFFFFFFFFFFFFF AND PUSH32 0xDDF252AD1BE2C89B69C2B068FC378DAA952BA7F163C4A11628F55A4DF523B3EF PUSH1 0x40 MLOAD PUSH1 0x40 MLOAD DUP1 SWAP2 SUB SWAP1 LOG4 POP POP JUMP JUMPDEST PUSH1 0x0 DUP1 DUP3 EXTCODESIZE SWAP1 POP PUSH1 0x0 DUP2 GT SWAP2 POP POP SWAP2 SWAP1 POP JUMP JUMPDEST DUP3 DUP1 SLOAD PUSH2 0x3C21 SWAP1 PUSH2 0x537B JUMP JUMPDEST SWAP1 PUSH1 0x0 MSTORE PUSH1 0x20 PUSH1 0x0 KECCAK256 SWAP1 PUSH1 0x1F ADD PUSH1 0x20 SWAP1 DIV DUP2 ADD SWAP3 DUP3 PUSH2 0x3C43 JUMPI PUSH1 0x0 DUP6 SSTORE PUSH2 0x3C8A JUMP JUMPDEST DUP3 PUSH1 0x1F LT PUSH2 0x3C5C JUMPI DUP1 MLOAD PUSH1 0xFF NOT AND DUP4 DUP1 ADD OR DUP6 SSTORE PUSH2 0x3C8A JUMP JUMPDEST DUP3 DUP1 ADD PUSH1 0x1 ADD DUP6 SSTORE DUP3 ISZERO PUSH2 0x3C8A JUMPI SWAP2 DUP3 ADD JUMPDEST DUP3 DUP2 GT ISZERO PUSH2 0x3C89 JUMPI DUP3 MLOAD DUP3 SSTORE SWAP2 PUSH1 0x20 ADD SWAP2 SWAP1 PUSH1 0x1 ADD SWAP1 PUSH2 0x3C6E JUMP JUMPDEST JUMPDEST POP SWAP1 POP PUSH2 0x3C97 SWAP2 SWAP1 PUSH2 0x3D11 JUMP JUMPDEST POP SWAP1 JUMP JUMPDEST PUSH1 0x40 MLOAD DUP1 PUSH2 0x180 ADD PUSH1 0x40 MSTORE DUP1 PUSH1 0xC SWAP1 PUSH1 0x20 DUP3 MUL DUP1 CALLDATASIZE DUP4 CALLDATACOPY DUP1 DUP3 ADD SWAP2 POP POP SWAP1 POP POP SWAP1 JUMP JUMPDEST PUSH1 0x40 MLOAD DUP1 PUSH1 0xE0 ADD PUSH1 0x40 MSTORE DUP1 PUSH1 0x0 PUSH2 0xFFFF AND DUP2 MSTORE PUSH1 0x20 ADD PUSH1 0x0 PUSH1 0xFF AND DUP2 MSTORE PUSH1 0x20 ADD PUSH1 0x0 PUSH1 0xFF AND DUP2 MSTORE PUSH1 0x20 ADD PUSH1 0x0 PUSH1 0xFF AND DUP2 MSTORE PUSH1 0x20 ADD PUSH1 0x0 PUSH1 0xFF AND DUP2 MSTORE PUSH1 0x20 ADD PUSH1 0x0 PUSH1 0xFF AND DUP2 MSTORE PUSH1 0x20 ADD PUSH1 0x0 PUSH1 0xFF AND DUP2 MSTORE POP SWAP1 JUMP JUMPDEST JUMPDEST DUP1 DUP3 GT ISZERO PUSH2 0x3D2A JUMPI PUSH1 0x0 DUP2 PUSH1 0x0 SWAP1 SSTORE POP PUSH1 0x1 ADD PUSH2 0x3D12 JUMP JUMPDEST POP SWAP1 JUMP JUMPDEST PUSH1 0x0 PUSH2 0x3D41 PUSH2 0x3D3C DUP5 PUSH2 0x4D9E JUMP JUMPDEST PUSH2 0x4D79 JUMP JUMPDEST SWAP1 POP DUP3 DUP2 MSTORE PUSH1 0x20 DUP2 ADD DUP5 DUP5 DUP5 ADD GT ISZERO PUSH2 0x3D5D JUMPI PUSH2 0x3D5C PUSH2 0x55FF JUMP JUMPDEST JUMPDEST PUSH2 0x3D68 DUP5 DUP3 DUP6 PUSH2 0x5339 JUMP JUMPDEST POP SWAP4 SWAP3 POP POP POP JUMP JUMPDEST PUSH1 0x0 PUSH2 0x3D83 PUSH2 0x3D7E DUP5 PUSH2 0x4DCF JUMP JUMPDEST PUSH2 0x4D79 JUMP JUMPDEST SWAP1 POP DUP3 DUP2 MSTORE PUSH1 0x20 DUP2 ADD DUP5 DUP5 DUP5 ADD GT ISZERO PUSH2 0x3D9F JUMPI PUSH2 0x3D9E PUSH2 0x55FF JUMP JUMPDEST JUMPDEST PUSH2 0x3DAA DUP5 DUP3 DUP6 PUSH2 0x5339 JUMP JUMPDEST POP SWAP4 SWAP3 POP POP POP JUMP JUMPDEST PUSH1 0x0 DUP2 CALLDATALOAD SWAP1 POP PUSH2 0x3DC1 DUP2 PUSH2 0x5CD2 JUMP JUMPDEST SWAP3 SWAP2 POP POP JUMP JUMPDEST PUSH1 0x0 DUP2 CALLDATALOAD SWAP1 POP PUSH2 0x3DD6 DUP2 PUSH2 0x5CE9 JUMP JUMPDEST SWAP3 SWAP2 POP POP JUMP JUMPDEST PUSH1 0x0 DUP2 CALLDATALOAD SWAP1 POP PUSH2 0x3DEB DUP2 PUSH2 0x5D00 JUMP JUMPDEST SWAP3 SWAP2 POP POP JUMP JUMPDEST PUSH1 0x0 DUP2 MLOAD SWAP1 POP PUSH2 0x3E00 DUP2 PUSH2 0x5D00 JUMP JUMPDEST SWAP3 SWAP2 POP POP JUMP JUMPDEST PUSH1 0x0 DUP3 PUSH1 0x1F DUP4 ADD SLT PUSH2 0x3E1B JUMPI PUSH2 0x3E1A PUSH2 0x55FA JUMP JUMPDEST JUMPDEST DUP2 CALLDATALOAD PUSH2 0x3E2B DUP5 DUP3 PUSH1 0x20 DUP7 ADD PUSH2 0x3D2E JUMP JUMPDEST SWAP2 POP POP SWAP3 SWAP2 POP POP JUMP JUMPDEST PUSH1 0x0 DUP2 CALLDATALOAD SWAP1 POP PUSH2 0x3E43 DUP2 PUSH2 0x5D17 JUMP JUMPDEST SWAP3 SWAP2 POP POP JUMP JUMPDEST PUSH1 0x0 DUP3 PUSH1 0x1F DUP4 ADD SLT PUSH2 0x3E5E JUMPI PUSH2 0x3E5D PUSH2 0x55FA JUMP JUMPDEST JUMPDEST DUP2 CALLDATALOAD PUSH2 0x3E6E DUP5 DUP3 PUSH1 0x20 DUP7 ADD PUSH2 0x3D70 JUMP JUMPDEST SWAP2 POP POP SWAP3 SWAP2 POP POP JUMP JUMPDEST PUSH1 0x0 DUP2 CALLDATALOAD SWAP1 POP PUSH2 0x3E86 DUP2 PUSH2 0x5D2E JUMP JUMPDEST SWAP3 SWAP2 POP POP JUMP JUMPDEST PUSH1 0x0 DUP2 CALLDATALOAD SWAP1 POP PUSH2 0x3E9B DUP2 PUSH2 0x5D45 JUMP JUMPDEST SWAP3 SWAP2 POP POP JUMP JUMPDEST PUSH1 0x0 DUP2 CALLDATALOAD SWAP1 POP PUSH2 0x3EB0 DUP2 PUSH2 0x5D5C JUMP JUMPDEST SWAP3 SWAP2 POP POP JUMP JUMPDEST PUSH1 0x0 PUSH1 0x20 DUP3 DUP5 SUB SLT ISZERO PUSH2 0x3ECC JUMPI PUSH2 0x3ECB PUSH2 0x5609 JUMP JUMPDEST JUMPDEST PUSH1 0x0 PUSH2 0x3EDA DUP5 DUP3 DUP6 ADD PUSH2 0x3DB2 JUMP JUMPDEST SWAP2 POP POP SWAP3 SWAP2 POP POP JUMP JUMPDEST PUSH1 0x0 DUP1 PUSH1 0x40 DUP4 DUP6 SUB SLT ISZERO PUSH2 0x3EFA JUMPI PUSH2 0x3EF9 PUSH2 0x5609 JUMP JUMPDEST JUMPDEST PUSH1 0x0 PUSH2 0x3F08 DUP6 DUP3 DUP7 ADD PUSH2 0x3DB2 JUMP JUMPDEST SWAP3 POP POP PUSH1 0x20 PUSH2 0x3F19 DUP6 DUP3 DUP7 ADD PUSH2 0x3DB2 JUMP JUMPDEST SWAP2 POP POP SWAP3 POP SWAP3 SWAP1 POP JUMP JUMPDEST PUSH1 0x0 DUP1 PUSH1 0x0 PUSH1 0x60 DUP5 DUP7 SUB SLT ISZERO PUSH2 0x3F3C JUMPI PUSH2 0x3F3B PUSH2 0x5609 JUMP JUMPDEST JUMPDEST PUSH1 0x0 PUSH2 0x3F4A DUP7 DUP3 DUP8 ADD PUSH2 0x3DB2 JUMP JUMPDEST SWAP4 POP POP PUSH1 0x20 PUSH2 0x3F5B DUP7 DUP3 DUP8 ADD PUSH2 0x3DB2 JUMP JUMPDEST SWAP3 POP POP PUSH1 0x40 PUSH2 0x3F6C DUP7 DUP3 DUP8 ADD PUSH2 0x3E8C JUMP JUMPDEST SWAP2 POP POP SWAP3 POP SWAP3 POP SWAP3 JUMP JUMPDEST PUSH1 0x0 DUP1 PUSH1 0x0 DUP1 PUSH1 0x80 DUP6 DUP8 SUB SLT ISZERO PUSH2 0x3F90 JUMPI PUSH2 0x3F8F PUSH2 0x5609 JUMP JUMPDEST JUMPDEST PUSH1 0x0 PUSH2 0x3F9E DUP8 DUP3 DUP9 ADD PUSH2 0x3DB2 JUMP JUMPDEST SWAP5 POP POP PUSH1 0x20 PUSH2 0x3FAF DUP8 DUP3 DUP9 ADD PUSH2 0x3DB2 JUMP JUMPDEST SWAP4 POP POP PUSH1 0x40 PUSH2 0x3FC0 DUP8 DUP3 DUP9 ADD PUSH2 0x3E8C JUMP JUMPDEST SWAP3 POP POP PUSH1 0x60 DUP6 ADD CALLDATALOAD PUSH8 0xFFFFFFFFFFFFFFFF DUP2 GT ISZERO PUSH2 0x3FE1 JUMPI PUSH2 0x3FE0 PUSH2 0x5604 JUMP JUMPDEST JUMPDEST PUSH2 0x3FED DUP8 DUP3 DUP9 ADD PUSH2 0x3E06 JUMP JUMPDEST SWAP2 POP POP SWAP3 SWAP6 SWAP2 SWAP5 POP SWAP3 POP JUMP JUMPDEST PUSH1 0x0 DUP1 PUSH1 0x40 DUP4 DUP6 SUB SLT ISZERO PUSH2 0x4010 JUMPI PUSH2 0x400F PUSH2 0x5609 JUMP JUMPDEST JUMPDEST PUSH1 0x0 PUSH2 0x401E DUP6 DUP3 DUP7 ADD PUSH2 0x3DB2 JUMP JUMPDEST SWAP3 POP POP PUSH1 0x20 PUSH2 0x402F DUP6 DUP3 DUP7 ADD PUSH2 0x3DC7 JUMP JUMPDEST SWAP2 POP POP SWAP3 POP SWAP3 SWAP1 POP JUMP JUMPDEST PUSH1 0x0 DUP1 PUSH1 0x40 DUP4 DUP6 SUB SLT ISZERO PUSH2 0x4050 JUMPI PUSH2 0x404F PUSH2 0x5609 JUMP JUMPDEST JUMPDEST PUSH1 0x0 PUSH2 0x405E DUP6 DUP3 DUP7 ADD PUSH2 0x3DB2 JUMP JUMPDEST SWAP3 POP POP PUSH1 0x20 PUSH2 0x406F DUP6 DUP3 DUP7 ADD PUSH2 0x3E8C JUMP JUMPDEST SWAP2 POP POP SWAP3 POP SWAP3 SWAP1 POP JUMP JUMPDEST PUSH1 0x0 PUSH1 0x20 DUP3 DUP5 SUB SLT ISZERO PUSH2 0x408F JUMPI PUSH2 0x408E PUSH2 0x5609 JUMP JUMPDEST JUMPDEST PUSH1 0x0 PUSH2 0x409D DUP5 DUP3 DUP6 ADD PUSH2 0x3DDC JUMP JUMPDEST SWAP2 POP POP SWAP3 SWAP2 POP POP JUMP JUMPDEST PUSH1 0x0 PUSH1 0x20 DUP3 DUP5 SUB SLT ISZERO PUSH2 0x40BC JUMPI PUSH2 0x40BB PUSH2 0x5609 JUMP JUMPDEST JUMPDEST PUSH1 0x0 PUSH2 0x40CA DUP5 DUP3 DUP6 ADD PUSH2 0x3DF1 JUMP JUMPDEST SWAP2 POP POP SWAP3 SWAP2 POP POP JUMP JUMPDEST PUSH1 0x0 DUP1 PUSH1 0x40 DUP4 DUP6 SUB SLT ISZERO PUSH2 0x40EA JUMPI PUSH2 0x40E9 PUSH2 0x5609 JUMP JUMPDEST JUMPDEST PUSH1 0x0 PUSH2 0x40F8 DUP6 DUP3 DUP7 ADD PUSH2 0x3E34 JUMP JUMPDEST SWAP3 POP POP PUSH1 0x20 PUSH2 0x4109 DUP6 DUP3 DUP7 ADD PUSH2 0x3E8C JUMP JUMPDEST SWAP2 POP POP SWAP3 POP SWAP3 SWAP1 POP JUMP JUMPDEST PUSH1 0x0 PUSH1 0x20 DUP3 DUP5 SUB SLT ISZERO PUSH2 0x4129 JUMPI PUSH2 0x4128 PUSH2 0x5609 JUMP JUMPDEST JUMPDEST PUSH1 0x0 DUP3 ADD CALLDATALOAD PUSH8 0xFFFFFFFFFFFFFFFF DUP2 GT ISZERO PUSH2 0x4147 JUMPI PUSH2 0x4146 PUSH2 0x5604 JUMP JUMPDEST JUMPDEST PUSH2 0x4153 DUP5 DUP3 DUP6 ADD PUSH2 0x3E49 JUMP JUMPDEST SWAP2 POP POP SWAP3 SWAP2 POP POP JUMP JUMPDEST PUSH1 0x0 PUSH1 0x20 DUP3 DUP5 SUB SLT ISZERO PUSH2 0x4172 JUMPI PUSH2 0x4171 PUSH2 0x5609 JUMP JUMPDEST JUMPDEST PUSH1 0x0 PUSH2 0x4180 DUP5 DUP3 DUP6 ADD PUSH2 0x3E77 JUMP JUMPDEST SWAP2 POP POP SWAP3 SWAP2 POP POP JUMP JUMPDEST PUSH1 0x0 DUP1 PUSH1 0x0 PUSH1 0x60 DUP5 DUP7 SUB SLT ISZERO PUSH2 0x41A2 JUMPI PUSH2 0x41A1 PUSH2 0x5609 JUMP JUMPDEST JUMPDEST PUSH1 0x0 PUSH2 0x41B0 DUP7 DUP3 DUP8 ADD PUSH2 0x3E77 JUMP JUMPDEST SWAP4 POP POP PUSH1 0x20 PUSH2 0x41C1 DUP7 DUP3 DUP8 ADD PUSH2 0x3EA1 JUMP JUMPDEST SWAP3 POP POP PUSH1 0x40 PUSH2 0x41D2 DUP7 DUP3 DUP8 ADD PUSH2 0x3EA1 JUMP JUMPDEST SWAP2 POP POP SWAP3 POP SWAP3 POP SWAP3 JUMP JUMPDEST PUSH1 0x0 DUP1 PUSH1 0x0 DUP1 PUSH1 0x80 DUP6 DUP8 SUB SLT ISZERO PUSH2 0x41F6 JUMPI PUSH2 0x41F5 PUSH2 0x5609 JUMP JUMPDEST JUMPDEST PUSH1 0x0 PUSH2 0x4204 DUP8 DUP3 DUP9 ADD PUSH2 0x3E77 JUMP JUMPDEST SWAP5 POP POP PUSH1 0x20 PUSH2 0x4215 DUP8 DUP3 DUP9 ADD PUSH2 0x3EA1 JUMP JUMPDEST SWAP4 POP POP PUSH1 0x40 PUSH2 0x4226 DUP8 DUP3 DUP9 ADD PUSH2 0x3EA1 JUMP JUMPDEST SWAP3 POP POP PUSH1 0x60 PUSH2 0x4237 DUP8 DUP3 DUP9 ADD PUSH2 0x3EA1 JUMP JUMPDEST SWAP2 POP POP SWAP3 SWAP6 SWAP2 SWAP5 POP SWAP3 POP JUMP JUMPDEST PUSH1 0x0 DUP1 PUSH1 0x0 DUP1 PUSH1 0x0 PUSH1 0xA0 DUP7 DUP9 SUB SLT ISZERO PUSH2 0x425F JUMPI PUSH2 0x425E PUSH2 0x5609 JUMP JUMPDEST JUMPDEST PUSH1 0x0 PUSH2 0x426D DUP9 DUP3 DUP10 ADD PUSH2 0x3E77 JUMP JUMPDEST SWAP6 POP POP PUSH1 0x20 PUSH2 0x427E DUP9 DUP3 DUP10 ADD PUSH2 0x3EA1 JUMP JUMPDEST SWAP5 POP POP PUSH1 0x40 PUSH2 0x428F DUP9 DUP3 DUP10 ADD PUSH2 0x3EA1 JUMP JUMPDEST SWAP4 POP POP PUSH1 0x60 PUSH2 0x42A0 DUP9 DUP3 DUP10 ADD PUSH2 0x3EA1 JUMP JUMPDEST SWAP3 POP POP PUSH1 0x80 PUSH2 0x42B1 DUP9 DUP3 DUP10 ADD PUSH2 0x3EA1 JUMP JUMPDEST SWAP2 POP POP SWAP3 SWAP6 POP SWAP3 SWAP6 SWAP1 SWAP4 POP JUMP JUMPDEST PUSH1 0x0 DUP1 PUSH1 0x0 DUP1 PUSH1 0x0 DUP1 PUSH1 0xC0 DUP8 DUP10 SUB SLT ISZERO PUSH2 0x42DB JUMPI PUSH2 0x42DA PUSH2 0x5609 JUMP JUMPDEST JUMPDEST PUSH1 0x0 PUSH2 0x42E9 DUP10 DUP3 DUP11 ADD PUSH2 0x3E77 JUMP JUMPDEST SWAP7 POP POP PUSH1 0x20 PUSH2 0x42FA DUP10 DUP3 DUP11 ADD PUSH2 0x3EA1 JUMP JUMPDEST SWAP6 POP POP PUSH1 0x40 PUSH2 0x430B DUP10 DUP3 DUP11 ADD PUSH2 0x3EA1 JUMP JUMPDEST SWAP5 POP POP PUSH1 0x60 PUSH2 0x431C DUP10 DUP3 DUP11 ADD PUSH2 0x3EA1 JUMP JUMPDEST SWAP4 POP POP PUSH1 0x80 PUSH2 0x432D DUP10 DUP3 DUP11 ADD PUSH2 0x3EA1 JUMP JUMPDEST SWAP3 POP POP PUSH1 0xA0 PUSH2 0x433E DUP10 DUP3 DUP11 ADD PUSH2 0x3EA1 JUMP JUMPDEST SWAP2 POP POP SWAP3 SWAP6 POP SWAP3 SWAP6 POP SWAP3 SWAP6 JUMP JUMPDEST PUSH1 0x0 PUSH1 0x20 DUP3 DUP5 SUB SLT ISZERO PUSH2 0x4361 JUMPI PUSH2 0x4360 PUSH2 0x5609 JUMP JUMPDEST JUMPDEST PUSH1 0x0 PUSH2 0x436F DUP5 DUP3 DUP6 ADD PUSH2 0x3E8C JUMP JUMPDEST SWAP2 POP POP SWAP3 SWAP2 POP POP JUMP JUMPDEST PUSH1 0x0 PUSH1 0x20 DUP3 DUP5 SUB SLT ISZERO PUSH2 0x438E JUMPI PUSH2 0x438D PUSH2 0x5609 JUMP JUMPDEST JUMPDEST PUSH1 0x0 PUSH2 0x439C DUP5 DUP3 DUP6 ADD PUSH2 0x3EA1 JUMP JUMPDEST SWAP2 POP POP SWAP3 SWAP2 POP POP JUMP JUMPDEST PUSH1 0x0 DUP1 PUSH1 0x40 DUP4 DUP6 SUB SLT ISZERO PUSH2 0x43BC JUMPI PUSH2 0x43BB PUSH2 0x5609 JUMP JUMPDEST JUMPDEST PUSH1 0x0 PUSH2 0x43CA DUP6 DUP3 DUP7 ADD PUSH2 0x3EA1 JUMP JUMPDEST SWAP3 POP POP PUSH1 0x20 PUSH2 0x43DB DUP6 DUP3 DUP7 ADD PUSH2 0x3E77 JUMP JUMPDEST SWAP2 POP POP SWAP3 POP SWAP3 SWAP1 POP JUMP JUMPDEST PUSH2 0x43EE DUP2 PUSH2 0x52A0 JUMP JUMPDEST DUP3 MSTORE POP POP JUMP JUMPDEST PUSH2 0x43FD DUP2 PUSH2 0x52B2 JUMP JUMPDEST DUP3 MSTORE POP POP JUMP JUMPDEST PUSH1 0x0 PUSH2 0x440E DUP3 PUSH2 0x4E00 JUMP JUMPDEST PUSH2 0x4418 DUP2 DUP6 PUSH2 0x4E16 JUMP JUMPDEST SWAP4 POP PUSH2 0x4428 DUP2 DUP6 PUSH1 0x20 DUP7 ADD PUSH2 0x5348 JUMP JUMPDEST PUSH2 0x4431 DUP2 PUSH2 0x560E JUMP JUMPDEST DUP5 ADD SWAP2 POP POP SWAP3 SWAP2 POP POP JUMP JUMPDEST PUSH2 0x4445 DUP2 PUSH2 0x52EA JUMP JUMPDEST DUP3 MSTORE POP POP JUMP JUMPDEST PUSH1 0x0 PUSH2 0x4456 DUP3 PUSH2 0x4E0B JUMP JUMPDEST PUSH2 0x4460 DUP2 DUP6 PUSH2 0x4E27 JUMP JUMPDEST SWAP4 POP PUSH2 0x4470 DUP2 DUP6 PUSH1 0x20 DUP7 ADD PUSH2 0x5348 JUMP JUMPDEST PUSH2 0x4479 DUP2 PUSH2 0x560E JUMP JUMPDEST DUP5 ADD SWAP2 POP POP SWAP3 SWAP2 POP POP JUMP JUMPDEST PUSH1 0x0 PUSH2 0x448F DUP3 PUSH2 0x4E0B JUMP JUMPDEST PUSH2 0x4499 DUP2 DUP6 PUSH2 0x4E38 JUMP JUMPDEST SWAP4 POP PUSH2 0x44A9 DUP2 DUP6 PUSH1 0x20 DUP7 ADD PUSH2 0x5348 JUMP JUMPDEST DUP1 DUP5 ADD SWAP2 POP POP SWAP3 SWAP2 POP POP JUMP JUMPDEST PUSH1 0x0 PUSH2 0x44C2 PUSH1 0x1E DUP4 PUSH2 0x4E27 JUMP JUMPDEST SWAP2 POP PUSH2 0x44CD DUP3 PUSH2 0x561F JUMP JUMPDEST PUSH1 0x20 DUP3 ADD SWAP1 POP SWAP2 SWAP1 POP JUMP JUMPDEST PUSH1 0x0 PUSH2 0x44E5 PUSH1 0x32 DUP4 PUSH2 0x4E27 JUMP JUMPDEST SWAP2 POP PUSH2 0x44F0 DUP3 PUSH2 0x5648 JUMP JUMPDEST PUSH1 0x40 DUP3 ADD SWAP1 POP SWAP2 SWAP1 POP JUMP JUMPDEST PUSH1 0x0 PUSH2 0x4508 PUSH1 0x26 DUP4 PUSH2 0x4E27 JUMP JUMPDEST SWAP2 POP PUSH2 0x4513 DUP3 PUSH2 0x5697 JUMP JUMPDEST PUSH1 0x40 DUP3 ADD SWAP1 POP SWAP2 SWAP1 POP JUMP JUMPDEST PUSH1 0x0 PUSH2 0x452B PUSH1 0x1C DUP4 PUSH2 0x4E27 JUMP JUMPDEST SWAP2 POP PUSH2 0x4536 DUP3 PUSH2 0x56E6 JUMP JUMPDEST PUSH1 0x20 DUP3 ADD SWAP1 POP SWAP2 SWAP1 POP JUMP JUMPDEST PUSH1 0x0 PUSH2 0x454E PUSH1 0x24 DUP4 PUSH2 0x4E27 JUMP JUMPDEST SWAP2 POP PUSH2 0x4559 DUP3 PUSH2 0x570F JUMP JUMPDEST PUSH1 0x40 DUP3 ADD SWAP1 POP SWAP2 SWAP1 POP JUMP JUMPDEST PUSH1 0x0 PUSH2 0x4571 PUSH1 0x19 DUP4 PUSH2 0x4E27 JUMP JUMPDEST SWAP2 POP PUSH2 0x457C DUP3 PUSH2 0x575E JUMP JUMPDEST PUSH1 0x20 DUP3 ADD SWAP1 POP SWAP2 SWAP1 POP JUMP JUMPDEST PUSH1 0x0 PUSH2 0x4594 PUSH1 0x1B DUP4 PUSH2 0x4E27 JUMP JUMPDEST SWAP2 POP PUSH2 0x459F DUP3 PUSH2 0x5787 JUMP JUMPDEST PUSH1 0x20 DUP3 ADD SWAP1 POP SWAP2 SWAP1 POP JUMP JUMPDEST PUSH1 0x0 PUSH2 0x45B7 PUSH1 0x24 DUP4 PUSH2 0x4E27 JUMP JUMPDEST SWAP2 POP PUSH2 0x45C2 DUP3 PUSH2 0x57B0 JUMP JUMPDEST PUSH1 0x40 DUP3 ADD SWAP1 POP SWAP2 SWAP1 POP JUMP JUMPDEST PUSH1 0x0 PUSH2 0x45DA PUSH1 0x27 DUP4 PUSH2 0x4E27 JUMP JUMPDEST SWAP2 POP PUSH2 0x45E5 DUP3 PUSH2 0x57FF JUMP JUMPDEST PUSH1 0x40 DUP3 ADD SWAP1 POP SWAP2 SWAP1 POP JUMP JUMPDEST PUSH1 0x0 PUSH2 0x45FD PUSH1 0x1C DUP4 PUSH2 0x4E27 JUMP JUMPDEST SWAP2 POP PUSH2 0x4608 DUP3 PUSH2 0x584E JUMP JUMPDEST PUSH1 0x20 DUP3 ADD SWAP1 POP SWAP2 SWAP1 POP JUMP JUMPDEST PUSH1 0x0 PUSH2 0x4620 PUSH1 0x2C DUP4 PUSH2 0x4E27 JUMP JUMPDEST SWAP2 POP PUSH2 0x462B DUP3 PUSH2 0x5877 JUMP JUMPDEST PUSH1 0x40 DUP3 ADD SWAP1 POP SWAP2 SWAP1 POP JUMP JUMPDEST PUSH1 0x0 PUSH2 0x4643 PUSH1 0x38 DUP4 PUSH2 0x4E27 JUMP JUMPDEST SWAP2 POP PUSH2 0x464E DUP3 PUSH2 0x58C6 JUMP JUMPDEST PUSH1 0x40 DUP3 ADD SWAP1 POP SWAP2 SWAP1 POP JUMP JUMPDEST PUSH1 0x0 PUSH2 0x4666 PUSH1 0x2A DUP4 PUSH2 0x4E27 JUMP JUMPDEST SWAP2 POP PUSH2 0x4671 DUP3 PUSH2 0x5915 JUMP JUMPDEST PUSH1 0x40 DUP3 ADD SWAP1 POP SWAP2 SWAP1 POP JUMP JUMPDEST PUSH1 0x0 PUSH2 0x4689 PUSH1 0x29 DUP4 PUSH2 0x4E27 JUMP JUMPDEST SWAP2 POP PUSH2 0x4694 DUP3 PUSH2 0x5964 JUMP JUMPDEST PUSH1 0x40 DUP3 ADD SWAP1 POP SWAP2 SWAP1 POP JUMP JUMPDEST PUSH1 0x0 PUSH2 0x46AC PUSH1 0x20 DUP4 PUSH2 0x4E27 JUMP JUMPDEST SWAP2 POP PUSH2 0x46B7 DUP3 PUSH2 0x59B3 JUMP JUMPDEST PUSH1 0x20 DUP3 ADD SWAP1 POP SWAP2 SWAP1 POP JUMP JUMPDEST PUSH1 0x0 PUSH2 0x46CF PUSH1 0x15 DUP4 PUSH2 0x4E27 JUMP JUMPDEST SWAP2 POP PUSH2 0x46DA DUP3 PUSH2 0x59DC JUMP JUMPDEST PUSH1 0x20 DUP3 ADD SWAP1 POP SWAP2 SWAP1 POP JUMP JUMPDEST PUSH1 0x0 PUSH2 0x46F2 PUSH1 0x15 DUP4 PUSH2 0x4E27 JUMP JUMPDEST SWAP2 POP PUSH2 0x46FD DUP3 PUSH2 0x5A05 JUMP JUMPDEST PUSH1 0x20 DUP3 ADD SWAP1 POP SWAP2 SWAP1 POP JUMP JUMPDEST PUSH1 0x0 PUSH2 0x4715 PUSH1 0x2C DUP4 PUSH2 0x4E27 JUMP JUMPDEST SWAP2 POP PUSH2 0x4720 DUP3 PUSH2 0x5A2E JUMP JUMPDEST PUSH1 0x40 DUP3 ADD SWAP1 POP SWAP2 SWAP1 POP JUMP JUMPDEST PUSH1 0x0 PUSH2 0x4738 PUSH1 0x20 DUP4 PUSH2 0x4E27 JUMP JUMPDEST SWAP2 POP PUSH2 0x4743 DUP3 PUSH2 0x5A7D JUMP JUMPDEST PUSH1 0x20 DUP3 ADD SWAP1 POP SWAP2 SWAP1 POP JUMP JUMPDEST PUSH1 0x0 PUSH2 0x475B PUSH1 0x29 DUP4 PUSH2 0x4E27 JUMP JUMPDEST SWAP2 POP PUSH2 0x4766 DUP3 PUSH2 0x5AA6 JUMP JUMPDEST PUSH1 0x40 DUP3 ADD SWAP1 POP SWAP2 SWAP1 POP JUMP JUMPDEST PUSH1 0x0 PUSH2 0x477E PUSH1 0x2F DUP4 PUSH2 0x4E27 JUMP JUMPDEST SWAP2 POP PUSH2 0x4789 DUP3 PUSH2 0x5AF5 JUMP JUMPDEST PUSH1 0x40 DUP3 ADD SWAP1 POP SWAP2 SWAP1 POP JUMP JUMPDEST PUSH1 0x0 PUSH2 0x47A1 PUSH1 0x21 DUP4 PUSH2 0x4E27 JUMP JUMPDEST SWAP2 POP PUSH2 0x47AC DUP3 PUSH2 0x5B44 JUMP JUMPDEST PUSH1 0x40 DUP3 ADD SWAP1 POP SWAP2 SWAP1 POP JUMP JUMPDEST PUSH1 0x0 PUSH2 0x47C4 PUSH1 0x1C DUP4 PUSH2 0x4E27 JUMP JUMPDEST SWAP2 POP PUSH2 0x47CF DUP3 PUSH2 0x5B93 JUMP JUMPDEST PUSH1 0x20 DUP3 ADD SWAP1 POP SWAP2 SWAP1 POP JUMP JUMPDEST PUSH1 0x0 PUSH2 0x47E7 PUSH1 0x2F DUP4 PUSH2 0x4E27 JUMP JUMPDEST SWAP2 POP PUSH2 0x47F2 DUP3 PUSH2 0x5BBC JUMP JUMPDEST PUSH1 0x40 DUP3 ADD SWAP1 POP SWAP2 SWAP1 POP JUMP JUMPDEST PUSH1 0x0 PUSH2 0x480A PUSH1 0x31 DUP4 PUSH2 0x4E27 JUMP JUMPDEST SWAP2 POP PUSH2 0x4815 DUP3 PUSH2 0x5C0B JUMP JUMPDEST PUSH1 0x40 DUP3 ADD SWAP1 POP SWAP2 SWAP1 POP JUMP JUMPDEST PUSH1 0x0 PUSH2 0x482D PUSH1 0x30 DUP4 PUSH2 0x4E27 JUMP JUMPDEST SWAP2 POP PUSH2 0x4838 DUP3 PUSH2 0x5C5A JUMP JUMPDEST PUSH1 0x40 DUP3 ADD SWAP1 POP SWAP2 SWAP1 POP JUMP JUMPDEST PUSH1 0x0 PUSH2 0x4850 PUSH1 0x13 DUP4 PUSH2 0x4E27 JUMP JUMPDEST SWAP2 POP PUSH2 0x485B DUP3 PUSH2 0x5CA9 JUMP JUMPDEST PUSH1 0x20 DUP3 ADD SWAP1 POP SWAP2 SWAP1 POP JUMP JUMPDEST PUSH2 0x486F DUP2 PUSH2 0x52F4 JUMP JUMPDEST DUP3 MSTORE POP POP JUMP JUMPDEST PUSH2 0x487E DUP2 PUSH2 0x5322 JUMP JUMPDEST DUP3 MSTORE POP POP JUMP JUMPDEST PUSH2 0x488D DUP2 PUSH2 0x532C JUMP JUMPDEST DUP3 MSTORE POP POP JUMP JUMPDEST PUSH1 0x0 PUSH2 0x489F DUP3 DUP6 PUSH2 0x4484 JUMP JUMPDEST SWAP2 POP PUSH2 0x48AB DUP3 DUP5 PUSH2 0x4484 JUMP JUMPDEST SWAP2 POP DUP2 SWAP1 POP SWAP4 SWAP3 POP POP POP JUMP JUMPDEST PUSH1 0x0 PUSH1 0x20 DUP3 ADD SWAP1 POP PUSH2 0x48CC PUSH1 0x0 DUP4 ADD DUP5 PUSH2 0x43E5 JUMP JUMPDEST SWAP3 SWAP2 POP POP JUMP JUMPDEST PUSH1 0x0 PUSH1 0x80 DUP3 ADD SWAP1 POP PUSH2 0x48E7 PUSH1 0x0 DUP4 ADD DUP8 PUSH2 0x43E5 JUMP JUMPDEST PUSH2 0x48F4 PUSH1 0x20 DUP4 ADD DUP7 PUSH2 0x43E5 JUMP JUMPDEST PUSH2 0x4901 PUSH1 0x40 DUP4 ADD DUP6 PUSH2 0x4875 JUMP JUMPDEST DUP2 DUP2 SUB PUSH1 0x60 DUP4 ADD MSTORE PUSH2 0x4913 DUP2 DUP5 PUSH2 0x4403 JUMP JUMPDEST SWAP1 POP SWAP6 SWAP5 POP POP POP POP POP JUMP JUMPDEST PUSH1 0x0 PUSH1 0x40 DUP3 ADD SWAP1 POP PUSH2 0x4933 PUSH1 0x0 DUP4 ADD DUP6 PUSH2 0x43E5 JUMP JUMPDEST PUSH2 0x4940 PUSH1 0x20 DUP4 ADD DUP5 PUSH2 0x4875 JUMP JUMPDEST SWAP4 SWAP3 POP POP POP JUMP JUMPDEST PUSH1 0x0 PUSH1 0x20 DUP3 ADD SWAP1 POP PUSH2 0x495C PUSH1 0x0 DUP4 ADD DUP5 PUSH2 0x43F4 JUMP JUMPDEST SWAP3 SWAP2 POP POP JUMP JUMPDEST PUSH1 0x0 PUSH1 0x20 DUP3 ADD SWAP1 POP PUSH2 0x4977 PUSH1 0x0 DUP4 ADD DUP5 PUSH2 0x443C JUMP JUMPDEST SWAP3 SWAP2 POP POP JUMP JUMPDEST PUSH1 0x0 PUSH1 0x20 DUP3 ADD SWAP1 POP DUP2 DUP2 SUB PUSH1 0x0 DUP4 ADD MSTORE PUSH2 0x4997 DUP2 DUP5 PUSH2 0x444B JUMP JUMPDEST SWAP1 POP SWAP3 SWAP2 POP POP JUMP JUMPDEST PUSH1 0x0 PUSH1 0x20 DUP3 ADD SWAP1 POP DUP2 DUP2 SUB PUSH1 0x0 DUP4 ADD MSTORE PUSH2 0x49B8 DUP2 PUSH2 0x44B5 JUMP JUMPDEST SWAP1 POP SWAP2 SWAP1 POP JUMP JUMPDEST PUSH1 0x0 PUSH1 0x20 DUP3 ADD SWAP1 POP DUP2 DUP2 SUB PUSH1 0x0 DUP4 ADD MSTORE PUSH2 0x49D8 DUP2 PUSH2 0x44D8 JUMP JUMPDEST SWAP1 POP SWAP2 SWAP1 POP JUMP JUMPDEST PUSH1 0x0 PUSH1 0x20 DUP3 ADD SWAP1 POP DUP2 DUP2 SUB PUSH1 0x0 DUP4 ADD MSTORE PUSH2 0x49F8 DUP2 PUSH2 0x44FB JUMP JUMPDEST SWAP1 POP SWAP2 SWAP1 POP JUMP JUMPDEST PUSH1 0x0 PUSH1 0x20 DUP3 ADD SWAP1 POP DUP2 DUP2 SUB PUSH1 0x0 DUP4 ADD MSTORE PUSH2 0x4A18 DUP2 PUSH2 0x451E JUMP JUMPDEST SWAP1 POP SWAP2 SWAP1 POP JUMP JUMPDEST PUSH1 0x0 PUSH1 0x20 DUP3 ADD SWAP1 POP DUP2 DUP2 SUB PUSH1 0x0 DUP4 ADD MSTORE PUSH2 0x4A38 DUP2 PUSH2 0x4541 JUMP JUMPDEST SWAP1 POP SWAP2 SWAP1 POP JUMP JUMPDEST PUSH1 0x0 PUSH1 0x20 DUP3 ADD SWAP1 POP DUP2 DUP2 SUB PUSH1 0x0 DUP4 ADD MSTORE PUSH2 0x4A58 DUP2 PUSH2 0x4564 JUMP JUMPDEST SWAP1 POP SWAP2 SWAP1 POP JUMP JUMPDEST PUSH1 0x0 PUSH1 0x20 DUP3 ADD SWAP1 POP DUP2 DUP2 SUB PUSH1 0x0 DUP4 ADD MSTORE PUSH2 0x4A78 DUP2 PUSH2 0x4587 JUMP JUMPDEST SWAP1 POP SWAP2 SWAP1 POP JUMP JUMPDEST PUSH1 0x0 PUSH1 0x20 DUP3 ADD SWAP1 POP DUP2 DUP2 SUB PUSH1 0x0 DUP4 ADD MSTORE PUSH2 0x4A98 DUP2 PUSH2 0x45AA JUMP JUMPDEST SWAP1 POP SWAP2 SWAP1 POP JUMP JUMPDEST PUSH1 0x0 PUSH1 0x20 DUP3 ADD SWAP1 POP DUP2 DUP2 SUB PUSH1 0x0 DUP4 ADD MSTORE PUSH2 0x4AB8 DUP2 PUSH2 0x45CD JUMP JUMPDEST SWAP1 POP SWAP2 SWAP1 POP JUMP JUMPDEST PUSH1 0x0 PUSH1 0x20 DUP3 ADD SWAP1 POP DUP2 DUP2 SUB PUSH1 0x0 DUP4 ADD MSTORE PUSH2 0x4AD8 DUP2 PUSH2 0x45F0 JUMP JUMPDEST SWAP1 POP SWAP2 SWAP1 POP JUMP JUMPDEST PUSH1 0x0 PUSH1 0x20 DUP3 ADD SWAP1 POP DUP2 DUP2 SUB PUSH1 0x0 DUP4 ADD MSTORE PUSH2 0x4AF8 DUP2 PUSH2 0x4613 JUMP JUMPDEST SWAP1 POP SWAP2 SWAP1 POP JUMP JUMPDEST PUSH1 0x0 PUSH1 0x20 DUP3 ADD SWAP1 POP DUP2 DUP2 SUB PUSH1 0x0 DUP4 ADD MSTORE PUSH2 0x4B18 DUP2 PUSH2 0x4636 JUMP JUMPDEST SWAP1 POP SWAP2 SWAP1 POP JUMP JUMPDEST PUSH1 0x0 PUSH1 0x20 DUP3 ADD SWAP1 POP DUP2 DUP2 SUB PUSH1 0x0 DUP4 ADD MSTORE PUSH2 0x4B38 DUP2 PUSH2 0x4659 JUMP JUMPDEST SWAP1 POP SWAP2 SWAP1 POP JUMP JUMPDEST PUSH1 0x0 PUSH1 0x20 DUP3 ADD SWAP1 POP DUP2 DUP2 SUB PUSH1 0x0 DUP4 ADD MSTORE PUSH2 0x4B58 DUP2 PUSH2 0x467C JUMP JUMPDEST SWAP1 POP SWAP2 SWAP1 POP JUMP JUMPDEST PUSH1 0x0 PUSH1 0x20 DUP3 ADD SWAP1 POP DUP2 DUP2 SUB PUSH1 0x0 DUP4 ADD MSTORE PUSH2 0x4B78 DUP2 PUSH2 0x469F JUMP JUMPDEST SWAP1 POP SWAP2 SWAP1 POP JUMP JUMPDEST PUSH1 0x0 PUSH1 0x20 DUP3 ADD SWAP1 POP DUP2 DUP2 SUB PUSH1 0x0 DUP4 ADD MSTORE PUSH2 0x4B98 DUP2 PUSH2 0x46C2 JUMP JUMPDEST SWAP1 POP SWAP2 SWAP1 POP JUMP JUMPDEST PUSH1 0x0 PUSH1 0x20 DUP3 ADD SWAP1 POP DUP2 DUP2 SUB PUSH1 0x0 DUP4 ADD MSTORE PUSH2 0x4BB8 DUP2 PUSH2 0x46E5 JUMP JUMPDEST SWAP1 POP SWAP2 SWAP1 POP JUMP JUMPDEST PUSH1 0x0 PUSH1 0x20 DUP3 ADD SWAP1 POP DUP2 DUP2 SUB PUSH1 0x0 DUP4 ADD MSTORE PUSH2 0x4BD8 DUP2 PUSH2 0x4708 JUMP JUMPDEST SWAP1 POP SWAP2 SWAP1 POP JUMP JUMPDEST PUSH1 0x0 PUSH1 0x20 DUP3 ADD SWAP1 POP DUP2 DUP2 SUB PUSH1 0x0 DUP4 ADD MSTORE PUSH2 0x4BF8 DUP2 PUSH2 0x472B JUMP JUMPDEST SWAP1 POP SWAP2 SWAP1 POP JUMP JUMPDEST PUSH1 0x0 PUSH1 0x20 DUP3 ADD SWAP1 POP DUP2 DUP2 SUB PUSH1 0x0 DUP4 ADD MSTORE PUSH2 0x4C18 DUP2 PUSH2 0x474E JUMP JUMPDEST SWAP1 POP SWAP2 SWAP1 POP JUMP JUMPDEST PUSH1 0x0 PUSH1 0x20 DUP3 ADD SWAP1 POP DUP2 DUP2 SUB PUSH1 0x0 DUP4 ADD MSTORE PUSH2 0x4C38 DUP2 PUSH2 0x4771 JUMP JUMPDEST SWAP1 POP SWAP2 SWAP1 POP JUMP JUMPDEST PUSH1 0x0 PUSH1 0x20 DUP3 ADD SWAP1 POP DUP2 DUP2 SUB PUSH1 0x0 DUP4 ADD MSTORE PUSH2 0x4C58 DUP2 PUSH2 0x4794 JUMP JUMPDEST SWAP1 POP SWAP2 SWAP1 POP JUMP JUMPDEST PUSH1 0x0 PUSH1 0x20 DUP3 ADD SWAP1 POP DUP2 DUP2 SUB PUSH1 0x0 DUP4 ADD MSTORE PUSH2 0x4C78 DUP2 PUSH2 0x47B7 JUMP JUMPDEST SWAP1 POP SWAP2 SWAP1 POP JUMP JUMPDEST PUSH1 0x0 PUSH1 0x20 DUP3 ADD SWAP1 POP DUP2 DUP2 SUB PUSH1 0x0 DUP4 ADD MSTORE PUSH2 0x4C98 DUP2 PUSH2 0x47DA JUMP JUMPDEST SWAP1 POP SWAP2 SWAP1 POP JUMP JUMPDEST PUSH1 0x0 PUSH1 0x20 DUP3 ADD SWAP1 POP DUP2 DUP2 SUB PUSH1 0x0 DUP4 ADD MSTORE PUSH2 0x4CB8 DUP2 PUSH2 0x47FD JUMP JUMPDEST SWAP1 POP SWAP2 SWAP1 POP JUMP JUMPDEST PUSH1 0x0 PUSH1 0x20 DUP3 ADD SWAP1 POP DUP2 DUP2 SUB PUSH1 0x0 DUP4 ADD MSTORE PUSH2 0x4CD8 DUP2 PUSH2 0x4820 JUMP JUMPDEST SWAP1 POP SWAP2 SWAP1 POP JUMP JUMPDEST PUSH1 0x0 PUSH1 0x20 DUP3 ADD SWAP1 POP DUP2 DUP2 SUB PUSH1 0x0 DUP4 ADD MSTORE PUSH2 0x4CF8 DUP2 PUSH2 0x4843 JUMP JUMPDEST SWAP1 POP SWAP2 SWAP1 POP JUMP JUMPDEST PUSH1 0x0 PUSH1 0x20 DUP3 ADD SWAP1 POP PUSH2 0x4D14 PUSH1 0x0 DUP4 ADD DUP5 PUSH2 0x4866 JUMP JUMPDEST SWAP3 SWAP2 POP POP JUMP JUMPDEST PUSH1 0x0 PUSH1 0x20 DUP3 ADD SWAP1 POP PUSH2 0x4D2F PUSH1 0x0 DUP4 ADD DUP5 PUSH2 0x4875 JUMP JUMPDEST SWAP3 SWAP2 POP POP JUMP JUMPDEST PUSH1 0x0 PUSH1 0x20 DUP3 ADD SWAP1 POP PUSH2 0x4D4A PUSH1 0x0 DUP4 ADD DUP5 PUSH2 0x4884 JUMP JUMPDEST SWAP3 SWAP2 POP POP JUMP JUMPDEST PUSH1 0x0 PUSH1 0x40 DUP3 ADD SWAP1 POP PUSH2 0x4D65 PUSH1 0x0 DUP4 ADD DUP6 PUSH2 0x4884 JUMP JUMPDEST PUSH2 0x4D72 PUSH1 0x20 DUP4 ADD DUP5 PUSH2 0x4884 JUMP JUMPDEST SWAP4 SWAP3 POP POP POP JUMP JUMPDEST PUSH1 0x0 PUSH2 0x4D83 PUSH2 0x4D94 JUMP JUMPDEST SWAP1 POP PUSH2 0x4D8F DUP3 DUP3 PUSH2 0x53AD JUMP JUMPDEST SWAP2 SWAP1 POP JUMP JUMPDEST PUSH1 0x0 PUSH1 0x40 MLOAD SWAP1 POP SWAP1 JUMP JUMPDEST PUSH1 0x0 PUSH8 0xFFFFFFFFFFFFFFFF DUP3 GT ISZERO PUSH2 0x4DB9 JUMPI PUSH2 0x4DB8 PUSH2 0x55CB JUMP JUMPDEST JUMPDEST PUSH2 0x4DC2 DUP3 PUSH2 0x560E JUMP JUMPDEST SWAP1 POP PUSH1 0x20 DUP2 ADD SWAP1 POP SWAP2 SWAP1 POP JUMP JUMPDEST PUSH1 0x0 PUSH8 0xFFFFFFFFFFFFFFFF DUP3 GT ISZERO PUSH2 0x4DEA JUMPI PUSH2 0x4DE9 PUSH2 0x55CB JUMP JUMPDEST JUMPDEST PUSH2 0x4DF3 DUP3 PUSH2 0x560E JUMP JUMPDEST SWAP1 POP PUSH1 0x20 DUP2 ADD SWAP1 POP SWAP2 SWAP1 POP JUMP JUMPDEST PUSH1 0x0 DUP2 MLOAD SWAP1 POP SWAP2 SWAP1 POP JUMP JUMPDEST PUSH1 0x0 DUP2 MLOAD SWAP1 POP SWAP2 SWAP1 POP JUMP JUMPDEST PUSH1 0x0 DUP3 DUP3 MSTORE PUSH1 0x20 DUP3 ADD SWAP1 POP SWAP3 SWAP2 POP POP JUMP JUMPDEST PUSH1 0x0 DUP3 DUP3 MSTORE PUSH1 0x20 DUP3 ADD SWAP1 POP SWAP3 SWAP2 POP POP JUMP JUMPDEST PUSH1 0x0 DUP2 SWAP1 POP SWAP3 SWAP2 POP POP JUMP JUMPDEST PUSH1 0x0 PUSH2 0x4E4E DUP3 PUSH2 0x52EA JUMP JUMPDEST SWAP2 POP PUSH2 0x4E59 DUP4 PUSH2 0x52EA JUMP JUMPDEST SWAP3 POP DUP2 PUSH32 0x7FFFFFFFFFFFFFFFFFFFFFFFFFFFFFFFFFFFFFFFFFFFFFFFFFFFFFFFFFFFFFFF SUB DUP4 SGT PUSH1 0x0 DUP4 SLT ISZERO AND ISZERO PUSH2 0x4E94 JUMPI PUSH2 0x4E93 PUSH2 0x550F JUMP JUMPDEST JUMPDEST DUP2 PUSH32 0x8000000000000000000000000000000000000000000000000000000000000000 SUB DUP4 SLT PUSH1 0x0 DUP4 SLT AND ISZERO PUSH2 0x4ECC JUMPI PUSH2 0x4ECB PUSH2 0x550F JUMP JUMPDEST JUMPDEST DUP3 DUP3 ADD SWAP1 POP SWAP3 SWAP2 POP POP JUMP JUMPDEST PUSH1 0x0 PUSH2 0x4EE2 DUP3 PUSH2 0x5322 JUMP JUMPDEST SWAP2 POP PUSH2 0x4EED DUP4 PUSH2 0x5322 JUMP JUMPDEST SWAP3 POP DUP3 PUSH32 0xFFFFFFFFFFFFFFFFFFFFFFFFFFFFFFFFFFFFFFFFFFFFFFFFFFFFFFFFFFFFFFFF SUB DUP3 GT ISZERO PUSH2 0x4F22 JUMPI PUSH2 0x4F21 PUSH2 0x550F JUMP JUMPDEST JUMPDEST DUP3 DUP3 ADD SWAP1 POP SWAP3 SWAP2 POP POP JUMP JUMPDEST PUSH1 0x0 PUSH2 0x4F38 DUP3 PUSH2 0x532C JUMP JUMPDEST SWAP2 POP PUSH2 0x4F43 DUP4 PUSH2 0x532C JUMP JUMPDEST SWAP3 POP DUP3 PUSH1 0xFF SUB DUP3 GT ISZERO PUSH2 0x4F59 JUMPI PUSH2 0x4F58 PUSH2 0x550F JUMP JUMPDEST JUMPDEST DUP3 DUP3 ADD SWAP1 POP SWAP3 SWAP2 POP POP JUMP JUMPDEST PUSH1 0x0 PUSH2 0x4F6F DUP3 PUSH2 0x52EA JUMP JUMPDEST SWAP2 POP PUSH2 0x4F7A DUP4 PUSH2 0x52EA JUMP JUMPDEST SWAP3 POP DUP3 PUSH2 0x4F8A JUMPI PUSH2 0x4F89 PUSH2 0x553E JUMP JUMPDEST JUMPDEST PUSH1 0x1 PUSH1 0x0 SUB DUP4 EQ PUSH32 0x8000000000000000000000000000000000000000000000000000000000000000 DUP4 EQ AND ISZERO PUSH2 0x4FC3 JUMPI PUSH2 0x4FC2 PUSH2 0x550F JUMP JUMPDEST JUMPDEST DUP3 DUP3 SDIV SWAP1 POP SWAP3 SWAP2 POP POP JUMP JUMPDEST PUSH1 0x0 PUSH2 0x4FD9 DUP3 PUSH2 0x5322 JUMP JUMPDEST SWAP2 POP PUSH2 0x4FE4 DUP4 PUSH2 0x5322 JUMP JUMPDEST SWAP3 POP DUP3 PUSH2 0x4FF4 JUMPI PUSH2 0x4FF3 PUSH2 0x553E JUMP JUMPDEST JUMPDEST DUP3 DUP3 DIV SWAP1 POP SWAP3 SWAP2 POP POP JUMP JUMPDEST PUSH1 0x0 PUSH2 0x500A DUP3 PUSH2 0x52EA JUMP JUMPDEST SWAP2 POP PUSH2 0x5015 DUP4 PUSH2 0x52EA JUMP JUMPDEST SWAP3 POP DUP3 PUSH32 0x7FFFFFFFFFFFFFFFFFFFFFFFFFFFFFFFFFFFFFFFFFFFFFFFFFFFFFFFFFFFFFFF DIV DUP3 GT PUSH1 0x0 DUP5 SGT PUSH1 0x0 DUP5 SGT AND AND ISZERO PUSH2 0x5054 JUMPI PUSH2 0x5053 PUSH2 0x550F JUMP JUMPDEST JUMPDEST DUP2 PUSH32 0x8000000000000000000000000000000000000000000000000000000000000000 SDIV DUP4 SLT PUSH1 0x0 DUP5 SLT PUSH1 0x0 DUP5 SGT AND AND ISZERO PUSH2 0x5091 JUMPI PUSH2 0x5090 PUSH2 0x550F JUMP JUMPDEST JUMPDEST DUP3 PUSH32 0x8000000000000000000000000000000000000000000000000000000000000000 SDIV DUP3 SLT PUSH1 0x0 DUP5 SGT PUSH1 0x0 DUP5 SLT AND AND ISZERO PUSH2 0x50CE JUMPI PUSH2 0x50CD PUSH2 0x550F JUMP JUMPDEST JUMPDEST DUP3 PUSH32 0x7FFFFFFFFFFFFFFFFFFFFFFFFFFFFFFFFFFFFFFFFFFFFFFFFFFFFFFFFFFFFFFF SDIV DUP3 SLT PUSH1 0x0 DUP5 SLT PUSH1 0x0 DUP5 SLT AND AND ISZERO PUSH2 0x510B JUMPI PUSH2 0x510A PUSH2 0x550F JUMP JUMPDEST JUMPDEST DUP3 DUP3 MUL SWAP1 POP SWAP3 SWAP2 POP POP JUMP JUMPDEST PUSH1 0x0 PUSH2 0x5121 DUP3 PUSH2 0x5322 JUMP JUMPDEST SWAP2 POP PUSH2 0x512C DUP4 PUSH2 0x5322 JUMP JUMPDEST SWAP3 POP DUP2 PUSH32 0xFFFFFFFFFFFFFFFFFFFFFFFFFFFFFFFFFFFFFFFFFFFFFFFFFFFFFFFFFFFFFFFF DIV DUP4 GT DUP3 ISZERO ISZERO AND ISZERO PUSH2 0x5165 JUMPI PUSH2 0x5164 PUSH2 0x550F JUMP JUMPDEST JUMPDEST DUP3 DUP3 MUL SWAP1 POP SWAP3 SWAP2 POP POP JUMP JUMPDEST PUSH1 0x0 PUSH2 0x517B DUP3 PUSH2 0x52EA JUMP JUMPDEST SWAP2 POP PUSH2 0x5186 DUP4 PUSH2 0x52EA JUMP JUMPDEST SWAP3 POP DUP3 PUSH32 0x8000000000000000000000000000000000000000000000000000000000000000 ADD DUP3 SLT PUSH1 0x0 DUP5 SLT ISZERO AND ISZERO PUSH2 0x51C1 JUMPI PUSH2 0x51C0 PUSH2 0x550F JUMP JUMPDEST JUMPDEST DUP3 PUSH32 0x7FFFFFFFFFFFFFFFFFFFFFFFFFFFFFFFFFFFFFFFFFFFFFFFFFFFFFFFFFFFFFFF ADD DUP3 SGT PUSH1 0x0 DUP5 SLT AND ISZERO PUSH2 0x51F9 JUMPI PUSH2 0x51F8 PUSH2 0x550F JUMP JUMPDEST JUMPDEST DUP3 DUP3 SUB SWAP1 POP SWAP3 SWAP2 POP POP JUMP JUMPDEST PUSH1 0x0 PUSH2 0x520F DUP3 PUSH2 0x52F4 JUMP JUMPDEST SWAP2 POP PUSH2 0x521A DUP4 PUSH2 0x52F4 JUMP JUMPDEST SWAP3 POP DUP3 DUP3 LT ISZERO PUSH2 0x522D JUMPI PUSH2 0x522C PUSH2 0x550F JUMP JUMPDEST JUMPDEST DUP3 DUP3 SUB SWAP1 POP SWAP3 SWAP2 POP POP JUMP JUMPDEST PUSH1 0x0 PUSH2 0x5243 DUP3 PUSH2 0x5322 JUMP JUMPDEST SWAP2 POP PUSH2 0x524E DUP4 PUSH2 0x5322 JUMP JUMPDEST SWAP3 POP DUP3 DUP3 LT ISZERO PUSH2 0x5261 JUMPI PUSH2 0x5260 PUSH2 0x550F JUMP JUMPDEST JUMPDEST DUP3 DUP3 SUB SWAP1 POP SWAP3 SWAP2 POP POP JUMP JUMPDEST PUSH1 0x0 PUSH2 0x5277 DUP3 PUSH2 0x532C JUMP JUMPDEST SWAP2 POP PUSH2 0x5282 DUP4 PUSH2 0x532C JUMP JUMPDEST SWAP3 POP DUP3 DUP3 LT ISZERO PUSH2 0x5295 JUMPI PUSH2 0x5294 PUSH2 0x550F JUMP JUMPDEST JUMPDEST DUP3 DUP3 SUB SWAP1 POP SWAP3 SWAP2 POP POP JUMP JUMPDEST PUSH1 0x0 PUSH2 0x52AB DUP3 PUSH2 0x5302 JUMP JUMPDEST SWAP1 POP SWAP2 SWAP1 POP JUMP JUMPDEST PUSH1 0x0 DUP2 ISZERO ISZERO SWAP1 POP SWAP2 SWAP1 POP JUMP JUMPDEST PUSH1 0x0 PUSH32 0xFFFFFFFF00000000000000000000000000000000000000000000000000000000 DUP3 AND SWAP1 POP SWAP2 SWAP1 POP JUMP JUMPDEST PUSH1 0x0 DUP2 SWAP1 POP SWAP2 SWAP1 POP JUMP JUMPDEST PUSH1 0x0 PUSH2 0xFFFF DUP3 AND SWAP1 POP SWAP2 SWAP1 POP JUMP JUMPDEST PUSH1 0x0 PUSH20 0xFFFFFFFFFFFFFFFFFFFFFFFFFFFFFFFFFFFFFFFF DUP3 AND SWAP1 POP SWAP2 SWAP1 POP JUMP JUMPDEST PUSH1 0x0 DUP2 SWAP1 POP SWAP2 SWAP1 POP JUMP JUMPDEST PUSH1 0x0 PUSH1 0xFF DUP3 AND SWAP1 POP SWAP2 SWAP1 POP JUMP JUMPDEST DUP3 DUP2 DUP4 CALLDATACOPY PUSH1 0x0 DUP4 DUP4 ADD MSTORE POP POP POP JUMP JUMPDEST PUSH1 0x0 JUMPDEST DUP4 DUP2 LT ISZERO PUSH2 0x5366 JUMPI DUP1 DUP3 ADD MLOAD DUP2 DUP5 ADD MSTORE PUSH1 0x20 DUP2 ADD SWAP1 POP PUSH2 0x534B JUMP JUMPDEST DUP4 DUP2 GT ISZERO PUSH2 0x5375 JUMPI PUSH1 0x0 DUP5 DUP5 ADD MSTORE JUMPDEST POP POP POP POP JUMP JUMPDEST PUSH1 0x0 PUSH1 0x2 DUP3 DIV SWAP1 POP PUSH1 0x1 DUP3 AND DUP1 PUSH2 0x5393 JUMPI PUSH1 0x7F DUP3 AND SWAP2 POP JUMPDEST PUSH1 0x20 DUP3 LT DUP2 EQ ISZERO PUSH2 0x53A7 JUMPI PUSH2 0x53A6 PUSH2 0x556D JUMP JUMPDEST JUMPDEST POP SWAP2 SWAP1 POP JUMP JUMPDEST PUSH2 0x53B6 DUP3 PUSH2 0x560E JUMP JUMPDEST DUP2 ADD DUP2 DUP2 LT PUSH8 0xFFFFFFFFFFFFFFFF DUP3 GT OR ISZERO PUSH2 0x53D5 JUMPI PUSH2 0x53D4 PUSH2 0x55CB JUMP JUMPDEST JUMPDEST DUP1 PUSH1 0x40 MSTORE POP POP POP JUMP JUMPDEST PUSH1 0x0 PUSH2 0x53E9 DUP3 PUSH2 0x52F4 JUMP JUMPDEST SWAP2 POP PUSH2 0xFFFF DUP3 EQ ISZERO PUSH2 0x53FE JUMPI PUSH2 0x53FD PUSH2 0x550F JUMP JUMPDEST JUMPDEST PUSH1 0x1 DUP3 ADD SWAP1 POP SWAP2 SWAP1 POP JUMP JUMPDEST PUSH1 0x0 PUSH2 0x5414 DUP3 PUSH2 0x5322 JUMP JUMPDEST SWAP2 POP PUSH32 0xFFFFFFFFFFFFFFFFFFFFFFFFFFFFFFFFFFFFFFFFFFFFFFFFFFFFFFFFFFFFFFFF DUP3 EQ ISZERO PUSH2 0x5447 JUMPI PUSH2 0x5446 PUSH2 0x550F JUMP JUMPDEST JUMPDEST PUSH1 0x1 DUP3 ADD SWAP1 POP SWAP2 SWAP1 POP JUMP JUMPDEST PUSH1 0x0 PUSH2 0x545D DUP3 PUSH2 0x532C JUMP JUMPDEST SWAP2 POP PUSH1 0xFF DUP3 EQ ISZERO PUSH2 0x5471 JUMPI PUSH2 0x5470 PUSH2 0x550F JUMP JUMPDEST JUMPDEST PUSH1 0x1 DUP3 ADD SWAP1 POP SWAP2 SWAP1 POP JUMP JUMPDEST PUSH1 0x0 PUSH2 0x5487 DUP3 PUSH2 0x52F4 JUMP JUMPDEST SWAP2 POP PUSH2 0x5492 DUP4 PUSH2 0x52F4 JUMP JUMPDEST SWAP3 POP DUP3 PUSH2 0x54A2 JUMPI PUSH2 0x54A1 PUSH2 0x553E JUMP JUMPDEST JUMPDEST DUP3 DUP3 MOD SWAP1 POP SWAP3 SWAP2 POP POP JUMP JUMPDEST PUSH1 0x0 PUSH2 0x54B8 DUP3 PUSH2 0x5322 JUMP JUMPDEST SWAP2 POP PUSH2 0x54C3 DUP4 PUSH2 0x5322 JUMP JUMPDEST SWAP3 POP DUP3 PUSH2 0x54D3 JUMPI PUSH2 0x54D2 PUSH2 0x553E JUMP JUMPDEST JUMPDEST DUP3 DUP3 MOD SWAP1 POP SWAP3 SWAP2 POP POP JUMP JUMPDEST PUSH1 0x0 PUSH2 0x54E9 DUP3 PUSH2 0x532C JUMP JUMPDEST SWAP2 POP PUSH2 0x54F4 DUP4 PUSH2 0x532C JUMP JUMPDEST SWAP3 POP DUP3 PUSH2 0x5504 JUMPI PUSH2 0x5503 PUSH2 0x553E JUMP JUMPDEST JUMPDEST DUP3 DUP3 MOD SWAP1 POP SWAP3 SWAP2 POP POP JUMP JUMPDEST PUSH32 0x4E487B7100000000000000000000000000000000000000000000000000000000 PUSH1 0x0 MSTORE PUSH1 0x11 PUSH1 0x4 MSTORE PUSH1 0x24 PUSH1 0x0 REVERT JUMPDEST PUSH32 0x4E487B7100000000000000000000000000000000000000000000000000000000 PUSH1 0x0 MSTORE PUSH1 0x12 PUSH1 0x4 MSTORE PUSH1 0x24 PUSH1 0x0 REVERT JUMPDEST PUSH32 0x4E487B7100000000000000000000000000000000000000000000000000000000 PUSH1 0x0 MSTORE PUSH1 0x22 PUSH1 0x4 MSTORE PUSH1 0x24 PUSH1 0x0 REVERT JUMPDEST PUSH32 0x4E487B7100000000000000000000000000000000000000000000000000000000 PUSH1 0x0 MSTORE PUSH1 0x32 PUSH1 0x4 MSTORE PUSH1 0x24 PUSH1 0x0 REVERT JUMPDEST PUSH32 0x4E487B7100000000000000000000000000000000000000000000000000000000 PUSH1 0x0 MSTORE PUSH1 0x41 PUSH1 0x4 MSTORE PUSH1 0x24 PUSH1 0x0 REVERT JUMPDEST PUSH1 0x0 DUP1 REVERT JUMPDEST PUSH1 0x0 DUP1 REVERT JUMPDEST PUSH1 0x0 DUP1 REVERT JUMPDEST PUSH1 0x0 DUP1 REVERT JUMPDEST PUSH1 0x0 PUSH1 0x1F NOT PUSH1 0x1F DUP4 ADD AND SWAP1 POP SWAP2 SWAP1 POP JUMP JUMPDEST PUSH32 0x4F766572666C6F772070726F74656374696F6E207472696767657265642E0000 PUSH1 0x0 DUP3 ADD MSTORE POP JUMP JUMPDEST PUSH32 0x4552433732313A207472616E7366657220746F206E6F6E204552433732315265 PUSH1 0x0 DUP3 ADD MSTORE PUSH32 0x63656976657220696D706C656D656E7465720000000000000000000000000000 PUSH1 0x20 DUP3 ADD MSTORE POP JUMP JUMPDEST PUSH32 0x4F776E61626C653A206E6577206F776E657220697320746865207A65726F2061 PUSH1 0x0 DUP3 ADD MSTORE PUSH32 0x6464726573730000000000000000000000000000000000000000000000000000 PUSH1 0x20 DUP3 ADD MSTORE POP JUMP JUMPDEST PUSH32 0x4552433732313A20746F6B656E20616C7265616479206D696E74656400000000 PUSH1 0x0 DUP3 ADD MSTORE POP JUMP JUMPDEST PUSH32 0x4552433732313A207472616E7366657220746F20746865207A65726F20616464 PUSH1 0x0 DUP3 ADD MSTORE PUSH32 0x7265737300000000000000000000000000000000000000000000000000000000 PUSH1 0x20 DUP3 ADD MSTORE POP JUMP JUMPDEST PUSH32 0x4552433732313A20617070726F766520746F2063616C6C657200000000000000 PUSH1 0x0 DUP3 ADD MSTORE POP JUMP JUMPDEST PUSH32 0x536F6E6720726571756573742071756575652069732066756C6C2E0000000000 PUSH1 0x0 DUP3 ADD MSTORE POP JUMP JUMPDEST PUSH32 0x4F6E6520616464726573732063616E206F6E6C7920686F6C64206F6E6520746F PUSH1 0x0 DUP3 ADD MSTORE PUSH32 0x6B656E2E00000000000000000000000000000000000000000000000000000000 PUSH1 0x20 DUP3 ADD MSTORE POP JUMP JUMPDEST PUSH32 0x596F75206861766520746F2073656E6420534F4D452072657061796D656E7420 PUSH1 0x0 DUP3 ADD MSTORE PUSH32 0x616D6F756E742E00000000000000000000000000000000000000000000000000 PUSH1 0x20 DUP3 ADD MSTORE POP JUMP JUMPDEST PUSH32 0x446562742063616E2774206265206E65676174697665206F7220302E00000000 PUSH1 0x0 DUP3 ADD MSTORE POP JUMP JUMPDEST PUSH32 0x4552433732313A206F70657261746F7220717565727920666F72206E6F6E6578 PUSH1 0x0 DUP3 ADD MSTORE PUSH32 0x697374656E7420746F6B656E0000000000000000000000000000000000000000 PUSH1 0x20 DUP3 ADD MSTORE POP JUMP JUMPDEST PUSH32 0x4552433732313A20617070726F76652063616C6C6572206973206E6F74206F77 PUSH1 0x0 DUP3 ADD MSTORE PUSH32 0x6E6572206E6F7220617070726F76656420666F7220616C6C0000000000000000 PUSH1 0x20 DUP3 ADD MSTORE POP JUMP JUMPDEST PUSH32 0x4552433732313A2062616C616E636520717565727920666F7220746865207A65 PUSH1 0x0 DUP3 ADD MSTORE PUSH32 0x726F206164647265737300000000000000000000000000000000000000000000 PUSH1 0x20 DUP3 ADD MSTORE POP JUMP JUMPDEST PUSH32 0x4552433732313A206F776E657220717565727920666F72206E6F6E6578697374 PUSH1 0x0 DUP3 ADD MSTORE PUSH32 0x656E7420746F6B656E0000000000000000000000000000000000000000000000 PUSH1 0x20 DUP3 ADD MSTORE POP JUMP JUMPDEST PUSH32 0x4552433732313A206D696E7420746F20746865207A65726F2061646472657373 PUSH1 0x0 DUP3 ADD MSTORE POP JUMP JUMPDEST PUSH32 0x546F6B656E20646F6573206E6F742065786973742E0000000000000000000000 PUSH1 0x0 DUP3 ADD MSTORE POP JUMP JUMPDEST PUSH32 0x546F6B656E206973206E6F7420696E20646562742E0000000000000000000000 PUSH1 0x0 DUP3 ADD MSTORE POP JUMP JUMPDEST PUSH32 0x4552433732313A20617070726F76656420717565727920666F72206E6F6E6578 PUSH1 0x0 DUP3 ADD MSTORE PUSH32 0x697374656E7420746F6B656E0000000000000000000000000000000000000000 PUSH1 0x20 DUP3 ADD MSTORE POP JUMP JUMPDEST PUSH32 0x4F776E61626C653A2063616C6C6572206973206E6F7420746865206F776E6572 PUSH1 0x0 DUP3 ADD MSTORE POP JUMP JUMPDEST PUSH32 0x4552433732313A207472616E73666572206F6620746F6B656E20746861742069 PUSH1 0x0 DUP3 ADD MSTORE PUSH32 0x73206E6F74206F776E0000000000000000000000000000000000000000000000 PUSH1 0x20 DUP3 ADD MSTORE POP JUMP JUMPDEST PUSH32 0x4552433732314D657461646174613A2055524920717565727920666F72206E6F PUSH1 0x0 DUP3 ADD MSTORE PUSH32 0x6E6578697374656E7420746F6B656E0000000000000000000000000000000000 PUSH1 0x20 DUP3 ADD MSTORE POP JUMP JUMPDEST PUSH32 0x4552433732313A20617070726F76616C20746F2063757272656E74206F776E65 PUSH1 0x0 DUP3 ADD MSTORE PUSH32 0x7200000000000000000000000000000000000000000000000000000000000000 PUSH1 0x20 DUP3 ADD MSTORE POP JUMP JUMPDEST PUSH32 0x4F6E6C79203130207669702063617264732063616E2065786973742E00000000 PUSH1 0x0 DUP3 ADD MSTORE POP JUMP JUMPDEST PUSH32 0x596F75206D757374206265206120746F6B656E20686F6C64657220746F207573 PUSH1 0x0 DUP3 ADD MSTORE PUSH32 0x65207468697320736572766963652E0000000000000000000000000000000000 PUSH1 0x20 DUP3 ADD MSTORE POP JUMP JUMPDEST PUSH32 0x4552433732313A207472616E736665722063616C6C6572206973206E6F74206F PUSH1 0x0 DUP3 ADD MSTORE PUSH32 0x776E6572206E6F7220617070726F766564000000000000000000000000000000 PUSH1 0x20 DUP3 ADD MSTORE POP JUMP JUMPDEST PUSH32 0x4552433732314275726E61626C653A2063616C6C6572206973206E6F74206F77 PUSH1 0x0 DUP3 ADD MSTORE PUSH32 0x6E6572206E6F7220617070726F76656400000000000000000000000000000000 PUSH1 0x20 DUP3 ADD MSTORE POP JUMP JUMPDEST PUSH32 0x496E73756666696369656E742066756E64732E00000000000000000000000000 PUSH1 0x0 DUP3 ADD MSTORE POP JUMP JUMPDEST PUSH2 0x5CDB DUP2 PUSH2 0x52A0 JUMP JUMPDEST DUP2 EQ PUSH2 0x5CE6 JUMPI PUSH1 0x0 DUP1 REVERT JUMPDEST POP JUMP JUMPDEST PUSH2 0x5CF2 DUP2 PUSH2 0x52B2 JUMP JUMPDEST DUP2 EQ PUSH2 0x5CFD JUMPI PUSH1 0x0 DUP1 REVERT JUMPDEST POP JUMP JUMPDEST PUSH2 0x5D09 DUP2 PUSH2 0x52BE JUMP JUMPDEST DUP2 EQ PUSH2 0x5D14 JUMPI PUSH1 0x0 DUP1 REVERT JUMPDEST POP JUMP JUMPDEST PUSH2 0x5D20 DUP2 PUSH2 0x52EA JUMP JUMPDEST DUP2 EQ PUSH2 0x5D2B JUMPI PUSH1 0x0 DUP1 REVERT JUMPDEST POP JUMP JUMPDEST PUSH2 0x5D37 DUP2 PUSH2 0x52F4 JUMP JUMPDEST DUP2 EQ PUSH2 0x5D42 JUMPI PUSH1 0x0 DUP1 REVERT JUMPDEST POP JUMP JUMPDEST PUSH2 0x5D4E DUP2 PUSH2 0x5322 JUMP JUMPDEST DUP2 EQ PUSH2 0x5D59 JUMPI PUSH1 0x0 DUP1 REVERT JUMPDEST POP JUMP JUMPDEST PUSH2 0x5D65 DUP2 PUSH2 0x532C JUMP JUMPDEST DUP2 EQ PUSH2 0x5D70 JUMPI PUSH1 0x0 DUP1 REVERT JUMPDEST POP JUMP INVALID LOG2 PUSH5 0x6970667358 0x22 SLT KECCAK256 0xE6 SAR PUSH11 0xA8F66F1D4E701D855D393C 0x1F SWAP1 0xBD SWAP12 PUSH14 0xF9C9F9E65FB8072936A99BF71764 PUSH20 0x6F6C634300080700330000000000000000000000 "
		},
		"gasEstimates": {
			"creation": {
				"codeDepositCost": "4795400",
				"executionCost": "infinite",
				"totalCost": "infinite"
			},
			"external": {
				"approve(address,uint256)": "infinite",
				"auctionEnd()": "34845",
				"auctionStart()": "64845",
				"balanceOf(address)": "2925",
				"bid()": "infinite",
				"burn(uint256)": "infinite",
				"getApproved(uint256)": "5273",
				"getDay(uint256)": "infinite",
				"getDaysInMonth(uint8,uint16)": "infinite",
				"getDebt(uint256)": "2842",
				"getHour(uint256)": "infinite",
				"getLatestPrice1RSDtoWEI()": "infinite",
				"getMinute(uint256)": "infinite",
				"getMonth(uint256)": "infinite",
				"getNextSong()": "2596",
				"getSecond(uint256)": "infinite",
				"getSongAtPosition(uint8)": "infinite",
				"getSongQueueStartAndEnd()": "infinite",
				"getWeekday(uint256)": "infinite",
				"getYear(uint256)": "infinite",
				"highestBid()": "2495",
				"highestBidder()": "2653",
				"isApprovedForAll(address,address)": "infinite",
				"isLeapYear(uint16)": "infinite",
				"leapYearsBefore(uint256)": "infinite",
				"name()": "infinite",
				"owner()": "2567",
				"ownerOf(uint256)": "3066",
				"payDebt(uint256)": "infinite",
				"playSong()": "infinite",
				"renounceOwnership()": "30442",
				"requestSong(string)": "infinite",
				"safeMint()": "infinite",
				"safeTransferFrom(address,address,uint256)": "infinite",
				"safeTransferFrom(address,address,uint256,bytes)": "infinite",
				"setApprovalForAll(address,bool)": "infinite",
				"setDebt(int256,uint256)": "infinite",
				"songQueue(uint256)": "infinite",
				"supportsInterface(bytes4)": "842",
				"symbol()": "infinite",
				"toTimestamp(uint16,uint8,uint8)": "infinite",
				"toTimestamp(uint16,uint8,uint8,uint8)": "infinite",
				"toTimestamp(uint16,uint8,uint8,uint8,uint8)": "infinite",
				"toTimestamp(uint16,uint8,uint8,uint8,uint8,uint8)": "infinite",
				"tokenIdToDebt(uint256)": "2799",
				"tokenURI(uint256)": "infinite",
				"transferFrom(address,address,uint256)": "infinite",
				"transferOwnership(address)": "30833",
				"withdraw()": "infinite"
			},
			"internal": {
				"_baseURI()": "infinite",
				"getLatestPrice()": "36"
			}
		},
		"methodIdentifiers": {
			"approve(address,uint256)": "095ea7b3",
			"auctionEnd()": "2a24f46c",
			"auctionStart()": "4f245ef7",
			"balanceOf(address)": "70a08231",
			"bid()": "1998aeef",
			"burn(uint256)": "42966c68",
			"getApproved(uint256)": "081812fc",
			"getDay(uint256)": "65c72840",
			"getDaysInMonth(uint8,uint16)": "b238ad0e",
			"getDebt(uint256)": "c9dd1f3c",
			"getHour(uint256)": "3e239e1a",
			"getLatestPrice1RSDtoWEI()": "991352d0",
			"getMinute(uint256)": "fa93f883",
			"getMonth(uint256)": "a324ad24",
			"getNextSong()": "bb8f3320",
			"getSecond(uint256)": "8aa001fc",
			"getSongAtPosition(uint8)": "08ac7ad6",
			"getSongQueueStartAndEnd()": "6c49c70a",
			"getWeekday(uint256)": "4ac1ad78",
			"getYear(uint256)": "92d66313",
			"highestBid()": "d57bde79",
			"highestBidder()": "91f90157",
			"isApprovedForAll(address,address)": "e985e9c5",
			"isLeapYear(uint16)": "a6f0e577",
			"leapYearsBefore(uint256)": "b1999937",
			"name()": "06fdde03",
			"owner()": "8da5cb5b",
			"ownerOf(uint256)": "6352211e",
			"payDebt(uint256)": "16fc3297",
			"playSong()": "0fb93d34",
			"renounceOwnership()": "715018a6",
			"requestSong(string)": "44ee6389",
			"safeMint()": "6871ee40",
			"safeTransferFrom(address,address,uint256)": "42842e0e",
			"safeTransferFrom(address,address,uint256,bytes)": "b88d4fde",
			"setApprovalForAll(address,bool)": "a22cb465",
			"setDebt(int256,uint256)": "00f38adb",
			"songQueue(uint256)": "8bcb2b82",
			"supportsInterface(bytes4)": "01ffc9a7",
			"symbol()": "95d89b41",
			"toTimestamp(uint16,uint8,uint8)": "8c8d98a0",
			"toTimestamp(uint16,uint8,uint8,uint8)": "7f791833",
			"toTimestamp(uint16,uint8,uint8,uint8,uint8)": "62ba9687",
			"toTimestamp(uint16,uint8,uint8,uint8,uint8,uint8)": "9054bdec",
			"tokenIdToDebt(uint256)": "15140e43",
			"tokenURI(uint256)": "c87b56dd",
			"transferFrom(address,address,uint256)": "23b872dd",
			"transferOwnership(address)": "f2fde38b",
			"withdraw()": "3ccfd60b"
		}
	},
	"abi": [
		{
			"inputs": [],
			"stateMutability": "nonpayable",
			"type": "constructor"
		},
		{
			"inputs": [],
			"name": "AuctionAlreadyEnded",
			"type": "error"
		},
		{
			"inputs": [],
			"name": "AuctionAlreadyStarted",
			"type": "error"
		},
		{
			"inputs": [
				{
					"internalType": "uint256",
					"name": "highestBid",
					"type": "uint256"
				}
			],
			"name": "BidNotHighEnough",
			"type": "error"
		},
		{
			"anonymous": false,
			"inputs": [
				{
					"indexed": true,
					"internalType": "address",
					"name": "owner",
					"type": "address"
				},
				{
					"indexed": true,
					"internalType": "address",
					"name": "approved",
					"type": "address"
				},
				{
					"indexed": true,
					"internalType": "uint256",
					"name": "tokenId",
					"type": "uint256"
				}
			],
			"name": "Approval",
			"type": "event"
		},
		{
			"anonymous": false,
			"inputs": [
				{
					"indexed": true,
					"internalType": "address",
					"name": "owner",
					"type": "address"
				},
				{
					"indexed": true,
					"internalType": "address",
					"name": "operator",
					"type": "address"
				},
				{
					"indexed": false,
					"internalType": "bool",
					"name": "approved",
					"type": "bool"
				}
			],
			"name": "ApprovalForAll",
			"type": "event"
		},
		{
			"anonymous": false,
			"inputs": [
				{
					"indexed": false,
					"internalType": "address",
					"name": "winner",
					"type": "address"
				},
				{
					"indexed": false,
					"internalType": "uint256",
					"name": "amount",
					"type": "uint256"
				}
			],
			"name": "AuctionEnded",
			"type": "event"
		},
		{
			"anonymous": false,
			"inputs": [],
			"name": "AuctionStarted",
			"type": "event"
		},
		{
			"anonymous": false,
			"inputs": [
				{
					"indexed": false,
					"internalType": "address",
					"name": "bidder",
					"type": "address"
				},
				{
					"indexed": false,
					"internalType": "uint256",
					"name": "amount",
					"type": "uint256"
				}
			],
			"name": "HighestBidIncreased",
			"type": "event"
		},
		{
			"anonymous": false,
			"inputs": [
				{
					"indexed": true,
					"internalType": "address",
					"name": "previousOwner",
					"type": "address"
				},
				{
					"indexed": true,
					"internalType": "address",
					"name": "newOwner",
					"type": "address"
				}
			],
			"name": "OwnershipTransferred",
			"type": "event"
		},
		{
			"anonymous": false,
			"inputs": [
				{
					"indexed": true,
					"internalType": "address",
					"name": "from",
					"type": "address"
				},
				{
					"indexed": true,
					"internalType": "address",
					"name": "to",
					"type": "address"
				},
				{
					"indexed": true,
					"internalType": "uint256",
					"name": "tokenId",
					"type": "uint256"
				}
			],
			"name": "Transfer",
			"type": "event"
		},
		{
			"inputs": [
				{
					"internalType": "address",
					"name": "to",
					"type": "address"
				},
				{
					"internalType": "uint256",
					"name": "tokenId",
					"type": "uint256"
				}
			],
			"name": "approve",
			"outputs": [],
			"stateMutability": "nonpayable",
			"type": "function"
		},
		{
			"inputs": [],
			"name": "auctionEnd",
			"outputs": [],
			"stateMutability": "nonpayable",
			"type": "function"
		},
		{
			"inputs": [],
			"name": "auctionStart",
			"outputs": [],
			"stateMutability": "nonpayable",
			"type": "function"
		},
		{
			"inputs": [
				{
					"internalType": "address",
					"name": "owner",
					"type": "address"
				}
			],
			"name": "balanceOf",
			"outputs": [
				{
					"internalType": "uint256",
					"name": "",
					"type": "uint256"
				}
			],
			"stateMutability": "view",
			"type": "function"
		},
		{
			"inputs": [],
			"name": "bid",
			"outputs": [],
			"stateMutability": "payable",
			"type": "function"
		},
		{
			"inputs": [
				{
					"internalType": "uint256",
					"name": "tokenId",
					"type": "uint256"
				}
			],
			"name": "burn",
			"outputs": [],
			"stateMutability": "nonpayable",
			"type": "function"
		},
		{
			"inputs": [
				{
					"internalType": "uint256",
					"name": "tokenId",
					"type": "uint256"
				}
			],
			"name": "getApproved",
			"outputs": [
				{
					"internalType": "address",
					"name": "",
					"type": "address"
				}
			],
			"stateMutability": "view",
			"type": "function"
		},
		{
			"inputs": [
				{
					"internalType": "uint256",
					"name": "timestamp",
					"type": "uint256"
				}
			],
			"name": "getDay",
			"outputs": [
				{
					"internalType": "uint8",
					"name": "",
					"type": "uint8"
				}
			],
			"stateMutability": "pure",
			"type": "function"
		},
		{
			"inputs": [
				{
					"internalType": "uint8",
					"name": "month",
					"type": "uint8"
				},
				{
					"internalType": "uint16",
					"name": "year",
					"type": "uint16"
				}
			],
			"name": "getDaysInMonth",
			"outputs": [
				{
					"internalType": "uint8",
					"name": "",
					"type": "uint8"
				}
			],
			"stateMutability": "pure",
			"type": "function"
		},
		{
			"inputs": [
				{
					"internalType": "uint256",
					"name": "_tokenId",
					"type": "uint256"
				}
			],
			"name": "getDebt",
			"outputs": [
				{
					"internalType": "int256",
					"name": "",
					"type": "int256"
				}
			],
			"stateMutability": "view",
			"type": "function"
		},
		{
			"inputs": [
				{
					"internalType": "uint256",
					"name": "timestamp",
					"type": "uint256"
				}
			],
			"name": "getHour",
			"outputs": [
				{
					"internalType": "uint8",
					"name": "",
					"type": "uint8"
				}
			],
			"stateMutability": "pure",
			"type": "function"
		},
		{
			"inputs": [],
			"name": "getLatestPrice1RSDtoWEI",
			"outputs": [
				{
					"internalType": "int256",
					"name": "",
					"type": "int256"
				}
			],
			"stateMutability": "pure",
			"type": "function"
		},
		{
			"inputs": [
				{
					"internalType": "uint256",
					"name": "timestamp",
					"type": "uint256"
				}
			],
			"name": "getMinute",
			"outputs": [
				{
					"internalType": "uint8",
					"name": "",
					"type": "uint8"
				}
			],
			"stateMutability": "pure",
			"type": "function"
		},
		{
			"inputs": [
				{
					"internalType": "uint256",
					"name": "timestamp",
					"type": "uint256"
				}
			],
			"name": "getMonth",
			"outputs": [
				{
					"internalType": "uint8",
					"name": "",
					"type": "uint8"
				}
			],
			"stateMutability": "pure",
			"type": "function"
		},
		{
			"inputs": [],
			"name": "getNextSong",
			"outputs": [
				{
					"internalType": "uint8",
					"name": "",
					"type": "uint8"
				}
			],
			"stateMutability": "view",
			"type": "function"
		},
		{
			"inputs": [
				{
					"internalType": "uint256",
					"name": "timestamp",
					"type": "uint256"
				}
			],
			"name": "getSecond",
			"outputs": [
				{
					"internalType": "uint8",
					"name": "",
					"type": "uint8"
				}
			],
			"stateMutability": "pure",
			"type": "function"
		},
		{
			"inputs": [
				{
					"internalType": "uint8",
					"name": "index",
					"type": "uint8"
				}
			],
			"name": "getSongAtPosition",
			"outputs": [
				{
					"internalType": "string",
					"name": "",
					"type": "string"
				}
			],
			"stateMutability": "view",
			"type": "function"
		},
		{
			"inputs": [],
			"name": "getSongQueueStartAndEnd",
			"outputs": [
				{
					"internalType": "uint8",
					"name": "",
					"type": "uint8"
				},
				{
					"internalType": "uint8",
					"name": "",
					"type": "uint8"
				}
			],
			"stateMutability": "view",
			"type": "function"
		},
		{
			"inputs": [
				{
					"internalType": "uint256",
					"name": "timestamp",
					"type": "uint256"
				}
			],
			"name": "getWeekday",
			"outputs": [
				{
					"internalType": "uint8",
					"name": "",
					"type": "uint8"
				}
			],
			"stateMutability": "pure",
			"type": "function"
		},
		{
			"inputs": [
				{
					"internalType": "uint256",
					"name": "timestamp",
					"type": "uint256"
				}
			],
			"name": "getYear",
			"outputs": [
				{
					"internalType": "uint16",
					"name": "",
					"type": "uint16"
				}
			],
			"stateMutability": "pure",
			"type": "function"
		},
		{
			"inputs": [],
			"name": "highestBid",
			"outputs": [
				{
					"internalType": "uint256",
					"name": "",
					"type": "uint256"
				}
			],
			"stateMutability": "view",
			"type": "function"
		},
		{
			"inputs": [],
			"name": "highestBidder",
			"outputs": [
				{
					"internalType": "address",
					"name": "",
					"type": "address"
				}
			],
			"stateMutability": "view",
			"type": "function"
		},
		{
			"inputs": [
				{
					"internalType": "address",
					"name": "owner",
					"type": "address"
				},
				{
					"internalType": "address",
					"name": "operator",
					"type": "address"
				}
			],
			"name": "isApprovedForAll",
			"outputs": [
				{
					"internalType": "bool",
					"name": "",
					"type": "bool"
				}
			],
			"stateMutability": "view",
			"type": "function"
		},
		{
			"inputs": [
				{
					"internalType": "uint16",
					"name": "year",
					"type": "uint16"
				}
			],
			"name": "isLeapYear",
			"outputs": [
				{
					"internalType": "bool",
					"name": "",
					"type": "bool"
				}
			],
			"stateMutability": "pure",
			"type": "function"
		},
		{
			"inputs": [
				{
					"internalType": "uint256",
					"name": "year",
					"type": "uint256"
				}
			],
			"name": "leapYearsBefore",
			"outputs": [
				{
					"internalType": "uint256",
					"name": "",
					"type": "uint256"
				}
			],
			"stateMutability": "pure",
			"type": "function"
		},
		{
			"inputs": [],
			"name": "name",
			"outputs": [
				{
					"internalType": "string",
					"name": "",
					"type": "string"
				}
			],
			"stateMutability": "view",
			"type": "function"
		},
		{
			"inputs": [],
			"name": "owner",
			"outputs": [
				{
					"internalType": "address",
					"name": "",
					"type": "address"
				}
			],
			"stateMutability": "view",
			"type": "function"
		},
		{
			"inputs": [
				{
					"internalType": "uint256",
					"name": "tokenId",
					"type": "uint256"
				}
			],
			"name": "ownerOf",
			"outputs": [
				{
					"internalType": "address",
					"name": "",
					"type": "address"
				}
			],
			"stateMutability": "view",
			"type": "function"
		},
		{
			"inputs": [
				{
					"internalType": "uint256",
					"name": "_tokenId",
					"type": "uint256"
				}
			],
			"name": "payDebt",
			"outputs": [],
			"stateMutability": "payable",
			"type": "function"
		},
		{
			"inputs": [],
			"name": "playSong",
			"outputs": [
				{
					"internalType": "string",
					"name": "",
					"type": "string"
				}
			],
			"stateMutability": "nonpayable",
			"type": "function"
		},
		{
			"inputs": [],
			"name": "renounceOwnership",
			"outputs": [],
			"stateMutability": "nonpayable",
			"type": "function"
		},
		{
			"inputs": [
				{
					"internalType": "string",
					"name": "songName",
					"type": "string"
				}
			],
			"name": "requestSong",
			"outputs": [],
			"stateMutability": "nonpayable",
			"type": "function"
		},
		{
			"inputs": [],
			"name": "safeMint",
			"outputs": [],
			"stateMutability": "payable",
			"type": "function"
		},
		{
			"inputs": [
				{
					"internalType": "address",
					"name": "from",
					"type": "address"
				},
				{
					"internalType": "address",
					"name": "to",
					"type": "address"
				},
				{
					"internalType": "uint256",
					"name": "tokenId",
					"type": "uint256"
				}
			],
			"name": "safeTransferFrom",
			"outputs": [],
			"stateMutability": "nonpayable",
			"type": "function"
		},
		{
			"inputs": [
				{
					"internalType": "address",
					"name": "from",
					"type": "address"
				},
				{
					"internalType": "address",
					"name": "to",
					"type": "address"
				},
				{
					"internalType": "uint256",
					"name": "tokenId",
					"type": "uint256"
				},
				{
					"internalType": "bytes",
					"name": "_data",
					"type": "bytes"
				}
			],
			"name": "safeTransferFrom",
			"outputs": [],
			"stateMutability": "nonpayable",
			"type": "function"
		},
		{
			"inputs": [
				{
					"internalType": "address",
					"name": "operator",
					"type": "address"
				},
				{
					"internalType": "bool",
					"name": "approved",
					"type": "bool"
				}
			],
			"name": "setApprovalForAll",
			"outputs": [],
			"stateMutability": "nonpayable",
			"type": "function"
		},
		{
			"inputs": [
				{
					"internalType": "int256",
					"name": "_priceInRSD",
					"type": "int256"
				},
				{
					"internalType": "uint256",
					"name": "_tokenId",
					"type": "uint256"
				}
			],
			"name": "setDebt",
			"outputs": [],
			"stateMutability": "nonpayable",
			"type": "function"
		},
		{
			"inputs": [
				{
					"internalType": "uint256",
					"name": "",
					"type": "uint256"
				}
			],
			"name": "songQueue",
			"outputs": [
				{
					"internalType": "string",
					"name": "",
					"type": "string"
				}
			],
			"stateMutability": "view",
			"type": "function"
		},
		{
			"inputs": [
				{
					"internalType": "bytes4",
					"name": "interfaceId",
					"type": "bytes4"
				}
			],
			"name": "supportsInterface",
			"outputs": [
				{
					"internalType": "bool",
					"name": "",
					"type": "bool"
				}
			],
			"stateMutability": "view",
			"type": "function"
		},
		{
			"inputs": [],
			"name": "symbol",
			"outputs": [
				{
					"internalType": "string",
					"name": "",
					"type": "string"
				}
			],
			"stateMutability": "view",
			"type": "function"
		},
		{
			"inputs": [
				{
					"internalType": "uint16",
					"name": "year",
					"type": "uint16"
				},
				{
					"internalType": "uint8",
					"name": "month",
					"type": "uint8"
				},
				{
					"internalType": "uint8",
					"name": "day",
					"type": "uint8"
				},
				{
					"internalType": "uint8",
					"name": "hour",
					"type": "uint8"
				},
				{
					"internalType": "uint8",
					"name": "minute",
					"type": "uint8"
				}
			],
			"name": "toTimestamp",
			"outputs": [
				{
					"internalType": "uint256",
					"name": "timestamp",
					"type": "uint256"
				}
			],
			"stateMutability": "pure",
			"type": "function"
		},
		{
			"inputs": [
				{
					"internalType": "uint16",
					"name": "year",
					"type": "uint16"
				},
				{
					"internalType": "uint8",
					"name": "month",
					"type": "uint8"
				},
				{
					"internalType": "uint8",
					"name": "day",
					"type": "uint8"
				},
				{
					"internalType": "uint8",
					"name": "hour",
					"type": "uint8"
				}
			],
			"name": "toTimestamp",
			"outputs": [
				{
					"internalType": "uint256",
					"name": "timestamp",
					"type": "uint256"
				}
			],
			"stateMutability": "pure",
			"type": "function"
		},
		{
			"inputs": [
				{
					"internalType": "uint16",
					"name": "year",
					"type": "uint16"
				},
				{
					"internalType": "uint8",
					"name": "month",
					"type": "uint8"
				},
				{
					"internalType": "uint8",
					"name": "day",
					"type": "uint8"
				}
			],
			"name": "toTimestamp",
			"outputs": [
				{
					"internalType": "uint256",
					"name": "timestamp",
					"type": "uint256"
				}
			],
			"stateMutability": "pure",
			"type": "function"
		},
		{
			"inputs": [
				{
					"internalType": "uint16",
					"name": "year",
					"type": "uint16"
				},
				{
					"internalType": "uint8",
					"name": "month",
					"type": "uint8"
				},
				{
					"internalType": "uint8",
					"name": "day",
					"type": "uint8"
				},
				{
					"internalType": "uint8",
					"name": "hour",
					"type": "uint8"
				},
				{
					"internalType": "uint8",
					"name": "minute",
					"type": "uint8"
				},
				{
					"internalType": "uint8",
					"name": "second",
					"type": "uint8"
				}
			],
			"name": "toTimestamp",
			"outputs": [
				{
					"internalType": "uint256",
					"name": "timestamp",
					"type": "uint256"
				}
			],
			"stateMutability": "pure",
			"type": "function"
		},
		{
			"inputs": [
				{
					"internalType": "uint256",
					"name": "",
					"type": "uint256"
				}
			],
			"name": "tokenIdToDebt",
			"outputs": [
				{
					"internalType": "int256",
					"name": "",
					"type": "int256"
				}
			],
			"stateMutability": "view",
			"type": "function"
		},
		{
			"inputs": [
				{
					"internalType": "uint256",
					"name": "tokenId",
					"type": "uint256"
				}
			],
			"name": "tokenURI",
			"outputs": [
				{
					"internalType": "string",
					"name": "",
					"type": "string"
				}
			],
			"stateMutability": "view",
			"type": "function"
		},
		{
			"inputs": [
				{
					"internalType": "address",
					"name": "from",
					"type": "address"
				},
				{
					"internalType": "address",
					"name": "to",
					"type": "address"
				},
				{
					"internalType": "uint256",
					"name": "tokenId",
					"type": "uint256"
				}
			],
			"name": "transferFrom",
			"outputs": [],
			"stateMutability": "nonpayable",
			"type": "function"
		},
		{
			"inputs": [
				{
					"internalType": "address",
					"name": "newOwner",
					"type": "address"
				}
			],
			"name": "transferOwnership",
			"outputs": [],
			"stateMutability": "nonpayable",
			"type": "function"
		},
		{
			"inputs": [],
			"name": "withdraw",
			"outputs": [
				{
					"internalType": "bool",
					"name": "",
					"type": "bool"
				}
			],
			"stateMutability": "nonpayable",
			"type": "function"
		}
	]
}